{
  "_format": "hh-sol-artifact-1",
  "contractName": "VotingPowerFacet",
  "sourceName": "contracts/facets/VotingPowerFacet.sol",
  "abi": [
    {
      "inputs": [
        {
          "internalType": "address",
          "name": "voter",
          "type": "address"
        },
        {
          "internalType": "uint256",
          "name": "amount",
          "type": "uint256"
        }
      ],
      "name": "decreaseVotingPower",
      "outputs": [],
      "stateMutability": "nonpayable",
      "type": "function"
    },
    {
      "inputs": [],
      "name": "getMaxAmountOfVotingPower",
      "outputs": [
        {
          "internalType": "uint256",
          "name": "",
          "type": "uint256"
        }
      ],
      "stateMutability": "view",
      "type": "function"
    },
    {
      "inputs": [],
      "name": "getTotalAmountOfVotingPower",
      "outputs": [
        {
          "internalType": "uint256",
          "name": "",
          "type": "uint256"
        }
      ],
      "stateMutability": "view",
      "type": "function"
    },
    {
      "inputs": [
        {
          "internalType": "address",
          "name": "voter",
          "type": "address"
        }
      ],
      "name": "getVoterVotingPower",
      "outputs": [
        {
          "internalType": "uint256",
          "name": "",
          "type": "uint256"
        }
      ],
      "stateMutability": "view",
      "type": "function"
    },
    {
      "inputs": [],
      "name": "getVotingPowerManager",
      "outputs": [
        {
          "internalType": "address",
          "name": "",
          "type": "address"
        }
      ],
      "stateMutability": "view",
      "type": "function"
    },
    {
      "inputs": [
        {
          "internalType": "address",
          "name": "voter",
          "type": "address"
        },
        {
          "internalType": "uint256",
          "name": "amount",
          "type": "uint256"
        }
      ],
      "name": "increaseVotingPower",
      "outputs": [],
      "stateMutability": "nonpayable",
      "type": "function"
    }
  ],
  "bytecode": "0x608060405234801561001057600080fd5b50610990806100206000396000f3fe608060405234801561001057600080fd5b50600436106100625760003560e01c80631c6d156c1461006757806321b69fd61461008357806383328890146100a15780638ac015be146100bf578063dc7d5d25146100dd578063e33435c4146100f9575b600080fd5b610081600480360381019061007c9190610684565b610129565b005b61008b610137565b60405161009891906106d3565b60405180910390f35b6100a9610146565b6040516100b691906106fd565b60405180910390f35b6100c76101ba565b6040516100d491906106fd565b60405180910390f35b6100f760048036038101906100f29190610684565b6101c9565b005b610113600480360381019061010e9190610718565b6101d7565b60405161012091906106fd565b60405180910390f35b61013382826101e9565b5050565b6000610141610312565b905090565b600073__$ac80b70655973129101145d998fccce3e8$__63200cd9cc6040518163ffffffff1660e01b8152600401602060405180830381865af4158015610191573d6000803e3d6000fd5b505050506040513d601f19601f820116820180604052508101906101b5919061075a565b905090565b60006101c461034a565b905090565b6101d38282610362565b5050565b60006101e282610442565b9050919050565b60006101f3610499565b90508060000160009054906101000a900473ffffffffffffffffffffffffffffffffffffffff1673ffffffffffffffffffffffffffffffffffffffff163373ffffffffffffffffffffffffffffffffffffffff161461025157600080fd5b61025a836104c6565b1561029a576040517f08c379a00000000000000000000000000000000000000000000000000000000081526004016102919061080a565b60405180910390fd5b818160020160008282546102ae9190610859565b92505081905550818160010160008573ffffffffffffffffffffffffffffffffffffffff1673ffffffffffffffffffffffffffffffffffffffff16815260200190815260200160002060008282546103069190610859565b92505081905550505050565b60008061031d610499565b90508060000160009054906101000a900473ffffffffffffffffffffffffffffffffffffffff1691505090565b600080610355610499565b9050806002015491505090565b600061036c610499565b90508060000160009054906101000a900473ffffffffffffffffffffffffffffffffffffffff1673ffffffffffffffffffffffffffffffffffffffff163373ffffffffffffffffffffffffffffffffffffffff16146103ca57600080fd5b818160020160008282546103de919061088d565b92505081905550818160010160008573ffffffffffffffffffffffffffffffffffffffff1673ffffffffffffffffffffffffffffffffffffffff1681526020019081526020016000206000828254610436919061088d565b92505081905550505050565b60008061044d610499565b90508060010160008473ffffffffffffffffffffffffffffffffffffffff1673ffffffffffffffffffffffffffffffffffffffff16815260200190815260200160002054915050919050565b6000807f534276485ab019670afde26394d87b7e6a7f0dab7b16287011cc6ad8ed0d94f690508091505090565b6000806104d16105be565b905060008160040180549050036104ec5760009150506105b9565b60005b81600401805490508110156105b2576000826004018281548110610516576105156108e3565b5b90600052602060002001549050600083600601600083815260200190815260200160002060010160008773ffffffffffffffffffffffffffffffffffffffff1673ffffffffffffffffffffffffffffffffffffffff16815260200190815260200160002060009054906101000a900460ff169050801561059d5760019450505050506105b9565b505080806105aa90610912565b9150506104ef565b5060019150505b919050565b6000807fd5211e15e362f5251dbdeabddfd30aa19c1d7433b35372348d9978301f444fb690508091505090565b600080fd5b600073ffffffffffffffffffffffffffffffffffffffff82169050919050565b600061061b826105f0565b9050919050565b61062b81610610565b811461063657600080fd5b50565b60008135905061064881610622565b92915050565b6000819050919050565b6106618161064e565b811461066c57600080fd5b50565b60008135905061067e81610658565b92915050565b6000806040838503121561069b5761069a6105eb565b5b60006106a985828601610639565b92505060206106ba8582860161066f565b9150509250929050565b6106cd81610610565b82525050565b60006020820190506106e860008301846106c4565b92915050565b6106f78161064e565b82525050565b600060208201905061071260008301846106ee565b92915050565b60006020828403121561072e5761072d6105eb565b5b600061073c84828501610639565b91505092915050565b60008151905061075481610658565b92915050565b6000602082840312156107705761076f6105eb565b5b600061077e84828501610745565b91505092915050565b600082825260208201905092915050565b7f43616e6e6f7420756e7374616b6520756e74696c2070726f706f73616c20697360008201527f2061637469766500000000000000000000000000000000000000000000000000602082015250565b60006107f4602783610787565b91506107ff82610798565b604082019050919050565b60006020820190508181036000830152610823816107e7565b9050919050565b7f4e487b7100000000000000000000000000000000000000000000000000000000600052601160045260246000fd5b60006108648261064e565b915061086f8361064e565b9250828210156108825761088161082a565b5b828203905092915050565b60006108988261064e565b91506108a38361064e565b9250827fffffffffffffffffffffffffffffffffffffffffffffffffffffffffffffffff038211156108d8576108d761082a565b5b828201905092915050565b7f4e487b7100000000000000000000000000000000000000000000000000000000600052603260045260246000fd5b600061091d8261064e565b91507fffffffffffffffffffffffffffffffffffffffffffffffffffffffffffffffff820361094f5761094e61082a565b5b60018201905091905056fea2646970667358221220e8f96531fa96b20fc50ff9cbc50b176af09fabefcb27f37c00b605483d37337164736f6c634300080f0033",
  "linkReferences": {
    "contracts/libraries/LibVotingPower.sol": {
      "LibVotingPower": [
        {
          "length": 20,
          "start": 362
        }
      ]
    }
  },
  "deployedLinkReferences": {
    "contracts/libraries/LibVotingPower.sol": {
      "LibVotingPower": [
        {
          "length": 20,
          "start": 330
        }
      ]
    }
  }
}