{
  "_format": "hh-sol-artifact-1",
  "contractName": "VotingPowerFacet",
  "sourceName": "contracts/facets/VotingPowerFacet.sol",
  "abi": [
    {
      "inputs": [
        {
          "internalType": "address",
          "name": "voter",
          "type": "address"
        },
        {
          "internalType": "uint256",
          "name": "amount",
          "type": "uint256"
        }
      ],
      "name": "decreaseVotingPower",
      "outputs": [],
      "stateMutability": "nonpayable",
      "type": "function"
    },
    {
      "inputs": [],
      "name": "getMaxAmountOfVotingPower",
      "outputs": [
        {
          "internalType": "uint256",
          "name": "",
          "type": "uint256"
        }
      ],
      "stateMutability": "view",
      "type": "function"
    },
    {
      "inputs": [],
      "name": "getTotalAmountOfVotingPower",
      "outputs": [
        {
          "internalType": "uint256",
          "name": "",
          "type": "uint256"
        }
      ],
      "stateMutability": "view",
      "type": "function"
    },
    {
      "inputs": [
        {
          "internalType": "address",
          "name": "voter",
          "type": "address"
        }
      ],
      "name": "getVoterVotingPower",
      "outputs": [
        {
          "internalType": "uint256",
          "name": "",
          "type": "uint256"
        }
      ],
      "stateMutability": "view",
      "type": "function"
    },
    {
      "inputs": [],
      "name": "getVotingPowerManager",
      "outputs": [
        {
          "internalType": "address",
          "name": "",
          "type": "address"
        }
      ],
      "stateMutability": "view",
      "type": "function"
    },
    {
      "inputs": [
        {
          "internalType": "address",
          "name": "voter",
          "type": "address"
        },
        {
          "internalType": "uint256",
          "name": "amount",
          "type": "uint256"
        }
      ],
      "name": "increaseVotingPower",
      "outputs": [],
      "stateMutability": "nonpayable",
      "type": "function"
    }
  ],
  "bytecode": "0x608060405234801561001057600080fd5b506109a1806100206000396000f3fe608060405234801561001057600080fd5b50600436106100625760003560e01c80631c6d156c1461006757806321b69fd61461008357806383328890146100a15780638ac015be146100bf578063dc7d5d25146100dd578063e33435c4146100f9575b600080fd5b610081600480360381019061007c9190610694565b610129565b005b61008b610137565b60405161009891906106e3565b60405180910390f35b6100a9610146565b6040516100b6919061070d565b60405180910390f35b6100c76101c9565b6040516100d4919061070d565b60405180910390f35b6100f760048036038101906100f29190610694565b6101d8565b005b610113600480360381019061010e9190610728565b6101e6565b604051610120919061070d565b60405180910390f35b61013382826101f8565b5050565b6000610141610321565b905090565b600073__$ac80b70655973129101145d998fccce3e8$__63200cd9cc6040518163ffffffff1660e01b815260040160206040518083038186803b15801561018c57600080fd5b505af41580156101a0573d6000803e3d6000fd5b505050506040513d601f19601f820116820180604052508101906101c4919061076a565b905090565b60006101d3610359565b905090565b6101e28282610371565b5050565b60006101f182610451565b9050919050565b60006102026104a8565b90508060000160009054906101000a900473ffffffffffffffffffffffffffffffffffffffff1673ffffffffffffffffffffffffffffffffffffffff163373ffffffffffffffffffffffffffffffffffffffff161461026057600080fd5b610269836104d5565b156102a9576040517f08c379a00000000000000000000000000000000000000000000000000000000081526004016102a09061081a565b60405180910390fd5b818160020160008282546102bd9190610869565b92505081905550818160010160008573ffffffffffffffffffffffffffffffffffffffff1673ffffffffffffffffffffffffffffffffffffffff16815260200190815260200160002060008282546103159190610869565b92505081905550505050565b60008061032c6104a8565b90508060000160009054906101000a900473ffffffffffffffffffffffffffffffffffffffff1691505090565b6000806103646104a8565b9050806002015491505090565b600061037b6104a8565b90508060000160009054906101000a900473ffffffffffffffffffffffffffffffffffffffff1673ffffffffffffffffffffffffffffffffffffffff163373ffffffffffffffffffffffffffffffffffffffff16146103d957600080fd5b818160020160008282546103ed919061089d565b92505081905550818160010160008573ffffffffffffffffffffffffffffffffffffffff1673ffffffffffffffffffffffffffffffffffffffff1681526020019081526020016000206000828254610445919061089d565b92505081905550505050565b60008061045c6104a8565b90508060010160008473ffffffffffffffffffffffffffffffffffffffff1673ffffffffffffffffffffffffffffffffffffffff16815260200190815260200160002054915050919050565b6000807f534276485ab019670afde26394d87b7e6a7f0dab7b16287011cc6ad8ed0d94f690508091505090565b6000806104e06105ce565b90506000816004018054905014156104fc5760009150506105c9565b60005b81600401805490508110156105c2576000826004018281548110610526576105256108f3565b5b90600052602060002001549050600083600601600083815260200190815260200160002060010160008773ffffffffffffffffffffffffffffffffffffffff1673ffffffffffffffffffffffffffffffffffffffff16815260200190815260200160002060009054906101000a900460ff16905080156105ad5760019450505050506105c9565b505080806105ba90610922565b9150506104ff565b5060019150505b919050565b6000807fd5211e15e362f5251dbdeabddfd30aa19c1d7433b35372348d9978301f444fb690508091505090565b600080fd5b600073ffffffffffffffffffffffffffffffffffffffff82169050919050565b600061062b82610600565b9050919050565b61063b81610620565b811461064657600080fd5b50565b60008135905061065881610632565b92915050565b6000819050919050565b6106718161065e565b811461067c57600080fd5b50565b60008135905061068e81610668565b92915050565b600080604083850312156106ab576106aa6105fb565b5b60006106b985828601610649565b92505060206106ca8582860161067f565b9150509250929050565b6106dd81610620565b82525050565b60006020820190506106f860008301846106d4565b92915050565b6107078161065e565b82525050565b600060208201905061072260008301846106fe565b92915050565b60006020828403121561073e5761073d6105fb565b5b600061074c84828501610649565b91505092915050565b60008151905061076481610668565b92915050565b6000602082840312156107805761077f6105fb565b5b600061078e84828501610755565b91505092915050565b600082825260208201905092915050565b7f43616e6e6f7420756e7374616b6520756e74696c2070726f706f73616c20697360008201527f2061637469766500000000000000000000000000000000000000000000000000602082015250565b6000610804602783610797565b915061080f826107a8565b604082019050919050565b60006020820190508181036000830152610833816107f7565b9050919050565b7f4e487b7100000000000000000000000000000000000000000000000000000000600052601160045260246000fd5b60006108748261065e565b915061087f8361065e565b9250828210156108925761089161083a565b5b828203905092915050565b60006108a88261065e565b91506108b38361065e565b9250827fffffffffffffffffffffffffffffffffffffffffffffffffffffffffffffffff038211156108e8576108e761083a565b5b828201905092915050565b7f4e487b7100000000000000000000000000000000000000000000000000000000600052603260045260246000fd5b600061092d8261065e565b91507fffffffffffffffffffffffffffffffffffffffffffffffffffffffffffffffff8214156109605761095f61083a565b5b60018201905091905056fea264697066735822122033058ea30abd2e4425fd652ec091e2da35e89084fc168c51d256aaf2c257d82064736f6c63430008090033",
  "linkReferences": {
    "contracts/libraries/LibVotingPower.sol": {
      "LibVotingPower": [
        {
          "length": 20,
          "start": 362
        }
      ]
    }
  },
  "deployedLinkReferences": {
    "contracts/libraries/LibVotingPower.sol": {
      "LibVotingPower": [
        {
          "length": 20,
          "start": 330
        }
      ]
    }
  }
}