{
  "_format": "hh-sol-artifact-1",
  "contractName": "VotingPowerInitUniV2",
  "sourceName": "contracts/upgradeInitializers/VotingPowerInitUniV2.sol",
  "abi": [
    {
      "anonymous": false,
      "inputs": [
        {
          "indexed": true,
          "internalType": "address",
          "name": "votingPowerManager",
          "type": "address"
        },
        {
          "indexed": true,
          "internalType": "address",
          "name": "diamondAddress",
          "type": "address"
        }
      ],
      "name": "VotingPowerManagerCreated",
      "type": "event"
    },
    {
      "inputs": [
        {
          "internalType": "uint256",
          "name": "_maxAmountOfVotingPower",
          "type": "uint256"
        },
        {
          "internalType": "uint256",
          "name": "_stakeContrPrecision",
          "type": "uint256"
        },
        {
          "internalType": "address[]",
          "name": "_governanceTokens",
          "type": "address[]"
        },
        {
          "internalType": "uint256[]",
          "name": "_coefficients",
          "type": "uint256[]"
        }
      ],
      "name": "initVotingPowerERC20UniV2",
      "outputs": [],
      "stateMutability": "nonpayable",
      "type": "function"
    }
  ],
  "bytecode": "0x608060405234801561001057600080fd5b50612404806100206000396000f3fe60806040523480156200001157600080fd5b50600436106200002e5760003560e01c8063224b3b3f1462000033575b600080fd5b6200005160048036038101906200004b91906200048c565b62000053565b005b60006200005f62000152565b90508481600301819055506000308585856040516200007e906200017f565b6200008d9493929190620006fa565b604051809103906000f080158015620000aa573d6000803e3d6000fd5b509050808260000160006101000a81548173ffffffffffffffffffffffffffffffffffffffff021916908373ffffffffffffffffffffffffffffffffffffffff1602179055503073ffffffffffffffffffffffffffffffffffffffff168173ffffffffffffffffffffffffffffffffffffffff167fafc74640ac77e97b0fb80c360df6ad74c8e0772e8ef92594c5bc79bf4ef119a260405160405180910390a3505050505050565b6000807f534276485ab019670afde26394d87b7e6a7f0dab7b16287011cc6ad8ed0d94f690508091505090565b611c79806200075683390190565b6000604051905090565b600080fd5b600080fd5b6000819050919050565b620001b681620001a1565b8114620001c257600080fd5b50565b600081359050620001d681620001ab565b92915050565b600080fd5b6000601f19601f8301169050919050565b7f4e487b7100000000000000000000000000000000000000000000000000000000600052604160045260246000fd5b6200022c82620001e1565b810181811067ffffffffffffffff821117156200024e576200024d620001f2565b5b80604052505050565b6000620002636200018d565b905062000271828262000221565b919050565b600067ffffffffffffffff821115620002945762000293620001f2565b5b602082029050602081019050919050565b600080fd5b600073ffffffffffffffffffffffffffffffffffffffff82169050919050565b6000620002d782620002aa565b9050919050565b620002e981620002ca565b8114620002f557600080fd5b50565b6000813590506200030981620002de565b92915050565b600062000326620003208462000276565b62000257565b905080838252602082019050602084028301858111156200034c576200034b620002a5565b5b835b81811015620003795780620003648882620002f8565b8452602084019350506020810190506200034e565b5050509392505050565b600082601f8301126200039b576200039a620001dc565b5b8135620003ad8482602086016200030f565b91505092915050565b600067ffffffffffffffff821115620003d457620003d3620001f2565b5b602082029050602081019050919050565b6000620003fc620003f684620003b6565b62000257565b90508083825260208201905060208402830185811115620004225762000421620002a5565b5b835b818110156200044f57806200043a8882620001c5565b84526020840193505060208101905062000424565b5050509392505050565b600082601f830112620004715762000470620001dc565b5b813562000483848260208601620003e5565b91505092915050565b60008060008060808587031215620004a957620004a862000197565b5b6000620004b987828801620001c5565b9450506020620004cc87828801620001c5565b935050604085013567ffffffffffffffff811115620004f057620004ef6200019c565b5b620004fe8782880162000383565b925050606085013567ffffffffffffffff8111156200052257620005216200019c565b5b620005308782880162000459565b91505092959194509250565b6200054781620002ca565b82525050565b6200055881620001a1565b82525050565b600081519050919050565b600082825260208201905092915050565b6000819050602082019050919050565b6200059581620002ca565b82525050565b6000620005a983836200058a565b60208301905092915050565b6000602082019050919050565b6000620005cf826200055e565b620005db818562000569565b9350620005e8836200057a565b8060005b838110156200061f5781516200060388826200059b565b97506200061083620005b5565b925050600181019050620005ec565b5085935050505092915050565b600081519050919050565b600082825260208201905092915050565b6000819050602082019050919050565b6200066381620001a1565b82525050565b600062000677838362000658565b60208301905092915050565b6000602082019050919050565b60006200069d826200062c565b620006a9818562000637565b9350620006b68362000648565b8060005b83811015620006ed578151620006d1888262000669565b9750620006de8362000683565b925050600181019050620006ba565b5085935050505092915050565b60006080820190506200071160008301876200053c565b6200072060208301866200054d565b8181036040830152620007348185620005c2565b905081810360608301526200074a818462000690565b90509594505050505056fe60806040523480156200001157600080fd5b5060405162001c7938038062001c798339818101604052810190620000379190620004ab565b600073ffffffffffffffffffffffffffffffffffffffff168473ffffffffffffffffffffffffffffffffffffffff1614156200007257600080fd5b8051825114620000b9576040517f08c379a0000000000000000000000000000000000000000000000000000000008152600401620000b090620005bc565b60405180910390fd5b82600181905550836000806101000a81548173ffffffffffffffffffffffffffffffffffffffff021916908373ffffffffffffffffffffffffffffffffffffffff16021790555060005b8251811015620001a157818181518110620001235762000122620005de565b5b602002602001015160026000858481518110620001455762000144620005de565b5b602002602001015173ffffffffffffffffffffffffffffffffffffffff1673ffffffffffffffffffffffffffffffffffffffff16815260200190815260200160002081905550808062000198906200063c565b91505062000103565b50505050506200068a565b6000604051905090565b600080fd5b600080fd5b600073ffffffffffffffffffffffffffffffffffffffff82169050919050565b6000620001ed82620001c0565b9050919050565b620001ff81620001e0565b81146200020b57600080fd5b50565b6000815190506200021f81620001f4565b92915050565b6000819050919050565b6200023a8162000225565b81146200024657600080fd5b50565b6000815190506200025a816200022f565b92915050565b600080fd5b6000601f19601f8301169050919050565b7f4e487b7100000000000000000000000000000000000000000000000000000000600052604160045260246000fd5b620002b08262000265565b810181811067ffffffffffffffff82111715620002d257620002d162000276565b5b80604052505050565b6000620002e7620001ac565b9050620002f58282620002a5565b919050565b600067ffffffffffffffff82111562000318576200031762000276565b5b602082029050602081019050919050565b600080fd5b6000620003456200033f84620002fa565b620002db565b905080838252602082019050602084028301858111156200036b576200036a62000329565b5b835b818110156200039857806200038388826200020e565b8452602084019350506020810190506200036d565b5050509392505050565b600082601f830112620003ba57620003b962000260565b5b8151620003cc8482602086016200032e565b91505092915050565b600067ffffffffffffffff821115620003f357620003f262000276565b5b602082029050602081019050919050565b60006200041b6200041584620003d5565b620002db565b9050808382526020820190506020840283018581111562000441576200044062000329565b5b835b818110156200046e578062000459888262000249565b84526020840193505060208101905062000443565b5050509392505050565b600082601f83011262000490576200048f62000260565b5b8151620004a284826020860162000404565b91505092915050565b60008060008060808587031215620004c857620004c7620001b6565b5b6000620004d8878288016200020e565b9450506020620004eb8782880162000249565b935050604085015167ffffffffffffffff8111156200050f576200050e620001bb565b5b6200051d87828801620003a2565b925050606085015167ffffffffffffffff811115620005415762000540620001bb565b5b6200054f8782880162000478565b91505092959194509250565b600082825260208201905092915050565b7f446966666572656e7420617272617973206c656e677468000000000000000000600082015250565b6000620005a46017836200055b565b9150620005b1826200056c565b602082019050919050565b60006020820190508181036000830152620005d78162000595565b9050919050565b7f4e487b7100000000000000000000000000000000000000000000000000000000600052603260045260246000fd5b7f4e487b7100000000000000000000000000000000000000000000000000000000600052601160045260246000fd5b6000620006498262000225565b91507fffffffffffffffffffffffffffffffffffffffffffffffffffffffffffffffff8214156200067f576200067e6200060d565b5b600182019050919050565b6115df806200069a6000396000f3fe608060405234801561001057600080fd5b50600436106100575760003560e01c80630b15040d1461005c578063adc9772e14610078578063c2a672e014610094578063c5779d98146100b0578063eef48dde146100e0575b600080fd5b61007660048036038101906100719190610dc6565b6100fc565b005b610092600480360381019061008d9190610e3e565b6101a2565b005b6100ae60048036038101906100a99190610e3e565b6103d8565b005b6100ca60048036038101906100c59190610e7e565b610649565b6040516100d79190610ecd565b60405180910390f35b6100fa60048036038101906100f59190610dc6565b6106d0565b005b8051825114610140576040517f08c379a000000000000000000000000000000000000000000000000000000000815260040161013790610f45565b60405180910390fd5b60005b825181101561019d5761018a83828151811061016257610161610f65565b5b602002602001015183838151811061017d5761017c610f65565b5b60200260200101516103d8565b808061019590610fc3565b915050610143565b505050565b6000600260008473ffffffffffffffffffffffffffffffffffffffff1673ffffffffffffffffffffffffffffffffffffffff1681526020019081526020016000205411610224576040517f08c379a000000000000000000000000000000000000000000000000000000000815260040161021b9061107e565b60405180910390fd5b6102513330838573ffffffffffffffffffffffffffffffffffffffff16610776909392919063ffffffff16565b80600360003373ffffffffffffffffffffffffffffffffffffffff1673ffffffffffffffffffffffffffffffffffffffff16815260200190815260200160002060008473ffffffffffffffffffffffffffffffffffffffff1673ffffffffffffffffffffffffffffffffffffffff16815260200190815260200160002060008282546102dd919061109e565b925050819055506000600260008473ffffffffffffffffffffffffffffffffffffffff1673ffffffffffffffffffffffffffffffffffffffff1681526020019081526020016000205490506000600154828461033991906110f4565b610343919061117d565b905060008054906101000a900473ffffffffffffffffffffffffffffffffffffffff1673ffffffffffffffffffffffffffffffffffffffff1663dc7d5d2533836040518363ffffffff1660e01b81526004016103a09291906111bd565b600060405180830381600087803b1580156103ba57600080fd5b505af11580156103ce573d6000803e3d6000fd5b5050505050505050565b80600360003373ffffffffffffffffffffffffffffffffffffffff1673ffffffffffffffffffffffffffffffffffffffff16815260200190815260200160002060008473ffffffffffffffffffffffffffffffffffffffff1673ffffffffffffffffffffffffffffffffffffffff168152602001908152602001600020541015610497576040517f08c379a000000000000000000000000000000000000000000000000000000000815260040161048e90611232565b60405180910390fd5b6000600260008473ffffffffffffffffffffffffffffffffffffffff1673ffffffffffffffffffffffffffffffffffffffff168152602001908152602001600020549050600060015482846104ec91906110f4565b6104f6919061117d565b905060008054906101000a900473ffffffffffffffffffffffffffffffffffffffff1673ffffffffffffffffffffffffffffffffffffffff16631c6d156c33836040518363ffffffff1660e01b81526004016105539291906111bd565b600060405180830381600087803b15801561056d57600080fd5b505af1158015610581573d6000803e3d6000fd5b5050505082600360003373ffffffffffffffffffffffffffffffffffffffff1673ffffffffffffffffffffffffffffffffffffffff16815260200190815260200160002060008673ffffffffffffffffffffffffffffffffffffffff1673ffffffffffffffffffffffffffffffffffffffff16815260200190815260200160002060008282546106119190611252565b9250508190555061064333848673ffffffffffffffffffffffffffffffffffffffff166107ff9092919063ffffffff16565b50505050565b6000600360008473ffffffffffffffffffffffffffffffffffffffff1673ffffffffffffffffffffffffffffffffffffffff16815260200190815260200160002060008373ffffffffffffffffffffffffffffffffffffffff1673ffffffffffffffffffffffffffffffffffffffff16815260200190815260200160002054905092915050565b8051825114610714576040517f08c379a000000000000000000000000000000000000000000000000000000000815260040161070b90610f45565b60405180910390fd5b60005b82518110156107715761075e83828151811061073657610735610f65565b5b602002602001015183838151811061075157610750610f65565b5b60200260200101516101a2565b808061076990610fc3565b915050610717565b505050565b6107f9846323b872dd60e01b85858560405160240161079793929190611286565b604051602081830303815290604052907bffffffffffffffffffffffffffffffffffffffffffffffffffffffff19166020820180517bffffffffffffffffffffffffffffffffffffffffffffffffffffffff8381831617835250505050610885565b50505050565b6108808363a9059cbb60e01b848460405160240161081e9291906111bd565b604051602081830303815290604052907bffffffffffffffffffffffffffffffffffffffffffffffffffffffff19166020820180517bffffffffffffffffffffffffffffffffffffffffffffffffffffffff8381831617835250505050610885565b505050565b60006108e7826040518060400160405280602081526020017f5361666545524332303a206c6f772d6c6576656c2063616c6c206661696c65648152508573ffffffffffffffffffffffffffffffffffffffff1661094c9092919063ffffffff16565b9050600081511115610947578080602001905181019061090791906112f5565b610946576040517f08c379a000000000000000000000000000000000000000000000000000000000815260040161093d90611394565b60405180910390fd5b5b505050565b606061095b8484600085610964565b90509392505050565b6060824710156109a9576040517f08c379a00000000000000000000000000000000000000000000000000000000081526004016109a090611426565b60405180910390fd5b6109b285610a78565b6109f1576040517f08c379a00000000000000000000000000000000000000000000000000000000081526004016109e890611492565b60405180910390fd5b6000808673ffffffffffffffffffffffffffffffffffffffff168587604051610a1a919061152c565b60006040518083038185875af1925050503d8060008114610a57576040519150601f19603f3d011682016040523d82523d6000602084013e610a5c565b606091505b5091509150610a6c828286610a9b565b92505050949350505050565b6000808273ffffffffffffffffffffffffffffffffffffffff163b119050919050565b60608315610aab57829050610afb565b600083511115610abe5782518084602001fd5b816040517f08c379a0000000000000000000000000000000000000000000000000000000008152600401610af29190611587565b60405180910390fd5b9392505050565b6000604051905090565b600080fd5b600080fd5b600080fd5b6000601f19601f8301169050919050565b7f4e487b7100000000000000000000000000000000000000000000000000000000600052604160045260246000fd5b610b6482610b1b565b810181811067ffffffffffffffff82111715610b8357610b82610b2c565b5b80604052505050565b6000610b96610b02565b9050610ba28282610b5b565b919050565b600067ffffffffffffffff821115610bc257610bc1610b2c565b5b602082029050602081019050919050565b600080fd5b600073ffffffffffffffffffffffffffffffffffffffff82169050919050565b6000610c0382610bd8565b9050919050565b610c1381610bf8565b8114610c1e57600080fd5b50565b600081359050610c3081610c0a565b92915050565b6000610c49610c4484610ba7565b610b8c565b90508083825260208201905060208402830185811115610c6c57610c6b610bd3565b5b835b81811015610c955780610c818882610c21565b845260208401935050602081019050610c6e565b5050509392505050565b600082601f830112610cb457610cb3610b16565b5b8135610cc4848260208601610c36565b91505092915050565b600067ffffffffffffffff821115610ce857610ce7610b2c565b5b602082029050602081019050919050565b6000819050919050565b610d0c81610cf9565b8114610d1757600080fd5b50565b600081359050610d2981610d03565b92915050565b6000610d42610d3d84610ccd565b610b8c565b90508083825260208201905060208402830185811115610d6557610d64610bd3565b5b835b81811015610d8e5780610d7a8882610d1a565b845260208401935050602081019050610d67565b5050509392505050565b600082601f830112610dad57610dac610b16565b5b8135610dbd848260208601610d2f565b91505092915050565b60008060408385031215610ddd57610ddc610b0c565b5b600083013567ffffffffffffffff811115610dfb57610dfa610b11565b5b610e0785828601610c9f565b925050602083013567ffffffffffffffff811115610e2857610e27610b11565b5b610e3485828601610d98565b9150509250929050565b60008060408385031215610e5557610e54610b0c565b5b6000610e6385828601610c21565b9250506020610e7485828601610d1a565b9150509250929050565b60008060408385031215610e9557610e94610b0c565b5b6000610ea385828601610c21565b9250506020610eb485828601610c21565b9150509250929050565b610ec781610cf9565b82525050565b6000602082019050610ee26000830184610ebe565b92915050565b600082825260208201905092915050565b7f446966666572656e74206172726179206c656e67746800000000000000000000600082015250565b6000610f2f601683610ee8565b9150610f3a82610ef9565b602082019050919050565b60006020820190508181036000830152610f5e81610f22565b9050919050565b7f4e487b7100000000000000000000000000000000000000000000000000000000600052603260045260246000fd5b7f4e487b7100000000000000000000000000000000000000000000000000000000600052601160045260246000fd5b6000610fce82610cf9565b91507fffffffffffffffffffffffffffffffffffffffffffffffffffffffffffffffff82141561100157611000610f94565b5b600182019050919050565b7f546f6b656e206973206e6f74206163636570746564206173206120676f76657260008201527f6e616e6365206f6e652e00000000000000000000000000000000000000000000602082015250565b6000611068602a83610ee8565b91506110738261100c565b604082019050919050565b600060208201905081810360008301526110978161105b565b9050919050565b60006110a982610cf9565b91506110b483610cf9565b9250827fffffffffffffffffffffffffffffffffffffffffffffffffffffffffffffffff038211156110e9576110e8610f94565b5b828201905092915050565b60006110ff82610cf9565b915061110a83610cf9565b9250817fffffffffffffffffffffffffffffffffffffffffffffffffffffffffffffffff048311821515161561114357611142610f94565b5b828202905092915050565b7f4e487b7100000000000000000000000000000000000000000000000000000000600052601260045260246000fd5b600061118882610cf9565b915061119383610cf9565b9250826111a3576111a261114e565b5b828204905092915050565b6111b781610bf8565b82525050565b60006040820190506111d260008301856111ae565b6111df6020830184610ebe565b9392505050565b7f547279696e6720746f20756e7374616b65206d6f7265207468616e2068617665600082015250565b600061121c602083610ee8565b9150611227826111e6565b602082019050919050565b6000602082019050818103600083015261124b8161120f565b9050919050565b600061125d82610cf9565b915061126883610cf9565b92508282101561127b5761127a610f94565b5b828203905092915050565b600060608201905061129b60008301866111ae565b6112a860208301856111ae565b6112b56040830184610ebe565b949350505050565b60008115159050919050565b6112d2816112bd565b81146112dd57600080fd5b50565b6000815190506112ef816112c9565b92915050565b60006020828403121561130b5761130a610b0c565b5b6000611319848285016112e0565b91505092915050565b7f5361666545524332303a204552433230206f7065726174696f6e20646964206e60008201527f6f74207375636365656400000000000000000000000000000000000000000000602082015250565b600061137e602a83610ee8565b915061138982611322565b604082019050919050565b600060208201905081810360008301526113ad81611371565b9050919050565b7f416464726573733a20696e73756666696369656e742062616c616e636520666f60008201527f722063616c6c0000000000000000000000000000000000000000000000000000602082015250565b6000611410602683610ee8565b915061141b826113b4565b604082019050919050565b6000602082019050818103600083015261143f81611403565b9050919050565b7f416464726573733a2063616c6c20746f206e6f6e2d636f6e7472616374000000600082015250565b600061147c601d83610ee8565b915061148782611446565b602082019050919050565b600060208201905081810360008301526114ab8161146f565b9050919050565b600081519050919050565b600081905092915050565b60005b838110156114e65780820151818401526020810190506114cb565b838111156114f5576000848401525b50505050565b6000611506826114b2565b61151081856114bd565b93506115208185602086016114c8565b80840191505092915050565b600061153882846114fb565b915081905092915050565b600081519050919050565b600061155982611543565b6115638185610ee8565b93506115738185602086016114c8565b61157c81610b1b565b840191505092915050565b600060208201905081810360008301526115a1818461154e565b90509291505056fea26469706673582212205003eb8d28d1e2ca134528c20911d55a1b9116b684b8ef06e91db8c9c4a2a32f64736f6c63430008090033a264697066735822122051a79ec61a9cfad31062b8b4d8c35c7a8ef962a78603c10618d350b76546736064736f6c63430008090033",
  "linkReferences": {},
  "deployedLinkReferences": {}
}