{
  "_format": "hh-sol-artifact-1",
  "contractName": "VotingPowerInitUniV3",
  "sourceName": "contracts/upgradeInitializers/VotingPowerInitUniV3.sol",
  "abi": [
    {
      "anonymous": false,
      "inputs": [
        {
          "indexed": true,
          "internalType": "address",
          "name": "votingPowerManager",
          "type": "address"
        },
        {
          "indexed": true,
          "internalType": "address",
          "name": "diamondAddress",
          "type": "address"
        }
      ],
      "name": "VotingPowerManagerCreated",
      "type": "event"
    },
    {
      "inputs": [
        {
          "internalType": "uint256",
          "name": "_maxAmountOfVotingPower",
          "type": "uint256"
        },
        {
          "internalType": "address",
          "name": "_nfPositionManager",
          "type": "address"
        },
        {
          "internalType": "address",
          "name": "_governanceToken",
          "type": "address"
        },
        {
          "internalType": "address[]",
          "name": "_legalPairTokens",
          "type": "address[]"
        }
      ],
      "name": "initVotingPowerERC20UniV3",
      "outputs": [],
      "stateMutability": "nonpayable",
      "type": "function"
    }
  ],
  "bytecode": "0x608060405234801561001057600080fd5b50614775806100206000396000f3fe60806040523480156200001157600080fd5b50600436106200002e5760003560e01c806372597d2e1462000033575b600080fd5b6200005160048036038101906200004b9190620003b6565b62000053565b005b60006200005f62000152565b90508481600301819055506000308585856040516200007e906200017f565b6200008d949392919062000526565b604051809103906000f080158015620000aa573d6000803e3d6000fd5b509050808260000160006101000a81548173ffffffffffffffffffffffffffffffffffffffff021916908373ffffffffffffffffffffffffffffffffffffffff1602179055503073ffffffffffffffffffffffffffffffffffffffff168173ffffffffffffffffffffffffffffffffffffffff167fafc74640ac77e97b0fb80c360df6ad74c8e0772e8ef92594c5bc79bf4ef119a260405160405180910390a3505050505050565b6000807f534276485ab019670afde26394d87b7e6a7f0dab7b16287011cc6ad8ed0d94f690508091505090565b6141c5806200057b83390190565b6000604051905090565b600080fd5b600080fd5b6000819050919050565b620001b681620001a1565b8114620001c257600080fd5b50565b600081359050620001d681620001ab565b92915050565b600073ffffffffffffffffffffffffffffffffffffffff82169050919050565b60006200020982620001dc565b9050919050565b6200021b81620001fc565b81146200022757600080fd5b50565b6000813590506200023b8162000210565b92915050565b600080fd5b6000601f19601f8301169050919050565b7f4e487b7100000000000000000000000000000000000000000000000000000000600052604160045260246000fd5b620002918262000246565b810181811067ffffffffffffffff82111715620002b357620002b262000257565b5b80604052505050565b6000620002c86200018d565b9050620002d6828262000286565b919050565b600067ffffffffffffffff821115620002f957620002f862000257565b5b602082029050602081019050919050565b600080fd5b6000620003266200032084620002db565b620002bc565b905080838252602082019050602084028301858111156200034c576200034b6200030a565b5b835b818110156200037957806200036488826200022a565b8452602084019350506020810190506200034e565b5050509392505050565b600082601f8301126200039b576200039a62000241565b5b8135620003ad8482602086016200030f565b91505092915050565b60008060008060808587031215620003d357620003d262000197565b5b6000620003e387828801620001c5565b9450506020620003f6878288016200022a565b935050604062000409878288016200022a565b925050606085013567ffffffffffffffff8111156200042d576200042c6200019c565b5b6200043b8782880162000383565b91505092959194509250565b6200045281620001fc565b82525050565b600081519050919050565b600082825260208201905092915050565b6000819050602082019050919050565b6200048f81620001fc565b82525050565b6000620004a3838362000484565b60208301905092915050565b6000602082019050919050565b6000620004c98262000458565b620004d5818562000463565b9350620004e28362000474565b8060005b8381101562000519578151620004fd888262000495565b97506200050a83620004af565b925050600181019050620004e6565b5085935050505092915050565b60006080820190506200053d600083018762000447565b6200054c602083018662000447565b6200055b604083018562000447565b81810360608301526200056f8184620004bc565b90509594505050505056fe60806040523480156200001157600080fd5b50604051620041c5380380620041c58339818101604052810190620000379190620005d8565b600073ffffffffffffffffffffffffffffffffffffffff168473ffffffffffffffffffffffffffffffffffffffff1614156200007257600080fd5b600073ffffffffffffffffffffffffffffffffffffffff168373ffffffffffffffffffffffffffffffffffffffff161415620000ad57600080fd5b836000806101000a81548173ffffffffffffffffffffffffffffffffffffffff021916908373ffffffffffffffffffffffffffffffffffffffff16021790555082600160006101000a81548173ffffffffffffffffffffffffffffffffffffffff021916908373ffffffffffffffffffffffffffffffffffffffff160217905550600160009054906101000a900473ffffffffffffffffffffffffffffffffffffffff1673ffffffffffffffffffffffffffffffffffffffff1663c45a01556040518163ffffffff1660e01b8152600401602060405180830381600087803b1580156200019957600080fd5b505af1158015620001ae573d6000803e3d6000fd5b505050506040513d601f19601f82011682018060405250810190620001d4919062000669565b600260006101000a81548173ffffffffffffffffffffffffffffffffffffffff021916908373ffffffffffffffffffffffffffffffffffffffff16021790555081600360006101000a81548173ffffffffffffffffffffffffffffffffffffffff021916908373ffffffffffffffffffffffffffffffffffffffff1602179055506000815190506000811180156200026c5750600a81105b620002ae576040517f08c379a0000000000000000000000000000000000000000000000000000000008152600401620002a59062000722565b60405180910390fd5b60005b818110156200030957620002f2838281518110620002d457620002d362000744565b5b602002602001015160046200031560201b6200143b1790919060201c565b5080806200030090620007ac565b915050620002b1565b505050505050620007fa565b600062000345836000018373ffffffffffffffffffffffffffffffffffffffff1660001b6200034d60201b60201c565b905092915050565b6000620003618383620003c760201b60201c565b620003bc578260000182908060018154018082558091505060019003906000526020600020016000909190919091505582600001805490508360010160008481526020019081526020016000208190555060019050620003c1565b600090505b92915050565b600080836001016000848152602001908152602001600020541415905092915050565b6000604051905090565b600080fd5b600080fd5b600073ffffffffffffffffffffffffffffffffffffffff82169050919050565b60006200042b82620003fe565b9050919050565b6200043d816200041e565b81146200044957600080fd5b50565b6000815190506200045d8162000432565b92915050565b600080fd5b6000601f19601f8301169050919050565b7f4e487b7100000000000000000000000000000000000000000000000000000000600052604160045260246000fd5b620004b38262000468565b810181811067ffffffffffffffff82111715620004d557620004d462000479565b5b80604052505050565b6000620004ea620003ea565b9050620004f88282620004a8565b919050565b600067ffffffffffffffff8211156200051b576200051a62000479565b5b602082029050602081019050919050565b600080fd5b6000620005486200054284620004fd565b620004de565b905080838252602082019050602084028301858111156200056e576200056d6200052c565b5b835b818110156200059b57806200058688826200044c565b84526020840193505060208101905062000570565b5050509392505050565b600082601f830112620005bd57620005bc62000463565b5b8151620005cf84826020860162000531565b91505092915050565b60008060008060808587031215620005f557620005f4620003f4565b5b600062000605878288016200044c565b945050602062000618878288016200044c565b93505060406200062b878288016200044c565b925050606085015167ffffffffffffffff8111156200064f576200064e620003f9565b5b6200065d87828801620005a5565b91505092959194509250565b600060208284031215620006825762000681620003f4565b5b600062000692848285016200044c565b91505092915050565b600082825260208201905092915050565b7f4e6f207061697220746f6b656e2069732073657420666f7220706f6f6c206f7260008201527f206d6f7265207468616e20392e00000000000000000000000000000000000000602082015250565b60006200070a602d836200069b565b91506200071782620006ac565b604082019050919050565b600060208201905081810360008301526200073d81620006fb565b9050919050565b7f4e487b7100000000000000000000000000000000000000000000000000000000600052603260045260246000fd5b7f4e487b7100000000000000000000000000000000000000000000000000000000600052601160045260246000fd5b6000819050919050565b6000620007b982620007a2565b91507fffffffffffffffffffffffffffffffffffffffffffffffffffffffffffffffff821415620007ef57620007ee62000773565b5b600182019050919050565b6139bb806200080a6000396000f3fe608060405234801561001057600080fd5b50600436106100f55760003560e01c806373cb5dd211610097578063ddcce7ee11610066578063ddcce7ee14610292578063e9b73767146102ae578063ed6e8694146102de578063feba2969146102fa576100f5565b806373cb5dd2146101fa5780637841c5af14610216578063b365192614610232578063d800f84f14610262576100f5565b8063240e3b3c116100d3578063240e3b3c14610162578063507666241461019257806355fe7f2b146101c257806369f31ba2146101de576100f5565b806308857016146100fa57806314f0b33514610116578063150b7a0214610132575b600080fd5b610114600480360381019061010f9190612437565b610316565b005b610130600480360381019061012b9190612437565b610351565b005b61014c60048036038101906101479190612527565b610c0e565b60405161015991906125ea565b60405180910390f35b61017c60048036038101906101779190612437565b610c23565b6040516101899190612614565b60405180910390f35b6101ac60048036038101906101a7919061262f565b610c40565b6040516101b9919061268a565b60405180910390f35b6101dc60048036038101906101d79190612437565b610c9b565b005b6101f860048036038101906101f39190612437565b610cd6565b005b610214600480360381019061020f9190612437565b610d11565b005b610230600480360381019061022b9190612437565b610ec6565b005b61024c6004803603810190610247919061262f565b6110fb565b6040516102599190612614565b60405180910390f35b61027c600480360381019061027791906126a5565b611156565b6040516102899190612614565b60405180910390f35b6102ac60048036038101906102a79190612437565b61119f565b005b6102c860048036038101906102c391906126a5565b6112d4565b6040516102d59190612614565b60405180910390f35b6102f860048036038101906102f39190612821565b611393565b005b610314600480360381019061030f9190612821565b6113e7565b005b6040517f08c379a0000000000000000000000000000000000000000000000000000000008152600401610348906128c7565b60405180910390fd5b3373ffffffffffffffffffffffffffffffffffffffff16600160009054906101000a900473ffffffffffffffffffffffffffffffffffffffff1673ffffffffffffffffffffffffffffffffffffffff16636352211e836040518263ffffffff1660e01b81526004016103c39190612614565b60206040518083038186803b1580156103db57600080fd5b505afa1580156103ef573d6000803e3d6000fd5b505050506040513d601f19601f8201168201806040525081019061041391906128fc565b73ffffffffffffffffffffffffffffffffffffffff1614610469576040517f08c379a000000000000000000000000000000000000000000000000000000000815260040161046090612975565b60405180910390fd5b600080600160009054906101000a900473ffffffffffffffffffffffffffffffffffffffff1673ffffffffffffffffffffffffffffffffffffffff166399fbab88846040516024016104bb9190612614565b6040516020818303038152906040529060e01b6020820180517bffffffffffffffffffffffffffffffffffffffffffffffffffffffff83818316178352505050506040516105099190612a0f565b6000604051808303816000865af19150503d8060008114610546576040519150601f19603f3d011682016040523d82523d6000602084013e61054b565b606091505b50915091508161055a57600080fd5b60006105658261146b565b90503073ffffffffffffffffffffffffffffffffffffffff16816000015173ffffffffffffffffffffffffffffffffffffffff16146105d9576040517f08c379a00000000000000000000000000000000000000000000000000000000081526004016105d090612a72565b60405180910390fd5b600360009054906101000a900473ffffffffffffffffffffffffffffffffffffffff1673ffffffffffffffffffffffffffffffffffffffff16816020015173ffffffffffffffffffffffffffffffffffffffff16148061068a5750600360009054906101000a900473ffffffffffffffffffffffffffffffffffffffff1673ffffffffffffffffffffffffffffffffffffffff16816040015173ffffffffffffffffffffffffffffffffffffffff16145b6106c9576040517f08c379a00000000000000000000000000000000000000000000000000000000081526004016106c090612b04565b60405180910390fd5b6000600360009054906101000a900473ffffffffffffffffffffffffffffffffffffffff1673ffffffffffffffffffffffffffffffffffffffff16826020015173ffffffffffffffffffffffffffffffffffffffff161461072e578160200151610734565b81604001515b905061074a81600461154190919063ffffffff16565b610789576040517f08c379a000000000000000000000000000000000000000000000000000000000815260040161078090612b96565b60405180910390fd5b60006107c5600260009054906101000a900473ffffffffffffffffffffffffffffffffffffffff16846020015185604001518660a00151611571565b905060008173ffffffffffffffffffffffffffffffffffffffff16633850c7bd6040518163ffffffff1660e01b815260040160e060405180830381600087803b15801561081157600080fd5b505af1158015610825573d6000803e3d6000fd5b505050506040513d601f19601f820116820180604052508101906108499190612d73565b9050600061085a8560600151611630565b9050600061086b8660800151611630565b90506000866060015160020b846020015160020b121561093557600360009054906101000a900473ffffffffffffffffffffffffffffffffffffffff1673ffffffffffffffffffffffffffffffffffffffff16876020015173ffffffffffffffffffffffffffffffffffffffff1614156108f5576108ee83838960c00151611afc565b9050610930565b6040517f08c379a000000000000000000000000000000000000000000000000000000000815260040161092790612e12565b60405180910390fd5b610a7a565b866080015160020b846020015160020b12156109d257600360009054906101000a900473ffffffffffffffffffffffffffffffffffffffff1673ffffffffffffffffffffffffffffffffffffffff16876020015173ffffffffffffffffffffffffffffffffffffffff1614156109bb576109b483838960c00151611afc565b90506109cd565b6109ca83838960c00151611bc2565b90505b610a79565b600360009054906101000a900473ffffffffffffffffffffffffffffffffffffffff1673ffffffffffffffffffffffffffffffffffffffff16876020015173ffffffffffffffffffffffffffffffffffffffff161415610a67576040517f08c379a0000000000000000000000000000000000000000000000000000000008152600401610a5e90612e12565b60405180910390fd5b610a7683838960c00151611bc2565b90505b5b600160009054906101000a900473ffffffffffffffffffffffffffffffffffffffff1673ffffffffffffffffffffffffffffffffffffffff166342842e0e33308d6040518463ffffffff1660e01b8152600401610ad993929190612e41565b600060405180830381600087803b158015610af357600080fd5b505af1158015610b07573d6000803e3d6000fd5b50505050610b5c8a600760003373ffffffffffffffffffffffffffffffffffffffff1673ffffffffffffffffffffffffffffffffffffffff168152602001908152602001600020611c5790919063ffffffff16565b5080600860008c81526020019081526020016000208190555060008054906101000a900473ffffffffffffffffffffffffffffffffffffffff1673ffffffffffffffffffffffffffffffffffffffff1663dc7d5d2533836040518363ffffffff1660e01b8152600401610bd0929190612e78565b600060405180830381600087803b158015610bea57600080fd5b505af1158015610bfe573d6000803e3d6000fd5b5050505050505050505050505050565b600063150b7a0260e01b905095945050505050565b600060086000838152602001908152602001600020549050919050565b6000610c9382600760008673ffffffffffffffffffffffffffffffffffffffff1673ffffffffffffffffffffffffffffffffffffffff168152602001908152602001600020611c7190919063ffffffff16565b905092915050565b6040517f08c379a0000000000000000000000000000000000000000000000000000000008152600401610ccd906128c7565b60405180910390fd5b6040517f08c379a0000000000000000000000000000000000000000000000000000000008152600401610d08906128c7565b60405180910390fd5b80600660003373ffffffffffffffffffffffffffffffffffffffff1673ffffffffffffffffffffffffffffffffffffffff168152602001908152602001600020541015610d93576040517f08c379a0000000000000000000000000000000000000000000000000000000008152600401610d8a90612f13565b60405180910390fd5b80600660003373ffffffffffffffffffffffffffffffffffffffff1673ffffffffffffffffffffffffffffffffffffffff1681526020019081526020016000206000828254610de29190612f62565b9250508190555060008054906101000a900473ffffffffffffffffffffffffffffffffffffffff1673ffffffffffffffffffffffffffffffffffffffff16631c6d156c33836040518363ffffffff1660e01b8152600401610e44929190612e78565b600060405180830381600087803b158015610e5e57600080fd5b505af1158015610e72573d6000803e3d6000fd5b50505050610ec33382600360009054906101000a900473ffffffffffffffffffffffffffffffffffffffff1673ffffffffffffffffffffffffffffffffffffffff16611c8b9092919063ffffffff16565b50565b610f1781600760003373ffffffffffffffffffffffffffffffffffffffff1673ffffffffffffffffffffffffffffffffffffffff168152602001908152602001600020611c7190919063ffffffff16565b610f56576040517f08c379a0000000000000000000000000000000000000000000000000000000008152600401610f4d90613008565b60405180910390fd5b610fa781600760003373ffffffffffffffffffffffffffffffffffffffff1673ffffffffffffffffffffffffffffffffffffffff168152602001908152602001600020611d1190919063ffffffff16565b5060006008600083815260200190815260200160002054905060008054906101000a900473ffffffffffffffffffffffffffffffffffffffff1673ffffffffffffffffffffffffffffffffffffffff16631c6d156c33836040518363ffffffff1660e01b815260040161101b929190612e78565b600060405180830381600087803b15801561103557600080fd5b505af1158015611049573d6000803e3d6000fd5b5050505060006008600084815260200190815260200160002081905550600160009054906101000a900473ffffffffffffffffffffffffffffffffffffffff1673ffffffffffffffffffffffffffffffffffffffff166342842e0e3033856040518463ffffffff1660e01b81526004016110c593929190612e41565b600060405180830381600087803b1580156110df57600080fd5b505af11580156110f3573d6000803e3d6000fd5b505050505050565b600061114e82600760008673ffffffffffffffffffffffffffffffffffffffff1673ffffffffffffffffffffffffffffffffffffffff168152602001908152602001600020611d2b90919063ffffffff16565b905092915050565b6000600660008373ffffffffffffffffffffffffffffffffffffffff1673ffffffffffffffffffffffffffffffffffffffff168152602001908152602001600020549050919050565b6111ee333083600360009054906101000a900473ffffffffffffffffffffffffffffffffffffffff1673ffffffffffffffffffffffffffffffffffffffff16611d45909392919063ffffffff16565b80600660003373ffffffffffffffffffffffffffffffffffffffff1673ffffffffffffffffffffffffffffffffffffffff168152602001908152602001600020600082825461123d9190613028565b9250508190555060008054906101000a900473ffffffffffffffffffffffffffffffffffffffff1673ffffffffffffffffffffffffffffffffffffffff1663dc7d5d2533836040518363ffffffff1660e01b815260040161129f929190612e78565b600060405180830381600087803b1580156112b957600080fd5b505af11580156112cd573d6000803e3d6000fd5b5050505050565b60008073ffffffffffffffffffffffffffffffffffffffff168273ffffffffffffffffffffffffffffffffffffffff161415611345576040517f08c379a000000000000000000000000000000000000000000000000000000000815260040161133c906130f0565b60405180910390fd5b61138c600760008473ffffffffffffffffffffffffffffffffffffffff1673ffffffffffffffffffffffffffffffffffffffff168152602001908152602001600020611dce565b9050919050565b60648151106113a157600080fd5b60005b81518110156113e3576113d08282815181106113c3576113c2613110565b5b6020026020010151610351565b80806113db9061313f565b9150506113a4565b5050565b60648151106113f557600080fd5b60005b81518110156114375761142482828151811061141757611416613110565b5b6020026020010151610ec6565b808061142f9061313f565b9150506113f8565b5050565b6000611463836000018373ffffffffffffffffffffffffffffffffffffffff1660001b611de3565b905092915050565b611473612351565b6000828060200190518101906114899190613386565b90506040518060e00160405280826020015173ffffffffffffffffffffffffffffffffffffffff168152602001826040015173ffffffffffffffffffffffffffffffffffffffff168152602001826060015173ffffffffffffffffffffffffffffffffffffffff1681526020018260a0015160020b81526020018260c0015160020b8152602001826080015162ffffff1681526020018260e001516fffffffffffffffffffffffffffffffff16815250915050919050565b6000611569836000018373ffffffffffffffffffffffffffffffffffffffff1660001b611e53565b905092915050565b60008273ffffffffffffffffffffffffffffffffffffffff168473ffffffffffffffffffffffffffffffffffffffff16106115ab57600080fd5b848484846040516020016115c1939291906133c3565b604051602081830303815290604052805190602001207fe34f199b19b2b4f47f68442619d555527d244f78a3297ea89325f843f87b8b5460001b60405160200161160d939291906134c4565b6040516020818303038152906040528051906020012060001c9050949350505050565b60008060008360020b12611647578260020b611655565b8260020b61165490613516565b5b90507ffffffffffffffffffffffffffffffffffffffffffffffffffffffffffff276186116819061355f565b60020b8111156116c6576040517f08c379a00000000000000000000000000000000000000000000000000000000081526004016116bd906135f4565b60405180910390fd5b6000806001831614156116ea577001000000000000000000000000000000006116fc565b6ffffcb933bd6fad37aa2d162d1a5940015b70ffffffffffffffffffffffffffffffffff1690506000600283161461173f5760806ffff97272373d413259a46990580e213a8261173a9190613614565b901c90505b6000600483161461176d5760806ffff2e50f5f656932ef12357cf3c7fdcc826117689190613614565b901c90505b6000600883161461179b5760806fffe5caca7e10e4e61c3624eaa0941cd0826117969190613614565b901c90505b600060108316146117c95760806fffcb9843d60f6159c9db58835c926644826117c49190613614565b901c90505b600060208316146117f75760806fff973b41fa98c081472e6896dfb254c0826117f29190613614565b901c90505b600060408316146118255760806fff2ea16466c96a3843ec78b326b52861826118209190613614565b901c90505b600060808316146118535760806ffe5dee046a99a2a811c461f1969c30538261184e9190613614565b901c90505b60006101008316146118825760806ffcbe86c7900a88aedcffc83b479aa3a48261187d9190613614565b901c90505b60006102008316146118b15760806ff987a7253ac413176f2b074cf7815e54826118ac9190613614565b901c90505b60006104008316146118e05760806ff3392b0822b70005940c7a398e4b70f3826118db9190613614565b901c90505b600061080083161461190f5760806fe7159475a2c29b7443b29c7fa6e889d98261190a9190613614565b901c90505b600061100083161461193e5760806fd097f3bdfd2022b8845ad8f792aa5825826119399190613614565b901c90505b600061200083161461196d5760806fa9f746462d870fdf8a65dc1f90e061e5826119689190613614565b901c90505b600061400083161461199c5760806f70d869a156d2a1b890bb3df62baf32f7826119979190613614565b901c90505b60006180008316146119cb5760806f31be135f97d08fd981231505542fcfa6826119c69190613614565b901c90505b6000620100008316146119fb5760806f09aa508b5b7a84e1c677de54f3e99bc9826119f69190613614565b901c90505b600062020000831614611a2a5760806e5d6af8dedb81196699c329225ee60482611a259190613614565b901c90505b600062040000831614611a585760806d2216e584f5fa1ea926041bedfe9882611a539190613614565b901c90505b600062080000831614611a845760806b048a170391f7dc42444e8fa282611a7f9190613614565b901c90505b60008460020b1315611abf57807fffffffffffffffffffffffffffffffffffffffffffffffffffffffffffffffff611abc919061369d565b90505b600064010000000082611ad291906136ce565b14611ade576001611ae1565b60005b60ff16602082901c611af39190613028565b92505050919050565b60008273ffffffffffffffffffffffffffffffffffffffff168473ffffffffffffffffffffffffffffffffffffffff161115611b3d57828480945081955050505b8373ffffffffffffffffffffffffffffffffffffffff16611baf606060ff16846fffffffffffffffffffffffffffffffff16901b8686611b7d91906136ff565b73ffffffffffffffffffffffffffffffffffffffff168673ffffffffffffffffffffffffffffffffffffffff16611e76565b611bb9919061369d565b90509392505050565b60008273ffffffffffffffffffffffffffffffffffffffff168473ffffffffffffffffffffffffffffffffffffffff161115611c0357828480945081955050505b611c4e826fffffffffffffffffffffffffffffffff168585611c2591906136ff565b73ffffffffffffffffffffffffffffffffffffffff166c01000000000000000000000000611e76565b90509392505050565b6000611c69836000018360001b611de3565b905092915050565b6000611c83836000018360001b611e53565b905092915050565b611d0c8363a9059cbb60e01b8484604051602401611caa929190612e78565b604051602081830303815290604052907bffffffffffffffffffffffffffffffffffffffffffffffffffffffff19166020820180517bffffffffffffffffffffffffffffffffffffffffffffffffffffffff8381831617835250505050611f84565b505050565b6000611d23836000018360001b61204b565b905092915050565b6000611d3a836000018361215f565b60001c905092915050565b611dc8846323b872dd60e01b858585604051602401611d6693929190612e41565b604051602081830303815290604052907bffffffffffffffffffffffffffffffffffffffffffffffffffffffff19166020820180517bffffffffffffffffffffffffffffffffffffffffffffffffffffffff8381831617835250505050611f84565b50505050565b6000611ddc8260000161218a565b9050919050565b6000611def8383611e53565b611e48578260000182908060018154018082558091505060019003906000526020600020016000909190919091505582600001805490508360010160008481526020019081526020016000208190555060019050611e4d565b600090505b92915050565b600080836001016000848152602001908152602001600020541415905092915050565b600080600080198587098587029250828110838203039150506000811415611eb15760008411611ea557600080fd5b83820492505050611f7d565b808411611ebd57600080fd5b60008486880990508281118203915080830392506000856001877fffffffffffffffffffffffffffffffffffffffffffffffffffffffffffffffff611f029190612f62565b611f0c9190613028565b169050808604955080840493506001818260000304019050808302841793506000600287600302189050808702600203810290508087026002038102905080870260020381029050808702600203810290508087026002038102905080870260020381029050808502955050505050505b9392505050565b6000611fe6826040518060400160405280602081526020017f5361666545524332303a206c6f772d6c6576656c2063616c6c206661696c65648152508573ffffffffffffffffffffffffffffffffffffffff1661219b9092919063ffffffff16565b905060008151111561204657808060200190518101906120069190613733565b612045576040517f08c379a000000000000000000000000000000000000000000000000000000000815260040161203c906137d2565b60405180910390fd5b5b505050565b6000808360010160008481526020019081526020016000205490506000811461215357600060018261207d9190612f62565b90506000600186600001805490506120959190612f62565b90508181146121045760008660000182815481106120b6576120b5613110565b5b90600052602060002001549050808760000184815481106120da576120d9613110565b5b90600052602060002001819055508387600101600083815260200190815260200160002081905550505b85600001805480612118576121176137f2565b5b600190038181906000526020600020016000905590558560010160008681526020019081526020016000206000905560019350505050612159565b60009150505b92915050565b600082600001828154811061217757612176613110565b5b9060005260206000200154905092915050565b600081600001805490509050919050565b60606121aa84846000856121b3565b90509392505050565b6060824710156121f8576040517f08c379a00000000000000000000000000000000000000000000000000000000081526004016121ef90613893565b60405180910390fd5b612201856122c7565b612240576040517f08c379a0000000000000000000000000000000000000000000000000000000008152600401612237906138ff565b60405180910390fd5b6000808673ffffffffffffffffffffffffffffffffffffffff1685876040516122699190612a0f565b60006040518083038185875af1925050503d80600081146122a6576040519150601f19603f3d011682016040523d82523d6000602084013e6122ab565b606091505b50915091506122bb8282866122ea565b92505050949350505050565b6000808273ffffffffffffffffffffffffffffffffffffffff163b119050919050565b606083156122fa5782905061234a565b60008351111561230d5782518084602001fd5b816040517f08c379a00000000000000000000000000000000000000000000000000000000081526004016123419190613963565b60405180910390fd5b9392505050565b6040518060e00160405280600073ffffffffffffffffffffffffffffffffffffffff168152602001600073ffffffffffffffffffffffffffffffffffffffff168152602001600073ffffffffffffffffffffffffffffffffffffffff168152602001600060020b8152602001600060020b8152602001600062ffffff16815260200160006fffffffffffffffffffffffffffffffff1681525090565b6000604051905090565b600080fd5b600080fd5b6000819050919050565b61241481612401565b811461241f57600080fd5b50565b6000813590506124318161240b565b92915050565b60006020828403121561244d5761244c6123f7565b5b600061245b84828501612422565b91505092915050565b600073ffffffffffffffffffffffffffffffffffffffff82169050919050565b600061248f82612464565b9050919050565b61249f81612484565b81146124aa57600080fd5b50565b6000813590506124bc81612496565b92915050565b600080fd5b600080fd5b600080fd5b60008083601f8401126124e7576124e66124c2565b5b8235905067ffffffffffffffff811115612504576125036124c7565b5b6020830191508360018202830111156125205761251f6124cc565b5b9250929050565b600080600080600060808688031215612543576125426123f7565b5b6000612551888289016124ad565b9550506020612562888289016124ad565b945050604061257388828901612422565b935050606086013567ffffffffffffffff811115612594576125936123fc565b5b6125a0888289016124d1565b92509250509295509295909350565b60007fffffffff0000000000000000000000000000000000000000000000000000000082169050919050565b6125e4816125af565b82525050565b60006020820190506125ff60008301846125db565b92915050565b61260e81612401565b82525050565b60006020820190506126296000830184612605565b92915050565b60008060408385031215612646576126456123f7565b5b6000612654858286016124ad565b925050602061266585828601612422565b9150509250929050565b60008115159050919050565b6126848161266f565b82525050565b600060208201905061269f600083018461267b565b92915050565b6000602082840312156126bb576126ba6123f7565b5b60006126c9848285016124ad565b91505092915050565b6000601f19601f8301169050919050565b7f4e487b7100000000000000000000000000000000000000000000000000000000600052604160045260246000fd5b61271b826126d2565b810181811067ffffffffffffffff8211171561273a576127396126e3565b5b80604052505050565b600061274d6123ed565b90506127598282612712565b919050565b600067ffffffffffffffff821115612779576127786126e3565b5b602082029050602081019050919050565b600061279d6127988461275e565b612743565b905080838252602082019050602084028301858111156127c0576127bf6124cc565b5b835b818110156127e957806127d58882612422565b8452602084019350506020810190506127c2565b5050509392505050565b600082601f830112612808576128076124c2565b5b813561281884826020860161278a565b91505092915050565b600060208284031215612837576128366123f7565b5b600082013567ffffffffffffffff811115612855576128546123fc565b5b612861848285016127f3565b91505092915050565b600082825260208201905092915050565b7f6e6f7420696d706c656d656e746564207965742e000000000000000000000000600082015250565b60006128b160148361286a565b91506128bc8261287b565b602082019050919050565b600060208201905081810360008301526128e0816128a4565b9050919050565b6000815190506128f681612496565b92915050565b600060208284031215612912576129116123f7565b5b6000612920848285016128e7565b91505092915050565b7f4e6f7420616e206f776e6572206f66204e465420706f736974696f6e2e000000600082015250565b600061295f601d8361286a565b915061296a82612929565b602082019050919050565b6000602082019050818103600083015261298e81612952565b9050919050565b600081519050919050565b600081905092915050565b60005b838110156129c95780820151818401526020810190506129ae565b838111156129d8576000848401525b50505050565b60006129e982612995565b6129f381856129a0565b9350612a038185602086016129ab565b80840191505092915050565b6000612a1b82846129de565b915081905092915050565b7f4e6f20617070726f76616c20746f207374616b652e0000000000000000000000600082015250565b6000612a5c60158361286a565b9150612a6782612a26565b602082019050919050565b60006020820190508181036000830152612a8b81612a4f565b9050919050565b7f4e6f20676f7665726e616e636520746f6b656e20696e20756e6465726c79696e60008201527f67206173736574732e0000000000000000000000000000000000000000000000602082015250565b6000612aee60298361286a565b9150612af982612a92565b604082019050919050565b60006020820190508181036000830152612b1d81612ae1565b9050919050565b7f4e6f206c6567616c207061697220746f6b656e20696e20756e6465726c79696e60008201527f67206173736574732e0000000000000000000000000000000000000000000000602082015250565b6000612b8060298361286a565b9150612b8b82612b24565b604082019050919050565b60006020820190508181036000830152612baf81612b73565b9050919050565b600080fd5b612bc481612464565b8114612bcf57600080fd5b50565b600081519050612be181612bbb565b92915050565b60008160020b9050919050565b612bfd81612be7565b8114612c0857600080fd5b50565b600081519050612c1a81612bf4565b92915050565b600061ffff82169050919050565b612c3781612c20565b8114612c4257600080fd5b50565b600081519050612c5481612c2e565b92915050565b600060ff82169050919050565b612c7081612c5a565b8114612c7b57600080fd5b50565b600081519050612c8d81612c67565b92915050565b612c9c8161266f565b8114612ca757600080fd5b50565b600081519050612cb981612c93565b92915050565b600060e08284031215612cd557612cd4612bb6565b5b612cdf60e0612743565b90506000612cef84828501612bd2565b6000830152506020612d0384828501612c0b565b6020830152506040612d1784828501612c45565b6040830152506060612d2b84828501612c45565b6060830152506080612d3f84828501612c45565b60808301525060a0612d5384828501612c7e565b60a08301525060c0612d6784828501612caa565b60c08301525092915050565b600060e08284031215612d8957612d886123f7565b5b6000612d9784828501612cbf565b91505092915050565b7f4f6e6c79207061697220746f6b656e206c6971756964697479206973206e6f7460008201527f206163636570746564207965742e000000000000000000000000000000000000602082015250565b6000612dfc602e8361286a565b9150612e0782612da0565b604082019050919050565b60006020820190508181036000830152612e2b81612def565b9050919050565b612e3b81612484565b82525050565b6000606082019050612e566000830186612e32565b612e636020830185612e32565b612e706040830184612605565b949350505050565b6000604082019050612e8d6000830185612e32565b612e9a6020830184612605565b9392505050565b7f547279696e6720746f20756e7374616b65206d6f7265207468616e206861766560008201527f2e00000000000000000000000000000000000000000000000000000000000000602082015250565b6000612efd60218361286a565b9150612f0882612ea1565b604082019050919050565b60006020820190508181036000830152612f2c81612ef0565b9050919050565b7f4e487b7100000000000000000000000000000000000000000000000000000000600052601160045260246000fd5b6000612f6d82612401565b9150612f7883612401565b925082821015612f8b57612f8a612f33565b5b828203905092915050565b7f746f6b656e496420776173206e6f74207374616b6564206279206d73672e736560008201527f6e64657200000000000000000000000000000000000000000000000000000000602082015250565b6000612ff260248361286a565b9150612ffd82612f96565b604082019050919050565b6000602082019050818103600083015261302181612fe5565b9050919050565b600061303382612401565b915061303e83612401565b9250827fffffffffffffffffffffffffffffffffffffffffffffffffffffffffffffffff0382111561307357613072612f33565b5b828201905092915050565b7f4552433732313a2062616c616e636520717565727920666f7220746865207a6560008201527f726f206164647265737300000000000000000000000000000000000000000000602082015250565b60006130da602a8361286a565b91506130e58261307e565b604082019050919050565b60006020820190508181036000830152613109816130cd565b9050919050565b7f4e487b7100000000000000000000000000000000000000000000000000000000600052603260045260246000fd5b600061314a82612401565b91507fffffffffffffffffffffffffffffffffffffffffffffffffffffffffffffffff82141561317d5761317c612f33565b5b600182019050919050565b60006bffffffffffffffffffffffff82169050919050565b6131a981613188565b81146131b457600080fd5b50565b6000815190506131c6816131a0565b92915050565b600062ffffff82169050919050565b6131e4816131cc565b81146131ef57600080fd5b50565b600081519050613201816131db565b92915050565b60006fffffffffffffffffffffffffffffffff82169050919050565b61322c81613207565b811461323757600080fd5b50565b60008151905061324981613223565b92915050565b60008151905061325e8161240b565b92915050565b6000610180828403121561327b5761327a612bb6565b5b613286610180612743565b90506000613296848285016131b7565b60008301525060206132aa848285016128e7565b60208301525060406132be848285016128e7565b60408301525060606132d2848285016128e7565b60608301525060806132e6848285016131f2565b60808301525060a06132fa84828501612c0b565b60a08301525060c061330e84828501612c0b565b60c08301525060e06133228482850161323a565b60e0830152506101006133378482850161324f565b6101008301525061012061334d8482850161324f565b610120830152506101406133638482850161323a565b610140830152506101606133798482850161323a565b6101608301525092915050565b6000610180828403121561339d5761339c6123f7565b5b60006133ab84828501613264565b91505092915050565b6133bd816131cc565b82525050565b60006060820190506133d86000830186612e32565b6133e56020830185612e32565b6133f260408301846133b4565b949350505050565b600081905092915050565b7fff00000000000000000000000000000000000000000000000000000000000000600082015250565b600061343b6001836133fa565b915061344682613405565b600182019050919050565b60008160601b9050919050565b600061346982613451565b9050919050565b600061347b8261345e565b9050919050565b61349361348e82612484565b613470565b82525050565b6000819050919050565b6000819050919050565b6134be6134b982613499565b6134a3565b82525050565b60006134cf8261342e565b91506134db8286613482565b6014820191506134eb82856134ad565b6020820191506134fb82846134ad565b602082019150819050949350505050565b6000819050919050565b60006135218261350c565b91507f800000000000000000000000000000000000000000000000000000000000000082141561355457613553612f33565b5b816000039050919050565b600061356a82612be7565b91507fffffffffffffffffffffffffffffffffffffffffffffffffffffffffff80000082141561359d5761359c612f33565b5b816000039050919050565b7f5400000000000000000000000000000000000000000000000000000000000000600082015250565b60006135de60018361286a565b91506135e9826135a8565b602082019050919050565b6000602082019050818103600083015261360d816135d1565b9050919050565b600061361f82612401565b915061362a83612401565b9250817fffffffffffffffffffffffffffffffffffffffffffffffffffffffffffffffff048311821515161561366357613662612f33565b5b828202905092915050565b7f4e487b7100000000000000000000000000000000000000000000000000000000600052601260045260246000fd5b60006136a882612401565b91506136b383612401565b9250826136c3576136c261366e565b5b828204905092915050565b60006136d982612401565b91506136e483612401565b9250826136f4576136f361366e565b5b828206905092915050565b600061370a82612464565b915061371583612464565b92508282101561372857613727612f33565b5b828203905092915050565b600060208284031215613749576137486123f7565b5b600061375784828501612caa565b91505092915050565b7f5361666545524332303a204552433230206f7065726174696f6e20646964206e60008201527f6f74207375636365656400000000000000000000000000000000000000000000602082015250565b60006137bc602a8361286a565b91506137c782613760565b604082019050919050565b600060208201905081810360008301526137eb816137af565b9050919050565b7f4e487b7100000000000000000000000000000000000000000000000000000000600052603160045260246000fd5b7f416464726573733a20696e73756666696369656e742062616c616e636520666f60008201527f722063616c6c0000000000000000000000000000000000000000000000000000602082015250565b600061387d60268361286a565b915061388882613821565b604082019050919050565b600060208201905081810360008301526138ac81613870565b9050919050565b7f416464726573733a2063616c6c20746f206e6f6e2d636f6e7472616374000000600082015250565b60006138e9601d8361286a565b91506138f4826138b3565b602082019050919050565b60006020820190508181036000830152613918816138dc565b9050919050565b600081519050919050565b60006139358261391f565b61393f818561286a565b935061394f8185602086016129ab565b613958816126d2565b840191505092915050565b6000602082019050818103600083015261397d818461392a565b90509291505056fea26469706673582212205b4737e8cebaa087c077436a314ad20a9e24fec4987bdd56917da073937b452a64736f6c63430008090033a2646970667358221220556ab242d45747e670ef1d01af5aeb2092b532bcf085112382aa198559de1a8f64736f6c63430008090033",
  "linkReferences": {},
  "deployedLinkReferences": {}
}