{
  "_format": "hh-sol-artifact-1",
  "contractName": "TreasuryVotingPowerFacet",
  "sourceName": "contracts/facets/treasury/TreasuryVotingPowerFacet.sol",
  "abi": [
    {
      "inputs": [],
      "name": "getMinimumQuorum",
      "outputs": [
        {
          "internalType": "uint256",
          "name": "",
          "type": "uint256"
        }
      ],
      "stateMutability": "view",
      "type": "function"
    },
    {
      "inputs": [
        {
          "internalType": "address",
          "name": "holder",
          "type": "address"
        }
      ],
      "name": "isEnoughVotingPower",
      "outputs": [
        {
          "internalType": "bool",
          "name": "",
          "type": "bool"
        }
      ],
      "stateMutability": "view",
      "type": "function"
    },
    {
      "inputs": [
        {
          "internalType": "uint256",
          "name": "amountOfVotes",
          "type": "uint256"
        }
      ],
      "name": "isProposalThresholdReached",
      "outputs": [
        {
          "internalType": "bool",
          "name": "",
          "type": "bool"
        }
      ],
      "stateMutability": "view",
      "type": "function"
    },
    {
      "inputs": [],
      "name": "isQourum",
      "outputs": [
        {
          "internalType": "bool",
          "name": "",
          "type": "bool"
        }
      ],
      "stateMutability": "view",
      "type": "function"
    },
    {
      "inputs": [],
      "name": "minimumQuorumNumerator",
      "outputs": [
        {
          "internalType": "uint64",
          "name": "",
          "type": "uint64"
        }
      ],
      "stateMutability": "view",
      "type": "function"
    },
    {
      "inputs": [],
      "name": "thresholdForInitiatorNumerator",
      "outputs": [
        {
          "internalType": "uint64",
          "name": "",
          "type": "uint64"
        }
      ],
      "stateMutability": "view",
      "type": "function"
    },
    {
      "inputs": [],
      "name": "thresholdForProposalNumerator",
      "outputs": [
        {
          "internalType": "uint64",
          "name": "",
          "type": "uint64"
        }
      ],
      "stateMutability": "view",
      "type": "function"
    },
    {
      "inputs": [],
      "name": "treasuryDenominator",
      "outputs": [
        {
          "internalType": "uint64",
          "name": "",
          "type": "uint64"
        }
      ],
      "stateMutability": "view",
      "type": "function"
    }
  ],
  "bytecode": "0x608060405234801561001057600080fd5b50610961806100206000396000f3fe608060405234801561001057600080fd5b50600436106100885760003560e01c80636f3b88bc1161005b5780636f3b88bc146101175780637e31963214610135578063bd03cd2d14610153578063cf50c2301461017157610088565b8063228f7c7a1461008d57806334090175146100ab5780633d4b1857146100c9578063461318b1146100f9575b600080fd5b6100956101a1565b6040516100a29190610692565b60405180910390f35b6100b36101cd565b6040516100c09190610692565b60405180910390f35b6100e360048036038101906100de91906106e8565b6101f9565b6040516100f09190610730565b60405180910390f35b61010161020b565b60405161010e919061075a565b60405180910390f35b61011f61021a565b60405161012c9190610692565b60405180910390f35b61013d610246565b60405161014a9190610692565b60405180910390f35b61015b610272565b6040516101689190610730565b60405180910390f35b61018b600480360381019061018691906107d3565b610281565b6040516101989190610730565b60405180910390f35b6000806101ac610293565b90508060000160189054906101000a900467ffffffffffffffff1691505090565b6000806101d8610293565b90508060000160109054906101000a900467ffffffffffffffff1691505090565b6000610204826102aa565b9050919050565b600061021561032a565b905090565b600080610225610293565b90508060000160089054906101000a900467ffffffffffffffff1691505090565b600080610251610293565b90508060000160009054906101000a900467ffffffffffffffff1691505090565b600061027c610419565b905090565b600061028c82610518565b9050919050565b60008061029e6105a6565b90508060010191505090565b6000806102b5610293565b905060006102c16105d3565b90508160000160189054906101000a900467ffffffffffffffff1667ffffffffffffffff16818360000160089054906101000a900467ffffffffffffffff1667ffffffffffffffff16610314919061082f565b61031e91906108b8565b84101592505050919050565b600080610335610293565b9050600073__$ac80b70655973129101145d998fccce3e8$__63200cd9cc6040518163ffffffff1660e01b815260040160206040518083038186803b15801561037d57600080fd5b505af4158015610391573d6000803e3d6000fd5b505050506040513d601f19601f820116820180604052508101906103b591906108fe565b90508160000160189054906101000a900467ffffffffffffffff1667ffffffffffffffff16818360000160009054906101000a900467ffffffffffffffff1667ffffffffffffffff16610408919061082f565b61041291906108b8565b9250505090565b600080610424610293565b9050600073__$ac80b70655973129101145d998fccce3e8$__63200cd9cc6040518163ffffffff1660e01b815260040160206040518083038186803b15801561046c57600080fd5b505af4158015610480573d6000803e3d6000fd5b505050506040513d601f19601f820116820180604052508101906104a491906108fe565b905060006104b06105d3565b9050808360000160189054906101000a900467ffffffffffffffff1667ffffffffffffffff16838560000160009054906101000a900467ffffffffffffffff1667ffffffffffffffff16610504919061082f565b61050e91906108b8565b1115935050505090565b600080610523610293565b90506000610530846105eb565b9050600061053c6105d3565b90508260000160189054906101000a900467ffffffffffffffff1667ffffffffffffffff16818460000160109054906101000a900467ffffffffffffffff1667ffffffffffffffff1661058f919061082f565b61059991906108b8565b8210159350505050919050565b6000807fd5211e15e362f5251dbdeabddfd30aa19c1d7433b35372348d9978301f444fb690508091505090565b6000806105de610642565b9050806002015491505090565b6000806105f6610642565b90508060010160008473ffffffffffffffffffffffffffffffffffffffff1673ffffffffffffffffffffffffffffffffffffffff16815260200190815260200160002054915050919050565b6000807f534276485ab019670afde26394d87b7e6a7f0dab7b16287011cc6ad8ed0d94f690508091505090565b600067ffffffffffffffff82169050919050565b61068c8161066f565b82525050565b60006020820190506106a76000830184610683565b92915050565b600080fd5b6000819050919050565b6106c5816106b2565b81146106d057600080fd5b50565b6000813590506106e2816106bc565b92915050565b6000602082840312156106fe576106fd6106ad565b5b600061070c848285016106d3565b91505092915050565b60008115159050919050565b61072a81610715565b82525050565b60006020820190506107456000830184610721565b92915050565b610754816106b2565b82525050565b600060208201905061076f600083018461074b565b92915050565b600073ffffffffffffffffffffffffffffffffffffffff82169050919050565b60006107a082610775565b9050919050565b6107b081610795565b81146107bb57600080fd5b50565b6000813590506107cd816107a7565b92915050565b6000602082840312156107e9576107e86106ad565b5b60006107f7848285016107be565b91505092915050565b7f4e487b7100000000000000000000000000000000000000000000000000000000600052601160045260246000fd5b600061083a826106b2565b9150610845836106b2565b9250817fffffffffffffffffffffffffffffffffffffffffffffffffffffffffffffffff048311821515161561087e5761087d610800565b5b828202905092915050565b7f4e487b7100000000000000000000000000000000000000000000000000000000600052601260045260246000fd5b60006108c3826106b2565b91506108ce836106b2565b9250826108de576108dd610889565b5b828204905092915050565b6000815190506108f8816106bc565b92915050565b600060208284031215610914576109136106ad565b5b6000610922848285016108e9565b9150509291505056fea2646970667358221220310121525402bfa4fa213524ddb04a2015951c78fde8c0de236d2fa45c66dd4164736f6c63430008090033",
  "linkReferences": {
    "contracts/libraries/LibVotingPower.sol": {
      "LibVotingPower": [
        {
          "length": 20,
          "start": 859
        },
        {
          "length": 20,
          "start": 1098
        }
      ]
    }
  },
  "deployedLinkReferences": {
    "contracts/libraries/LibVotingPower.sol": {
      "LibVotingPower": [
        {
          "length": 20,
          "start": 827
        },
        {
          "length": 20,
          "start": 1066
        }
      ]
    }
  }
}