{
  "_format": "hh-sol-artifact-1",
  "contractName": "TreasuryExecutionFacet",
  "sourceName": "contracts/facets/treasury/TreasuryExecutionFacet.sol",
  "abi": [
    {
      "anonymous": false,
      "inputs": [
        {
          "indexed": true,
          "internalType": "uint256",
          "name": "proposalId",
          "type": "uint256"
        },
        {
          "indexed": true,
          "internalType": "address",
          "name": "destination",
          "type": "address"
        },
        {
          "indexed": true,
          "internalType": "uint256",
          "name": "value",
          "type": "uint256"
        },
        {
          "indexed": false,
          "internalType": "bytes",
          "name": "callData",
          "type": "bytes"
        }
      ],
      "name": "ProposalExecuted",
      "type": "event"
    },
    {
      "inputs": [
        {
          "internalType": "uint256",
          "name": "proposalId",
          "type": "uint256"
        }
      ],
      "name": "executeProposal",
      "outputs": [
        {
          "internalType": "bool",
          "name": "result",
          "type": "bool"
        }
      ],
      "stateMutability": "nonpayable",
      "type": "function"
    }
  ],
  "bytecode": "0x608060405234801561001057600080fd5b5061070c806100206000396000f3fe608060405234801561001057600080fd5b506004361061002b5760003560e01c80630d61b51914610030575b600080fd5b61004a60048036038101906100459190610449565b610060565b6040516100579190610491565b60405180910390f35b60008061006c8361027b565b90508060000160009054906101000a900460ff16801561009b57508060030160009054906101000a900460ff16155b6100da576040517f08c379a00000000000000000000000000000000000000000000000000000000081526004016100d190610509565b60405180910390fd5b60018160030160006101000a81548160ff021916908315150217905550428160040154111561013e576040517f08c379a00000000000000000000000000000000000000000000000000000000081526004016101359061059b565b60405180910390fd5b60008160000160019054906101000a900473ffffffffffffffffffffffffffffffffffffffff1690506000826001015490506000836002018054610181906105ea565b80601f01602080910402602001604051908101604052809291908181526020018280546101ad906105ea565b80156101fa5780601f106101cf576101008083540402835291602001916101fa565b820191906000526020600020905b8154815290600101906020018083116101dd57829003601f168201915b5050505050905060008082516020840185875af19450610219866102a5565b6102228661031d565b818373ffffffffffffffffffffffffffffffffffffffff16877fab5090353dd4532563db1c79e21e03079ff7bec5b8ba65fdc18df70ef7d1d2628460405161026a91906106b4565b60405180910390a450505050919050565b60008061028661035a565b9050806005016000848152602001908152602001600020915050919050565b60006102b08261027b565b90508060000160006101000a81549060ff02191690558060000160016101000a81549073ffffffffffffffffffffffffffffffffffffffff0219169055806001016000905580600201600061030591906103b1565b8060030160006101000a81549060ff02191690555050565b600061032882610387565b90508060000160006101000a81549060ff02191690558060020160009055806003016000905580600401600090555050565b6000807fd5211e15e362f5251dbdeabddfd30aa19c1d7433b35372348d9978301f444fb690508091505090565b60008061039261035a565b9050806006016000848152602001908152602001600020915050919050565b5080546103bd906105ea565b6000825580601f106103cf57506103ee565b601f0160209004906000526020600020908101906103ed91906103f1565b5b50565b5b8082111561040a5760008160009055506001016103f2565b5090565b600080fd5b6000819050919050565b61042681610413565b811461043157600080fd5b50565b6000813590506104438161041d565b92915050565b60006020828403121561045f5761045e61040e565b5b600061046d84828501610434565b91505092915050565b60008115159050919050565b61048b81610476565b82525050565b60006020820190506104a66000830184610482565b92915050565b600082825260208201905092915050565b7f50726f706f73616c20646f6573206e6f742061636365707465642e0000000000600082015250565b60006104f3601b836104ac565b91506104fe826104bd565b602082019050919050565b60006020820190508181036000830152610522816104e6565b9050919050565b7f5761697420756e74696c2070726f706f73616c2064656c61792074696d65206960008201527f7320657870697265642e00000000000000000000000000000000000000000000602082015250565b6000610585602a836104ac565b915061059082610529565b604082019050919050565b600060208201905081810360008301526105b481610578565b9050919050565b7f4e487b7100000000000000000000000000000000000000000000000000000000600052602260045260246000fd5b6000600282049050600182168061060257607f821691505b602082108103610615576106146105bb565b5b50919050565b600081519050919050565b600082825260208201905092915050565b60005b8381101561065557808201518184015260208101905061063a565b83811115610664576000848401525b50505050565b6000601f19601f8301169050919050565b60006106868261061b565b6106908185610626565b93506106a0818560208601610637565b6106a98161066a565b840191505092915050565b600060208201905081810360008301526106ce818461067b565b90509291505056fea2646970667358221220380b4b66c935c9321adf6815e4664a0dceae1e48ef4a8c98d1f25d1ea7396fe564736f6c634300080f0033",
  "linkReferences": {},
  "deployedLinkReferences": {}
}