{
  "_format": "hh-sol-artifact-1",
  "contractName": "MockVotingPowerHolder",
  "sourceName": "contracts/mock/MockVotingPowerHolder.sol",
  "abi": [
    {
      "inputs": [
        {
          "internalType": "address",
          "name": "holder",
          "type": "address"
        },
        {
          "internalType": "uint256",
          "name": "amount",
          "type": "uint256"
        }
      ],
      "name": "decreaseVotingPower",
      "outputs": [],
      "stateMutability": "nonpayable",
      "type": "function"
    },
    {
      "inputs": [
        {
          "internalType": "address",
          "name": "holder",
          "type": "address"
        },
        {
          "internalType": "uint256",
          "name": "amount",
          "type": "uint256"
        }
      ],
      "name": "increaseVotingPower",
      "outputs": [],
      "stateMutability": "nonpayable",
      "type": "function"
    },
    {
      "inputs": [
        {
          "internalType": "address",
          "name": "vpm",
          "type": "address"
        }
      ],
      "name": "setVPM",
      "outputs": [],
      "stateMutability": "nonpayable",
      "type": "function"
    },
    {
      "inputs": [
        {
          "internalType": "address",
          "name": "holder",
          "type": "address"
        }
      ],
      "name": "setVoted",
      "outputs": [],
      "stateMutability": "nonpayable",
      "type": "function"
    },
    {
      "inputs": [
        {
          "internalType": "address",
          "name": "",
          "type": "address"
        }
      ],
      "name": "voted",
      "outputs": [
        {
          "internalType": "bool",
          "name": "",
          "type": "bool"
        }
      ],
      "stateMutability": "view",
      "type": "function"
    },
    {
      "inputs": [
        {
          "internalType": "address",
          "name": "",
          "type": "address"
        }
      ],
      "name": "votingPower",
      "outputs": [
        {
          "internalType": "uint256",
          "name": "",
          "type": "uint256"
        }
      ],
      "stateMutability": "view",
      "type": "function"
    }
  ],
  "bytecode": "0x608060405234801561001057600080fd5b506107ce806100206000396000f3fe608060405234801561001057600080fd5b50600436106100625760003560e01c806309952320146100675780631c6d156c14610083578063aec2ccae1461009f578063c07473f6146100cf578063d47a34b4146100ff578063dc7d5d251461011b575b600080fd5b610081600480360381019061007c91906104cd565b610137565b005b61009d60048036038101906100989190610530565b61017a565b005b6100b960048036038101906100b491906104cd565b6102ef565b6040516100c6919061058b565b60405180910390f35b6100e960048036038101906100e491906104cd565b61030f565b6040516100f691906105b5565b60405180910390f35b610119600480360381019061011491906104cd565b610327565b005b61013560048036038101906101309190610530565b610382565b005b806000806101000a81548173ffffffffffffffffffffffffffffffffffffffff021916908373ffffffffffffffffffffffffffffffffffffffff16021790555050565b60008054906101000a900473ffffffffffffffffffffffffffffffffffffffff1673ffffffffffffffffffffffffffffffffffffffff163373ffffffffffffffffffffffffffffffffffffffff1614610208576040517f08c379a00000000000000000000000000000000000000000000000000000000081526004016101ff9061062d565b60405180910390fd5b600260008373ffffffffffffffffffffffffffffffffffffffff1673ffffffffffffffffffffffffffffffffffffffff16815260200190815260200160002060009054906101000a900460ff1615610295576040517f08c379a000000000000000000000000000000000000000000000000000000000815260040161028c906106bf565b60405180910390fd5b80600160008473ffffffffffffffffffffffffffffffffffffffff1673ffffffffffffffffffffffffffffffffffffffff16815260200190815260200160002060008282546102e4919061070e565b925050819055505050565b60026020528060005260406000206000915054906101000a900460ff1681565b60016020528060005260406000206000915090505481565b6001600260008373ffffffffffffffffffffffffffffffffffffffff1673ffffffffffffffffffffffffffffffffffffffff16815260200190815260200160002060006101000a81548160ff02191690831515021790555050565b60008054906101000a900473ffffffffffffffffffffffffffffffffffffffff1673ffffffffffffffffffffffffffffffffffffffff163373ffffffffffffffffffffffffffffffffffffffff1614610410576040517f08c379a00000000000000000000000000000000000000000000000000000000081526004016104079061062d565b60405180910390fd5b80600160008473ffffffffffffffffffffffffffffffffffffffff1673ffffffffffffffffffffffffffffffffffffffff168152602001908152602001600020600082825461045f9190610742565b925050819055505050565b600080fd5b600073ffffffffffffffffffffffffffffffffffffffff82169050919050565b600061049a8261046f565b9050919050565b6104aa8161048f565b81146104b557600080fd5b50565b6000813590506104c7816104a1565b92915050565b6000602082840312156104e3576104e261046a565b5b60006104f1848285016104b8565b91505092915050565b6000819050919050565b61050d816104fa565b811461051857600080fd5b50565b60008135905061052a81610504565b92915050565b600080604083850312156105475761054661046a565b5b6000610555858286016104b8565b92505060206105668582860161051b565b9150509250929050565b60008115159050919050565b61058581610570565b82525050565b60006020820190506105a0600083018461057c565b92915050565b6105af816104fa565b82525050565b60006020820190506105ca60008301846105a6565b92915050565b600082825260208201905092915050565b7f4f6e6c79206d616e616765720000000000000000000000000000000000000000600082015250565b6000610617600c836105d0565b9150610622826105e1565b602082019050919050565b600060208201905081810360008301526106468161060a565b9050919050565b7f43616e6e6f7420756e7374616b6520756e74696c20766f7465642070726f706f60008201527f73616c2069732065786563757465640000000000000000000000000000000000602082015250565b60006106a9602f836105d0565b91506106b48261064d565b604082019050919050565b600060208201905081810360008301526106d88161069c565b9050919050565b7f4e487b7100000000000000000000000000000000000000000000000000000000600052601160045260246000fd5b6000610719826104fa565b9150610724836104fa565b925082821015610737576107366106df565b5b828203905092915050565b600061074d826104fa565b9150610758836104fa565b9250827fffffffffffffffffffffffffffffffffffffffffffffffffffffffffffffffff0382111561078d5761078c6106df565b5b82820190509291505056fea26469706673582212201a0e46aa6726d6406a7f26717131950133166a1b70a21e997f1c71adfbb1becc64736f6c634300080f0033",
  "linkReferences": {},
  "deployedLinkReferences": {}
}