{
  "_format": "hh-sol-artifact-1",
  "contractName": "StakeContractERC20UniV2",
  "sourceName": "contracts/external/VotingPowerManagerERC20UniV2.sol",
  "abi": [
    {
      "inputs": [
        {
          "internalType": "address",
          "name": "_votingPower",
          "type": "address"
        },
        {
          "internalType": "uint256",
          "name": "_precision",
          "type": "uint256"
        },
        {
          "internalType": "address[]",
          "name": "_governanceTokens",
          "type": "address[]"
        },
        {
          "internalType": "uint256[]",
          "name": "coefficients",
          "type": "uint256[]"
        }
      ],
      "stateMutability": "nonpayable",
      "type": "constructor"
    },
    {
      "inputs": [
        {
          "internalType": "address",
          "name": "holder",
          "type": "address"
        },
        {
          "internalType": "address",
          "name": "_governanceToken",
          "type": "address"
        }
      ],
      "name": "getStakedBalanceOfGovernanceToken",
      "outputs": [
        {
          "internalType": "uint256",
          "name": "balance",
          "type": "uint256"
        }
      ],
      "stateMutability": "view",
      "type": "function"
    },
    {
      "inputs": [
        {
          "internalType": "address",
          "name": "_governanceToken",
          "type": "address"
        },
        {
          "internalType": "uint256",
          "name": "_amount",
          "type": "uint256"
        }
      ],
      "name": "stake",
      "outputs": [],
      "stateMutability": "nonpayable",
      "type": "function"
    },
    {
      "inputs": [
        {
          "internalType": "address[]",
          "name": "_governanceTokens",
          "type": "address[]"
        },
        {
          "internalType": "uint256[]",
          "name": "_amounts",
          "type": "uint256[]"
        }
      ],
      "name": "stakeMultiple",
      "outputs": [],
      "stateMutability": "nonpayable",
      "type": "function"
    },
    {
      "inputs": [
        {
          "internalType": "address",
          "name": "_governanceToken",
          "type": "address"
        },
        {
          "internalType": "uint256",
          "name": "_amount",
          "type": "uint256"
        }
      ],
      "name": "unstake",
      "outputs": [],
      "stateMutability": "nonpayable",
      "type": "function"
    },
    {
      "inputs": [
        {
          "internalType": "address[]",
          "name": "_governanceTokens",
          "type": "address[]"
        },
        {
          "internalType": "uint256[]",
          "name": "_amounts",
          "type": "uint256[]"
        }
      ],
      "name": "unstakeMultiple",
      "outputs": [],
      "stateMutability": "nonpayable",
      "type": "function"
    }
  ],
  "bytecode": "0x60806040523480156200001157600080fd5b5060405162001c7638038062001c768339818101604052810190620000379190620004aa565b600073ffffffffffffffffffffffffffffffffffffffff168473ffffffffffffffffffffffffffffffffffffffff16036200007157600080fd5b8051825114620000b8576040517f08c379a0000000000000000000000000000000000000000000000000000000008152600401620000af90620005bb565b60405180910390fd5b82600181905550836000806101000a81548173ffffffffffffffffffffffffffffffffffffffff021916908373ffffffffffffffffffffffffffffffffffffffff16021790555060005b8251811015620001a057818181518110620001225762000121620005dd565b5b602002602001015160026000858481518110620001445762000143620005dd565b5b602002602001015173ffffffffffffffffffffffffffffffffffffffff1673ffffffffffffffffffffffffffffffffffffffff16815260200190815260200160002081905550808062000197906200063b565b91505062000102565b505050505062000688565b6000604051905090565b600080fd5b600080fd5b600073ffffffffffffffffffffffffffffffffffffffff82169050919050565b6000620001ec82620001bf565b9050919050565b620001fe81620001df565b81146200020a57600080fd5b50565b6000815190506200021e81620001f3565b92915050565b6000819050919050565b620002398162000224565b81146200024557600080fd5b50565b60008151905062000259816200022e565b92915050565b600080fd5b6000601f19601f8301169050919050565b7f4e487b7100000000000000000000000000000000000000000000000000000000600052604160045260246000fd5b620002af8262000264565b810181811067ffffffffffffffff82111715620002d157620002d062000275565b5b80604052505050565b6000620002e6620001ab565b9050620002f48282620002a4565b919050565b600067ffffffffffffffff82111562000317576200031662000275565b5b602082029050602081019050919050565b600080fd5b6000620003446200033e84620002f9565b620002da565b905080838252602082019050602084028301858111156200036a576200036962000328565b5b835b818110156200039757806200038288826200020d565b8452602084019350506020810190506200036c565b5050509392505050565b600082601f830112620003b957620003b86200025f565b5b8151620003cb8482602086016200032d565b91505092915050565b600067ffffffffffffffff821115620003f257620003f162000275565b5b602082029050602081019050919050565b60006200041a6200041484620003d4565b620002da565b9050808382526020820190506020840283018581111562000440576200043f62000328565b5b835b818110156200046d578062000458888262000248565b84526020840193505060208101905062000442565b5050509392505050565b600082601f8301126200048f576200048e6200025f565b5b8151620004a184826020860162000403565b91505092915050565b60008060008060808587031215620004c757620004c6620001b5565b5b6000620004d7878288016200020d565b9450506020620004ea8782880162000248565b935050604085015167ffffffffffffffff8111156200050e576200050d620001ba565b5b6200051c87828801620003a1565b925050606085015167ffffffffffffffff81111562000540576200053f620001ba565b5b6200054e8782880162000477565b91505092959194509250565b600082825260208201905092915050565b7f446966666572656e7420617272617973206c656e677468000000000000000000600082015250565b6000620005a36017836200055a565b9150620005b0826200056b565b602082019050919050565b60006020820190508181036000830152620005d68162000594565b9050919050565b7f4e487b7100000000000000000000000000000000000000000000000000000000600052603260045260246000fd5b7f4e487b7100000000000000000000000000000000000000000000000000000000600052601160045260246000fd5b6000620006488262000224565b91507fffffffffffffffffffffffffffffffffffffffffffffffffffffffffffffffff82036200067d576200067c6200060c565b5b600182019050919050565b6115de80620006986000396000f3fe608060405234801561001057600080fd5b50600436106100575760003560e01c80630b15040d1461005c578063adc9772e14610078578063c2a672e014610094578063c5779d98146100b0578063eef48dde146100e0575b600080fd5b61007660048036038101906100719190610dc6565b6100fc565b005b610092600480360381019061008d9190610e3e565b6101a2565b005b6100ae60048036038101906100a99190610e3e565b6103d8565b005b6100ca60048036038101906100c59190610e7e565b610649565b6040516100d79190610ecd565b60405180910390f35b6100fa60048036038101906100f59190610dc6565b6106d0565b005b8051825114610140576040517f08c379a000000000000000000000000000000000000000000000000000000000815260040161013790610f45565b60405180910390fd5b60005b825181101561019d5761018a83828151811061016257610161610f65565b5b602002602001015183838151811061017d5761017c610f65565b5b60200260200101516103d8565b808061019590610fc3565b915050610143565b505050565b6000600260008473ffffffffffffffffffffffffffffffffffffffff1673ffffffffffffffffffffffffffffffffffffffff1681526020019081526020016000205411610224576040517f08c379a000000000000000000000000000000000000000000000000000000000815260040161021b9061107d565b60405180910390fd5b6102513330838573ffffffffffffffffffffffffffffffffffffffff16610776909392919063ffffffff16565b80600360003373ffffffffffffffffffffffffffffffffffffffff1673ffffffffffffffffffffffffffffffffffffffff16815260200190815260200160002060008473ffffffffffffffffffffffffffffffffffffffff1673ffffffffffffffffffffffffffffffffffffffff16815260200190815260200160002060008282546102dd919061109d565b925050819055506000600260008473ffffffffffffffffffffffffffffffffffffffff1673ffffffffffffffffffffffffffffffffffffffff1681526020019081526020016000205490506000600154828461033991906110f3565b610343919061117c565b905060008054906101000a900473ffffffffffffffffffffffffffffffffffffffff1673ffffffffffffffffffffffffffffffffffffffff1663dc7d5d2533836040518363ffffffff1660e01b81526004016103a09291906111bc565b600060405180830381600087803b1580156103ba57600080fd5b505af11580156103ce573d6000803e3d6000fd5b5050505050505050565b80600360003373ffffffffffffffffffffffffffffffffffffffff1673ffffffffffffffffffffffffffffffffffffffff16815260200190815260200160002060008473ffffffffffffffffffffffffffffffffffffffff1673ffffffffffffffffffffffffffffffffffffffff168152602001908152602001600020541015610497576040517f08c379a000000000000000000000000000000000000000000000000000000000815260040161048e90611231565b60405180910390fd5b6000600260008473ffffffffffffffffffffffffffffffffffffffff1673ffffffffffffffffffffffffffffffffffffffff168152602001908152602001600020549050600060015482846104ec91906110f3565b6104f6919061117c565b905060008054906101000a900473ffffffffffffffffffffffffffffffffffffffff1673ffffffffffffffffffffffffffffffffffffffff16631c6d156c33836040518363ffffffff1660e01b81526004016105539291906111bc565b600060405180830381600087803b15801561056d57600080fd5b505af1158015610581573d6000803e3d6000fd5b5050505082600360003373ffffffffffffffffffffffffffffffffffffffff1673ffffffffffffffffffffffffffffffffffffffff16815260200190815260200160002060008673ffffffffffffffffffffffffffffffffffffffff1673ffffffffffffffffffffffffffffffffffffffff16815260200190815260200160002060008282546106119190611251565b9250508190555061064333848673ffffffffffffffffffffffffffffffffffffffff166107ff9092919063ffffffff16565b50505050565b6000600360008473ffffffffffffffffffffffffffffffffffffffff1673ffffffffffffffffffffffffffffffffffffffff16815260200190815260200160002060008373ffffffffffffffffffffffffffffffffffffffff1673ffffffffffffffffffffffffffffffffffffffff16815260200190815260200160002054905092915050565b8051825114610714576040517f08c379a000000000000000000000000000000000000000000000000000000000815260040161070b90610f45565b60405180910390fd5b60005b82518110156107715761075e83828151811061073657610735610f65565b5b602002602001015183838151811061075157610750610f65565b5b60200260200101516101a2565b808061076990610fc3565b915050610717565b505050565b6107f9846323b872dd60e01b85858560405160240161079793929190611285565b604051602081830303815290604052907bffffffffffffffffffffffffffffffffffffffffffffffffffffffff19166020820180517bffffffffffffffffffffffffffffffffffffffffffffffffffffffff8381831617835250505050610885565b50505050565b6108808363a9059cbb60e01b848460405160240161081e9291906111bc565b604051602081830303815290604052907bffffffffffffffffffffffffffffffffffffffffffffffffffffffff19166020820180517bffffffffffffffffffffffffffffffffffffffffffffffffffffffff8381831617835250505050610885565b505050565b60006108e7826040518060400160405280602081526020017f5361666545524332303a206c6f772d6c6576656c2063616c6c206661696c65648152508573ffffffffffffffffffffffffffffffffffffffff1661094c9092919063ffffffff16565b9050600081511115610947578080602001905181019061090791906112f4565b610946576040517f08c379a000000000000000000000000000000000000000000000000000000000815260040161093d90611393565b60405180910390fd5b5b505050565b606061095b8484600085610964565b90509392505050565b6060824710156109a9576040517f08c379a00000000000000000000000000000000000000000000000000000000081526004016109a090611425565b60405180910390fd5b6109b285610a78565b6109f1576040517f08c379a00000000000000000000000000000000000000000000000000000000081526004016109e890611491565b60405180910390fd5b6000808673ffffffffffffffffffffffffffffffffffffffff168587604051610a1a919061152b565b60006040518083038185875af1925050503d8060008114610a57576040519150601f19603f3d011682016040523d82523d6000602084013e610a5c565b606091505b5091509150610a6c828286610a9b565b92505050949350505050565b6000808273ffffffffffffffffffffffffffffffffffffffff163b119050919050565b60608315610aab57829050610afb565b600083511115610abe5782518084602001fd5b816040517f08c379a0000000000000000000000000000000000000000000000000000000008152600401610af29190611586565b60405180910390fd5b9392505050565b6000604051905090565b600080fd5b600080fd5b600080fd5b6000601f19601f8301169050919050565b7f4e487b7100000000000000000000000000000000000000000000000000000000600052604160045260246000fd5b610b6482610b1b565b810181811067ffffffffffffffff82111715610b8357610b82610b2c565b5b80604052505050565b6000610b96610b02565b9050610ba28282610b5b565b919050565b600067ffffffffffffffff821115610bc257610bc1610b2c565b5b602082029050602081019050919050565b600080fd5b600073ffffffffffffffffffffffffffffffffffffffff82169050919050565b6000610c0382610bd8565b9050919050565b610c1381610bf8565b8114610c1e57600080fd5b50565b600081359050610c3081610c0a565b92915050565b6000610c49610c4484610ba7565b610b8c565b90508083825260208201905060208402830185811115610c6c57610c6b610bd3565b5b835b81811015610c955780610c818882610c21565b845260208401935050602081019050610c6e565b5050509392505050565b600082601f830112610cb457610cb3610b16565b5b8135610cc4848260208601610c36565b91505092915050565b600067ffffffffffffffff821115610ce857610ce7610b2c565b5b602082029050602081019050919050565b6000819050919050565b610d0c81610cf9565b8114610d1757600080fd5b50565b600081359050610d2981610d03565b92915050565b6000610d42610d3d84610ccd565b610b8c565b90508083825260208201905060208402830185811115610d6557610d64610bd3565b5b835b81811015610d8e5780610d7a8882610d1a565b845260208401935050602081019050610d67565b5050509392505050565b600082601f830112610dad57610dac610b16565b5b8135610dbd848260208601610d2f565b91505092915050565b60008060408385031215610ddd57610ddc610b0c565b5b600083013567ffffffffffffffff811115610dfb57610dfa610b11565b5b610e0785828601610c9f565b925050602083013567ffffffffffffffff811115610e2857610e27610b11565b5b610e3485828601610d98565b9150509250929050565b60008060408385031215610e5557610e54610b0c565b5b6000610e6385828601610c21565b9250506020610e7485828601610d1a565b9150509250929050565b60008060408385031215610e9557610e94610b0c565b5b6000610ea385828601610c21565b9250506020610eb485828601610c21565b9150509250929050565b610ec781610cf9565b82525050565b6000602082019050610ee26000830184610ebe565b92915050565b600082825260208201905092915050565b7f446966666572656e74206172726179206c656e67746800000000000000000000600082015250565b6000610f2f601683610ee8565b9150610f3a82610ef9565b602082019050919050565b60006020820190508181036000830152610f5e81610f22565b9050919050565b7f4e487b7100000000000000000000000000000000000000000000000000000000600052603260045260246000fd5b7f4e487b7100000000000000000000000000000000000000000000000000000000600052601160045260246000fd5b6000610fce82610cf9565b91507fffffffffffffffffffffffffffffffffffffffffffffffffffffffffffffffff820361100057610fff610f94565b5b600182019050919050565b7f546f6b656e206973206e6f74206163636570746564206173206120676f76657260008201527f6e616e6365206f6e652e00000000000000000000000000000000000000000000602082015250565b6000611067602a83610ee8565b91506110728261100b565b604082019050919050565b600060208201905081810360008301526110968161105a565b9050919050565b60006110a882610cf9565b91506110b383610cf9565b9250827fffffffffffffffffffffffffffffffffffffffffffffffffffffffffffffffff038211156110e8576110e7610f94565b5b828201905092915050565b60006110fe82610cf9565b915061110983610cf9565b9250817fffffffffffffffffffffffffffffffffffffffffffffffffffffffffffffffff048311821515161561114257611141610f94565b5b828202905092915050565b7f4e487b7100000000000000000000000000000000000000000000000000000000600052601260045260246000fd5b600061118782610cf9565b915061119283610cf9565b9250826111a2576111a161114d565b5b828204905092915050565b6111b681610bf8565b82525050565b60006040820190506111d160008301856111ad565b6111de6020830184610ebe565b9392505050565b7f547279696e6720746f20756e7374616b65206d6f7265207468616e2068617665600082015250565b600061121b602083610ee8565b9150611226826111e5565b602082019050919050565b6000602082019050818103600083015261124a8161120e565b9050919050565b600061125c82610cf9565b915061126783610cf9565b92508282101561127a57611279610f94565b5b828203905092915050565b600060608201905061129a60008301866111ad565b6112a760208301856111ad565b6112b46040830184610ebe565b949350505050565b60008115159050919050565b6112d1816112bc565b81146112dc57600080fd5b50565b6000815190506112ee816112c8565b92915050565b60006020828403121561130a57611309610b0c565b5b6000611318848285016112df565b91505092915050565b7f5361666545524332303a204552433230206f7065726174696f6e20646964206e60008201527f6f74207375636365656400000000000000000000000000000000000000000000602082015250565b600061137d602a83610ee8565b915061138882611321565b604082019050919050565b600060208201905081810360008301526113ac81611370565b9050919050565b7f416464726573733a20696e73756666696369656e742062616c616e636520666f60008201527f722063616c6c0000000000000000000000000000000000000000000000000000602082015250565b600061140f602683610ee8565b915061141a826113b3565b604082019050919050565b6000602082019050818103600083015261143e81611402565b9050919050565b7f416464726573733a2063616c6c20746f206e6f6e2d636f6e7472616374000000600082015250565b600061147b601d83610ee8565b915061148682611445565b602082019050919050565b600060208201905081810360008301526114aa8161146e565b9050919050565b600081519050919050565b600081905092915050565b60005b838110156114e55780820151818401526020810190506114ca565b838111156114f4576000848401525b50505050565b6000611505826114b1565b61150f81856114bc565b935061151f8185602086016114c7565b80840191505092915050565b600061153782846114fa565b915081905092915050565b600081519050919050565b600061155882611542565b6115628185610ee8565b93506115728185602086016114c7565b61157b81610b1b565b840191505092915050565b600060208201905081810360008301526115a0818461154d565b90509291505056fea2646970667358221220e0106e21ed085fd08cf38312187fee41e27a3be3ca7d33ae2942cd31b40a2fa264736f6c634300080f0033",
  "linkReferences": {},
  "deployedLinkReferences": {}
}