{
  "_format": "hh-sol-artifact-1",
  "contractName": "TreasuryInit",
  "sourceName": "contracts/upgradeInitializers/TreasuryInit.sol",
  "abi": [
    {
      "inputs": [
        {
          "internalType": "uint128",
          "name": "_maxDuration",
          "type": "uint128"
        },
        {
          "internalType": "uint64",
          "name": "_minimumQuorum",
          "type": "uint64"
        },
        {
          "internalType": "uint64",
          "name": "_thresholdForProposal",
          "type": "uint64"
        },
        {
          "internalType": "uint64",
          "name": "_thresholdForInitiator",
          "type": "uint64"
        },
        {
          "internalType": "uint64",
          "name": "_precision",
          "type": "uint64"
        },
        {
          "internalType": "uint256",
          "name": "_proposalDelayTime",
          "type": "uint256"
        }
      ],
      "name": "initTreasuryType0",
      "outputs": [],
      "stateMutability": "nonpayable",
      "type": "function"
    },
    {
      "inputs": [],
      "name": "initTreasuryType1",
      "outputs": [],
      "stateMutability": "nonpayable",
      "type": "function"
    }
  ],
  "bytecode": "0x608060405234801561001057600080fd5b506103f8806100206000396000f3fe608060405234801561001057600080fd5b50600436106100365760003560e01c80631605b7401461003b578063deca22d814610057575b600080fd5b61005560048036038101906100509190610306565b610061565b005b61005f6101b2565b005b600061006b6101ff565b90506000600181111561008157610080610393565b5b8160000160006101000a81548160ff021916908360018111156100a7576100a6610393565b5b0217905550868160020160006101000a8154816fffffffffffffffffffffffffffffffff02191690836fffffffffffffffffffffffffffffffff16021790555081816003018190555060006100fa61022c565b9050868160000160006101000a81548167ffffffffffffffff021916908367ffffffffffffffff160217905550858160000160086101000a81548167ffffffffffffffff021916908367ffffffffffffffff160217905550848160000160106101000a81548167ffffffffffffffff021916908367ffffffffffffffff160217905550838160000160186101000a81548167ffffffffffffffff021916908367ffffffffffffffff1602179055505050505050505050565b60006101bc6101ff565b90506001808111156101d1576101d0610393565b5b8160000160006101000a81548160ff021916908360018111156101f7576101f6610393565b5b021790555050565b6000807fd5211e15e362f5251dbdeabddfd30aa19c1d7433b35372348d9978301f444fb690508091505090565b6000806102376101ff565b90508060010191505090565b600080fd5b60006fffffffffffffffffffffffffffffffff82169050919050565b61026d81610248565b811461027857600080fd5b50565b60008135905061028a81610264565b92915050565b600067ffffffffffffffff82169050919050565b6102ad81610290565b81146102b857600080fd5b50565b6000813590506102ca816102a4565b92915050565b6000819050919050565b6102e3816102d0565b81146102ee57600080fd5b50565b600081359050610300816102da565b92915050565b60008060008060008060c0878903121561032357610322610243565b5b600061033189828a0161027b565b965050602061034289828a016102bb565b955050604061035389828a016102bb565b945050606061036489828a016102bb565b935050608061037589828a016102bb565b92505060a061038689828a016102f1565b9150509295509295509295565b7f4e487b7100000000000000000000000000000000000000000000000000000000600052602160045260246000fdfea2646970667358221220e1e3b993ea4146c20082f1c290d504c47a0c7313eeb13b606e8be9a83f0dbb5b64736f6c63430008090033",
  "linkReferences": {},
  "deployedLinkReferences": {}
}