{
  "_format": "hh-sol-artifact-1",
  "contractName": "TreasuryVotingFacet",
  "sourceName": "contracts/facets/treasury/TreasuryVotingFacet.sol",
  "abi": [
    {
      "anonymous": false,
      "inputs": [
        {
          "indexed": true,
          "internalType": "uint256",
          "name": "proposalId",
          "type": "uint256"
        },
        {
          "indexed": true,
          "internalType": "address",
          "name": "destination",
          "type": "address"
        },
        {
          "indexed": true,
          "internalType": "uint256",
          "name": "value",
          "type": "uint256"
        },
        {
          "indexed": false,
          "internalType": "bytes",
          "name": "callData",
          "type": "bytes"
        }
      ],
      "name": "TreasuryProposalAccepted",
      "type": "event"
    },
    {
      "anonymous": false,
      "inputs": [
        {
          "indexed": true,
          "internalType": "uint256",
          "name": "proposalId",
          "type": "uint256"
        },
        {
          "indexed": true,
          "internalType": "uint256",
          "name": "deadlineTimestamp",
          "type": "uint256"
        }
      ],
      "name": "TreasuryProposalCreated",
      "type": "event"
    },
    {
      "anonymous": false,
      "inputs": [
        {
          "indexed": true,
          "internalType": "uint256",
          "name": "proposalId",
          "type": "uint256"
        },
        {
          "indexed": true,
          "internalType": "address",
          "name": "destination",
          "type": "address"
        },
        {
          "indexed": true,
          "internalType": "uint256",
          "name": "value",
          "type": "uint256"
        },
        {
          "indexed": false,
          "internalType": "bytes",
          "name": "callData",
          "type": "bytes"
        }
      ],
      "name": "TreasuryProposalRejected",
      "type": "event"
    },
    {
      "inputs": [
        {
          "internalType": "uint256",
          "name": "proposalId",
          "type": "uint256"
        }
      ],
      "name": "acceptOrRejectProposal",
      "outputs": [],
      "stateMutability": "nonpayable",
      "type": "function"
    },
    {
      "inputs": [
        {
          "internalType": "uint256[]",
          "name": "proposalIds",
          "type": "uint256[]"
        }
      ],
      "name": "acceptOrRejectSeveralProposals",
      "outputs": [],
      "stateMutability": "nonpayable",
      "type": "function"
    },
    {
      "inputs": [
        {
          "internalType": "address[]",
          "name": "destinations",
          "type": "address[]"
        },
        {
          "internalType": "uint256[]",
          "name": "values",
          "type": "uint256[]"
        },
        {
          "internalType": "bytes[]",
          "name": "callDatas",
          "type": "bytes[]"
        },
        {
          "internalType": "uint128[]",
          "name": "deadlineTimestamps",
          "type": "uint128[]"
        }
      ],
      "name": "createSeveralTreasuryProposals",
      "outputs": [
        {
          "internalType": "uint256[]",
          "name": "",
          "type": "uint256[]"
        }
      ],
      "stateMutability": "nonpayable",
      "type": "function"
    },
    {
      "inputs": [
        {
          "internalType": "address",
          "name": "destination",
          "type": "address"
        },
        {
          "internalType": "uint256",
          "name": "value",
          "type": "uint256"
        },
        {
          "internalType": "bytes",
          "name": "callData",
          "type": "bytes"
        },
        {
          "internalType": "uint128",
          "name": "deadlineTimestamp",
          "type": "uint128"
        }
      ],
      "name": "createTreasuryProposal",
      "outputs": [
        {
          "internalType": "uint256",
          "name": "",
          "type": "uint256"
        }
      ],
      "stateMutability": "nonpayable",
      "type": "function"
    },
    {
      "inputs": [
        {
          "internalType": "uint256",
          "name": "proposalId",
          "type": "uint256"
        },
        {
          "internalType": "bool",
          "name": "vote",
          "type": "bool"
        }
      ],
      "name": "voteForOneTreasuryProposal",
      "outputs": [],
      "stateMutability": "nonpayable",
      "type": "function"
    },
    {
      "inputs": [
        {
          "internalType": "uint256[]",
          "name": "proposalsIds",
          "type": "uint256[]"
        },
        {
          "internalType": "bool[]",
          "name": "votes",
          "type": "bool[]"
        }
      ],
      "name": "voteForSeveralTreasuryProposals",
      "outputs": [],
      "stateMutability": "nonpayable",
      "type": "function"
    }
  ],
  "bytecode": "0x608060405234801561001057600080fd5b506126ef806100206000396000f3fe608060405234801561001057600080fd5b50600436106100625760003560e01c806358b2f4a31461006757806372048c801461009757806373414cc9146100b357806383f95b4e146100e35780639814bbb8146100ff578063a8530b321461011b575b600080fd5b610081600480360381019061007c91906116d3565b610137565b60405161008e9190611884565b60405180910390f35b6100b160048036038101906100ac91906118fc565b6102d6565b005b6100cd60048036038101906100c89190611aa5565b610390565b6040516100da9190611b3c565b60405180910390f35b6100fd60048036038101906100f89190611b57565b610685565b005b61011960048036038101906101149190611bbc565b610a3c565b005b61013560048036038101906101309190611bfc565b610bd8565b005b60606000898990509050808888905014801561015557508086869050145b801561016357508084849050145b6101a2576040517f08c379a000000000000000000000000000000000000000000000000000000000815260040161019990611ca6565b60405180910390fd5b60008167ffffffffffffffff8111156101be576101bd611cc6565b5b6040519080825280602002602001820160405280156101ec5781602001602082028036833780820191505090505b50905060005b81518110156102c4576102928c8c8381811061021157610210611cf5565b5b90506020020160208101906102269190611d24565b8b8b8481811061023957610238611cf5565b5b905060200201358a8a8581811061025357610252611cf5565b5b90506020028101906102659190611d60565b8a8a8781811061027857610277611cf5565b5b905060200201602081019061028d9190611dc3565b610390565b8282815181106102a5576102a4611cf5565b5b60200260200101818152505080806102bc90611e1f565b9150506101f2565b50809250505098975050505050505050565b81819050848490501461031e576040517f08c379a000000000000000000000000000000000000000000000000000000000815260040161031590611ca6565b60405180910390fd5b60005b848490508110156103895761037685858381811061034257610341611cf5565b5b9050602002013584848481811061035c5761035b611cf5565b5b90506020020160208101906103719190611e68565b610a3c565b808061038190611e1f565b915050610321565b5050505050565b600061039a610c20565b6103d9576040517f08c379a00000000000000000000000000000000000000000000000000000000081526004016103d090611ee1565b60405180910390fd5b6103e233610d1f565b610421576040517f08c379a000000000000000000000000000000000000000000000000000000000815260040161041890611f73565b60405180910390fd5b6000848460009060049261043793929190611f9d565b90610442919061201c565b905061044e8782610dad565b6000610458610ede565b9050600061046582611000565b9050888160000160016101000a81548173ffffffffffffffffffffffffffffffffffffffff021916908373ffffffffffffffffffffffffffffffffffffffff16021790555087816001018190555086868260020191906104c692919061147f565b50426104d061102a565b6104da919061207b565b816004018190555060006104ed83611042565b905060018160000160006101000a81548160ff021916908315150217905550600061051661106c565b905060006fffffffffffffffffffffffffffffffff16876fffffffffffffffffffffffffffffffff1614806105795750804261055291906120d1565b6fffffffffffffffffffffffffffffffff16876fffffffffffffffffffffffffffffffff16115b156105a95742816fffffffffffffffffffffffffffffffff1661059c919061207b565b82600201819055506105c5565b866fffffffffffffffffffffffffffffffff1682600201819055505b60018260010160003373ffffffffffffffffffffffffffffffffffffffff1673ffffffffffffffffffffffffffffffffffffffff16815260200190815260200160002060006101000a81548160ff021916908315150217905550610628336110a0565b82600301600082825461063b919061207b565b925050819055508160020154847f6b4b73e0b077383072cfc884c2068f6aeac3e2bb538a7b0b0055c5f9a49d40ee60405160405180910390a3839550505050505095945050505050565b600061069082611042565b9050600061069d83611000565b90508060000160009054906101000a900460ff16156106f1576040517f08c379a00000000000000000000000000000000000000000000000000000000081526004016106e890612163565b60405180910390fd5b8160000160009054906101000a900460ff16610742576040517f08c379a0000000000000000000000000000000000000000000000000000000008152600401610739906121cf565b60405180910390fd5b8160040154826003015411156108da5761075f82600301546110f7565b156108275760008260000160006101000a81548160ff02191690831515021790555060018160000160006101000a81548160ff0219169083151502179055506107a783611177565b80600101548160000160019054906101000a900473ffffffffffffffffffffffffffffffffffffffff1673ffffffffffffffffffffffffffffffffffffffff16847f518c2f37a2b5245988c48330e04bc1ecd65c4f22f02060b7d7f544b788400eb88460020160405161081a91906122f6565b60405180910390a46108d5565b428260020154116108cd5761083b83611177565b6108448361132a565b80600101548160000160019054906101000a900473ffffffffffffffffffffffffffffffffffffffff1673ffffffffffffffffffffffffffffffffffffffff16847f722e44c052fa4cc3379c633d227f3024de1885091fd2f0df331b1e927e2c0932846002016040516108b791906122f6565b60405180910390a46108c883611367565b6108d4565b5050610a39565b5b610a36565b6108e782600401546110f7565b15610987576108f58361132a565b6108fe83611177565b80600101548160000160019054906101000a900473ffffffffffffffffffffffffffffffffffffffff1673ffffffffffffffffffffffffffffffffffffffff16847f722e44c052fa4cc3379c633d227f3024de1885091fd2f0df331b1e927e2c09328460020160405161097191906122f6565b60405180910390a461098283611367565b610a35565b42826002015411610a2d5761099b8361132a565b6109a483611177565b80600101548160000160019054906101000a900473ffffffffffffffffffffffffffffffffffffffff1673ffffffffffffffffffffffffffffffffffffffff16847f722e44c052fa4cc3379c633d227f3024de1885091fd2f0df331b1e927e2c093284600201604051610a1791906122f6565b60405180910390a4610a2883611367565b610a34565b5050610a39565b5b5b50505b50565b6000610a4783611042565b90508060000160009054906101000a900460ff16610a9a576040517f08c379a0000000000000000000000000000000000000000000000000000000008152600401610a9190612364565b60405180910390fd5b8060010160003373ffffffffffffffffffffffffffffffffffffffff1673ffffffffffffffffffffffffffffffffffffffff16815260200190815260200160002060009054906101000a900460ff1615610b29576040517f08c379a0000000000000000000000000000000000000000000000000000000008152600401610b20906123d0565b60405180910390fd5b6000610b34336110a0565b905060018260010160003373ffffffffffffffffffffffffffffffffffffffff1673ffffffffffffffffffffffffffffffffffffffff16815260200190815260200160002060006101000a81548160ff0219169083151502179055508215610bb65780826003016000828254610baa919061207b565b92505081905550610bd2565b80826004016000828254610bca919061207b565b925050819055505b50505050565b60005b82829050811015610c1b57610c08838383818110610bfc57610bfb611cf5565b5b90506020020135610685565b8080610c1390611e1f565b915050610bdb565b505050565b600080610c2b6113df565b9050600073__$ac80b70655973129101145d998fccce3e8$__63200cd9cc6040518163ffffffff1660e01b815260040160206040518083038186803b158015610c7357600080fd5b505af4158015610c87573d6000803e3d6000fd5b505050506040513d601f19601f82011682018060405250810190610cab9190612405565b90506000610cb76113f6565b9050808360000160189054906101000a900467ffffffffffffffff1667ffffffffffffffff16838560000160009054906101000a900467ffffffffffffffff1667ffffffffffffffff16610d0b9190612432565b610d1591906124bb565b1115935050505090565b600080610d2a6113df565b90506000610d37846110a0565b90506000610d436113f6565b90508260000160189054906101000a900467ffffffffffffffff1667ffffffffffffffff16818460000160109054906101000a900467ffffffffffffffff1667ffffffffffffffff16610d969190612432565b610da091906124bb565b8210159350505050919050565b3073ffffffffffffffffffffffffffffffffffffffff168273ffffffffffffffffffffffffffffffffffffffff161415610eda5763a9059cbb60e01b817bffffffffffffffffffffffffffffffffffffffffffffffffffffffff19161480610e3a575063095ea7b360e01b817bffffffffffffffffffffffffffffffffffffffffffffffffffffffff1916145b80610e6a5750633950935160e01b817bffffffffffffffffffffffffffffffffffffffffffffffffffffffff1916145b80610e9a575063a457c2d760e01b817bffffffffffffffffffffffffffffffffffffffffffffffffffffffff1916145b610ed9576040517f08c379a0000000000000000000000000000000000000000000000000000000008152600401610ed09061255e565b60405180910390fd5b5b5050565b600080610ee961140e565b905060c8816004018054905010610f35576040517f08c379a0000000000000000000000000000000000000000000000000000000008152600401610f2c906125ca565b60405180910390fd5b60018160020160109054906101000a90046fffffffffffffffffffffffffffffffff16610f6291906120d1565b8160020160106101000a8154816fffffffffffffffffffffffffffffffff02191690836fffffffffffffffffffffffffffffffff1602179055508060020160109054906101000a90046fffffffffffffffffffffffffffffffff166fffffffffffffffffffffffffffffffff169150806004018290806001815401808255809150506001900390600052602060002001600090919091909150555090565b60008061100b61140e565b9050806005016000848152602001908152602001600020915050919050565b60008061103561140e565b9050806003015491505090565b60008061104d61140e565b9050806006016000848152602001908152602001600020915050919050565b60008061107761140e565b90508060020160009054906101000a90046fffffffffffffffffffffffffffffffff1691505090565b6000806110ab61143b565b90508060010160008473ffffffffffffffffffffffffffffffffffffffff1673ffffffffffffffffffffffffffffffffffffffff16815260200190815260200160002054915050919050565b6000806111026113df565b9050600061110e6113f6565b90508160000160189054906101000a900467ffffffffffffffff1667ffffffffffffffff16818360000160089054906101000a900467ffffffffffffffff1667ffffffffffffffff166111619190612432565b61116b91906124bb565b84101592505050919050565b6000611181611468565b905060008180549050116111ca576040517f08c379a00000000000000000000000000000000000000000000000000000000081526004016111c190612636565b60405180910390fd5b8181600183805490506111dd9190612656565b815481106111ee576111ed611cf5565b5b9060005260206000200154141561122b57808054806112105761120f61268a565b5b60019003818190600052602060002001600090559055611326565b600080600090505b828054905081101561127b578383828154811061125357611252611cf5565b5b90600052602060002001541415611268578091505b808061127390611e1f565b915050611233565b50816001838054905061128e9190612656565b8154811061129f5761129e611cf5565b5b90600052602060002001548282815481106112bd576112bc611cf5565b5b90600052602060002001819055508282600184805490506112de9190612656565b815481106112ef576112ee611cf5565b5b90600052602060002001819055508180548061130e5761130d61268a565b5b60019003818190600052602060002001600090559055505b5050565b600061133582611042565b90508060000160006101000a81549060ff02191690558060020160009055806003016000905580600401600090555050565b600061137282611000565b90508060000160006101000a81549060ff02191690558060000160016101000a81549073ffffffffffffffffffffffffffffffffffffffff021916905580600101600090558060020160006113c79190611505565b8060030160006101000a81549060ff02191690555050565b6000806113ea61140e565b90508060010191505090565b60008061140161143b565b9050806002015491505090565b6000807fd5211e15e362f5251dbdeabddfd30aa19c1d7433b35372348d9978301f444fb690508091505090565b6000807f534276485ab019670afde26394d87b7e6a7f0dab7b16287011cc6ad8ed0d94f690508091505090565b60008061147361140e565b90508060040191505090565b82805461148b9061221e565b90600052602060002090601f0160209004810192826114ad57600085556114f4565b82601f106114c657803560ff19168380011785556114f4565b828001600101855582156114f4579182015b828111156114f35782358255916020019190600101906114d8565b5b5090506115019190611545565b5090565b5080546115119061221e565b6000825580601f106115235750611542565b601f0160209004906000526020600020908101906115419190611545565b5b50565b5b8082111561155e576000816000905550600101611546565b5090565b600080fd5b600080fd5b600080fd5b600080fd5b600080fd5b60008083601f8401126115915761159061156c565b5b8235905067ffffffffffffffff8111156115ae576115ad611571565b5b6020830191508360208202830111156115ca576115c9611576565b5b9250929050565b60008083601f8401126115e7576115e661156c565b5b8235905067ffffffffffffffff81111561160457611603611571565b5b6020830191508360208202830111156116205761161f611576565b5b9250929050565b60008083601f84011261163d5761163c61156c565b5b8235905067ffffffffffffffff81111561165a57611659611571565b5b60208301915083602082028301111561167657611675611576565b5b9250929050565b60008083601f8401126116935761169261156c565b5b8235905067ffffffffffffffff8111156116b0576116af611571565b5b6020830191508360208202830111156116cc576116cb611576565b5b9250929050565b6000806000806000806000806080898b0312156116f3576116f2611562565b5b600089013567ffffffffffffffff81111561171157611710611567565b5b61171d8b828c0161157b565b9850985050602089013567ffffffffffffffff8111156117405761173f611567565b5b61174c8b828c016115d1565b9650965050604089013567ffffffffffffffff81111561176f5761176e611567565b5b61177b8b828c01611627565b9450945050606089013567ffffffffffffffff81111561179e5761179d611567565b5b6117aa8b828c0161167d565b92509250509295985092959890939650565b600081519050919050565b600082825260208201905092915050565b6000819050602082019050919050565b6000819050919050565b6117fb816117e8565b82525050565b600061180d83836117f2565b60208301905092915050565b6000602082019050919050565b6000611831826117bc565b61183b81856117c7565b9350611846836117d8565b8060005b8381101561187757815161185e8882611801565b975061186983611819565b92505060018101905061184a565b5085935050505092915050565b6000602082019050818103600083015261189e8184611826565b905092915050565b60008083601f8401126118bc576118bb61156c565b5b8235905067ffffffffffffffff8111156118d9576118d8611571565b5b6020830191508360208202830111156118f5576118f4611576565b5b9250929050565b6000806000806040858703121561191657611915611562565b5b600085013567ffffffffffffffff81111561193457611933611567565b5b611940878288016115d1565b9450945050602085013567ffffffffffffffff81111561196357611962611567565b5b61196f878288016118a6565b925092505092959194509250565b600073ffffffffffffffffffffffffffffffffffffffff82169050919050565b60006119a88261197d565b9050919050565b6119b88161199d565b81146119c357600080fd5b50565b6000813590506119d5816119af565b92915050565b6119e4816117e8565b81146119ef57600080fd5b50565b600081359050611a01816119db565b92915050565b60008083601f840112611a1d57611a1c61156c565b5b8235905067ffffffffffffffff811115611a3a57611a39611571565b5b602083019150836001820283011115611a5657611a55611576565b5b9250929050565b60006fffffffffffffffffffffffffffffffff82169050919050565b611a8281611a5d565b8114611a8d57600080fd5b50565b600081359050611a9f81611a79565b92915050565b600080600080600060808688031215611ac157611ac0611562565b5b6000611acf888289016119c6565b9550506020611ae0888289016119f2565b945050604086013567ffffffffffffffff811115611b0157611b00611567565b5b611b0d88828901611a07565b93509350506060611b2088828901611a90565b9150509295509295909350565b611b36816117e8565b82525050565b6000602082019050611b516000830184611b2d565b92915050565b600060208284031215611b6d57611b6c611562565b5b6000611b7b848285016119f2565b91505092915050565b60008115159050919050565b611b9981611b84565b8114611ba457600080fd5b50565b600081359050611bb681611b90565b92915050565b60008060408385031215611bd357611bd2611562565b5b6000611be1858286016119f2565b9250506020611bf285828601611ba7565b9150509250929050565b60008060208385031215611c1357611c12611562565b5b600083013567ffffffffffffffff811115611c3157611c30611567565b5b611c3d858286016115d1565b92509250509250929050565b600082825260208201905092915050565b7f446966666572656e74206172726179206c656e67746800000000000000000000600082015250565b6000611c90601683611c49565b9150611c9b82611c5a565b602082019050919050565b60006020820190508181036000830152611cbf81611c83565b9050919050565b7f4e487b7100000000000000000000000000000000000000000000000000000000600052604160045260246000fd5b7f4e487b7100000000000000000000000000000000000000000000000000000000600052603260045260246000fd5b600060208284031215611d3a57611d39611562565b5b6000611d48848285016119c6565b91505092915050565b600080fd5b600080fd5b600080fd5b60008083356001602003843603038112611d7d57611d7c611d51565b5b80840192508235915067ffffffffffffffff821115611d9f57611d9e611d56565b5b602083019250600182023603831315611dbb57611dba611d5b565b5b509250929050565b600060208284031215611dd957611dd8611562565b5b6000611de784828501611a90565b91505092915050565b7f4e487b7100000000000000000000000000000000000000000000000000000000600052601160045260246000fd5b6000611e2a826117e8565b91507fffffffffffffffffffffffffffffffffffffffffffffffffffffffffffffffff821415611e5d57611e5c611df0565b5b600182019050919050565b600060208284031215611e7e57611e7d611562565b5b6000611e8c84828501611ba7565b91505092915050565b7f5468657265206973206e6f2071756f72756d207965742e000000000000000000600082015250565b6000611ecb601783611c49565b9150611ed682611e95565b602082019050919050565b60006020820190508181036000830152611efa81611ebe565b9050919050565b7f4e6f7420656e6f75676820766f74696e6720706f77657220746f20637265617460008201527f652070726f706f73616c2e000000000000000000000000000000000000000000602082015250565b6000611f5d602b83611c49565b9150611f6882611f01565b604082019050919050565b60006020820190508181036000830152611f8c81611f50565b9050919050565b600080fd5b600080fd5b60008085851115611fb157611fb0611f93565b5b83861115611fc257611fc1611f98565b5b6001850283019150848603905094509492505050565b600082905092915050565b60007fffffffff0000000000000000000000000000000000000000000000000000000082169050919050565b600082821b905092915050565b60006120288383611fd8565b826120338135611fe3565b925060048210156120735761206e7fffffffff000000000000000000000000000000000000000000000000000000008360040360080261200f565b831692505b505092915050565b6000612086826117e8565b9150612091836117e8565b9250827fffffffffffffffffffffffffffffffffffffffffffffffffffffffffffffffff038211156120c6576120c5611df0565b5b828201905092915050565b60006120dc82611a5d565b91506120e783611a5d565b9250826fffffffffffffffffffffffffffffffff0382111561210c5761210b611df0565b5b828201905092915050565b7f50726f706f73616c20697320616c726561647920616363657074656400000000600082015250565b600061214d601c83611c49565b915061215882612117565b602082019050919050565b6000602082019050818103600083015261217c81612140565b9050919050565b7f4e6f20766f74696e672e00000000000000000000000000000000000000000000600082015250565b60006121b9600a83611c49565b91506121c482612183565b602082019050919050565b600060208201905081810360008301526121e8816121ac565b9050919050565b7f4e487b7100000000000000000000000000000000000000000000000000000000600052602260045260246000fd5b6000600282049050600182168061223657607f821691505b6020821081141561224a576122496121ef565b5b50919050565b600082825260208201905092915050565b60008190508160005260206000209050919050565b600081546122838161221e565b61228d8186612250565b945060018216600081146122a857600181146122ba576122ed565b60ff19831686526020860193506122ed565b6122c385612261565b60005b838110156122e5578154818901526001820191506020810190506122c6565b808801955050505b50505092915050565b600060208201905081810360008301526123108184612276565b905092915050565b7f4e6f20766f74696e6720726e2e00000000000000000000000000000000000000600082015250565b600061234e600d83611c49565b915061235982612318565b602082019050919050565b6000602082019050818103600083015261237d81612341565b9050919050565b7f416c726561647920766f7465642e000000000000000000000000000000000000600082015250565b60006123ba600e83611c49565b91506123c582612384565b602082019050919050565b600060208201905081810360008301526123e9816123ad565b9050919050565b6000815190506123ff816119db565b92915050565b60006020828403121561241b5761241a611562565b5b6000612429848285016123f0565b91505092915050565b600061243d826117e8565b9150612448836117e8565b9250817fffffffffffffffffffffffffffffffffffffffffffffffffffffffffffffffff048311821515161561248157612480611df0565b5b828202905092915050565b7f4e487b7100000000000000000000000000000000000000000000000000000000600052601260045260246000fd5b60006124c6826117e8565b91506124d1836117e8565b9250826124e1576124e061248c565b5b828204905092915050565b7f54726561737572792070726f706f73616c73206172652072656c61746564206f60008201527f6e6c7920746f20676f7665726e616e636520746f6b656e2e0000000000000000602082015250565b6000612548603883611c49565b9150612553826124ec565b604082019050919050565b600060208201905081810360008301526125778161253b565b9050919050565b7f4e6f206d6f72652070726f706f73616c7320706c730000000000000000000000600082015250565b60006125b4601583611c49565b91506125bf8261257e565b602082019050919050565b600060208201905081810360008301526125e3816125a7565b9050919050565b7f4e6f206163746976652070726f706f73616c732e000000000000000000000000600082015250565b6000612620601483611c49565b915061262b826125ea565b602082019050919050565b6000602082019050818103600083015261264f81612613565b9050919050565b6000612661826117e8565b915061266c836117e8565b92508282101561267f5761267e611df0565b5b828203905092915050565b7f4e487b7100000000000000000000000000000000000000000000000000000000600052603160045260246000fdfea264697066735822122037b016b84ebfd4992a21dae00ffa67a6037676fdc2661c9f99be69c066c9543464736f6c63430008090033",
  "linkReferences": {
    "contracts/libraries/LibVotingPower.sol": {
      "LibVotingPower": [
        {
          "length": 20,
          "start": 3153
        }
      ]
    }
  },
  "deployedLinkReferences": {
    "contracts/libraries/LibVotingPower.sol": {
      "LibVotingPower": [
        {
          "length": 20,
          "start": 3121
        }
      ]
    }
  }
}