{
  "_format": "hh-sol-artifact-1",
  "contractName": "TreasuryVotingFacet",
  "sourceName": "contracts/facets/treasury/TreasuryVotingFacet.sol",
  "abi": [
    {
      "anonymous": false,
      "inputs": [
        {
          "indexed": true,
          "internalType": "uint256",
          "name": "proposalId",
          "type": "uint256"
        },
        {
          "indexed": true,
          "internalType": "address",
          "name": "destination",
          "type": "address"
        },
        {
          "indexed": true,
          "internalType": "uint256",
          "name": "value",
          "type": "uint256"
        },
        {
          "indexed": false,
          "internalType": "bytes",
          "name": "callData",
          "type": "bytes"
        }
      ],
      "name": "TreasuryProposalAccepted",
      "type": "event"
    },
    {
      "anonymous": false,
      "inputs": [
        {
          "indexed": true,
          "internalType": "uint256",
          "name": "proposalId",
          "type": "uint256"
        },
        {
          "indexed": true,
          "internalType": "uint256",
          "name": "deadlineTimestamp",
          "type": "uint256"
        }
      ],
      "name": "TreasuryProposalCreated",
      "type": "event"
    },
    {
      "anonymous": false,
      "inputs": [
        {
          "indexed": true,
          "internalType": "uint256",
          "name": "proposalId",
          "type": "uint256"
        },
        {
          "indexed": true,
          "internalType": "address",
          "name": "destination",
          "type": "address"
        },
        {
          "indexed": true,
          "internalType": "uint256",
          "name": "value",
          "type": "uint256"
        },
        {
          "indexed": false,
          "internalType": "bytes",
          "name": "callData",
          "type": "bytes"
        }
      ],
      "name": "TreasuryProposalRejected",
      "type": "event"
    },
    {
      "inputs": [
        {
          "internalType": "uint256",
          "name": "proposalId",
          "type": "uint256"
        }
      ],
      "name": "acceptOrRejectProposal",
      "outputs": [],
      "stateMutability": "nonpayable",
      "type": "function"
    },
    {
      "inputs": [
        {
          "internalType": "uint256[]",
          "name": "proposalIds",
          "type": "uint256[]"
        }
      ],
      "name": "acceptOrRejectSeveralProposals",
      "outputs": [],
      "stateMutability": "nonpayable",
      "type": "function"
    },
    {
      "inputs": [
        {
          "internalType": "address[]",
          "name": "destinations",
          "type": "address[]"
        },
        {
          "internalType": "uint256[]",
          "name": "values",
          "type": "uint256[]"
        },
        {
          "internalType": "bytes[]",
          "name": "callDatas",
          "type": "bytes[]"
        },
        {
          "internalType": "uint128[]",
          "name": "deadlineTimestamps",
          "type": "uint128[]"
        }
      ],
      "name": "createSeveralTreasuryProposals",
      "outputs": [
        {
          "internalType": "uint256[]",
          "name": "",
          "type": "uint256[]"
        }
      ],
      "stateMutability": "nonpayable",
      "type": "function"
    },
    {
      "inputs": [
        {
          "internalType": "address",
          "name": "destination",
          "type": "address"
        },
        {
          "internalType": "uint256",
          "name": "value",
          "type": "uint256"
        },
        {
          "internalType": "bytes",
          "name": "callData",
          "type": "bytes"
        },
        {
          "internalType": "uint128",
          "name": "deadlineTimestamp",
          "type": "uint128"
        }
      ],
      "name": "createTreasuryProposal",
      "outputs": [
        {
          "internalType": "uint256",
          "name": "",
          "type": "uint256"
        }
      ],
      "stateMutability": "nonpayable",
      "type": "function"
    },
    {
      "inputs": [
        {
          "internalType": "uint256",
          "name": "proposalId",
          "type": "uint256"
        },
        {
          "internalType": "bool",
          "name": "vote",
          "type": "bool"
        }
      ],
      "name": "voteForOneTreasuryProposal",
      "outputs": [],
      "stateMutability": "nonpayable",
      "type": "function"
    },
    {
      "inputs": [
        {
          "internalType": "uint256[]",
          "name": "proposalsIds",
          "type": "uint256[]"
        },
        {
          "internalType": "bool[]",
          "name": "votes",
          "type": "bool[]"
        }
      ],
      "name": "voteForSeveralTreasuryProposals",
      "outputs": [],
      "stateMutability": "nonpayable",
      "type": "function"
    }
  ],
  "bytecode": "0x608060405234801561001057600080fd5b506128b3806100206000396000f3fe608060405234801561001057600080fd5b50600436106100625760003560e01c806358b2f4a31461006757806372048c801461009757806373414cc9146100b357806383f95b4e146100e35780639814bbb8146100ff578063a8530b321461011b575b600080fd5b610081600480360381019061007c919061163b565b610137565b60405161008e91906117ec565b60405180910390f35b6100b160048036038101906100ac9190611864565b6102d6565b005b6100cd60048036038101906100c89190611a0d565b610390565b6040516100da9190611aa4565b60405180910390f35b6100fd60048036038101906100f89190611abf565b610685565b005b61011960048036038101906101149190611b24565b610a3c565b005b61013560048036038101906101309190611b64565b610bd8565b005b60606000898990509050808888905014801561015557508086869050145b801561016357508084849050145b6101a2576040517f08c379a000000000000000000000000000000000000000000000000000000000815260040161019990611c0e565b60405180910390fd5b60008167ffffffffffffffff8111156101be576101bd611c2e565b5b6040519080825280602002602001820160405280156101ec5781602001602082028036833780820191505090505b50905060005b81518110156102c4576102928c8c8381811061021157610210611c5d565b5b90506020020160208101906102269190611c8c565b8b8b8481811061023957610238611c5d565b5b905060200201358a8a8581811061025357610252611c5d565b5b90506020028101906102659190611cc8565b8a8a8781811061027857610277611c5d565b5b905060200201602081019061028d9190611d2b565b610390565b8282815181106102a5576102a4611c5d565b5b60200260200101818152505080806102bc90611d87565b9150506101f2565b50809250505098975050505050505050565b81819050848490501461031e576040517f08c379a000000000000000000000000000000000000000000000000000000000815260040161031590611c0e565b60405180910390fd5b60005b848490508110156103895761037685858381811061034257610341611c5d565b5b9050602002013584848481811061035c5761035b611c5d565b5b90506020020160208101906103719190611dcf565b610a3c565b808061038190611d87565b915050610321565b5050505050565b600061039a610c20565b6103d9576040517f08c379a00000000000000000000000000000000000000000000000000000000081526004016103d090611e48565b60405180910390fd5b6103e233610d10565b610421576040517f08c379a000000000000000000000000000000000000000000000000000000000815260040161041890611eda565b60405180910390fd5b6000848460009060049261043793929190611f04565b906104429190611f83565b905061044e8782610d9e565b6000610458610ece565b9050600061046582610ff0565b9050888160000160016101000a81548173ffffffffffffffffffffffffffffffffffffffff021916908373ffffffffffffffffffffffffffffffffffffffff16021790555087816001018190555086868260020191826104c69291906121e1565b50426104d061101a565b6104da91906122b1565b816004018190555060006104ed83611032565b905060018160000160006101000a81548160ff021916908315150217905550600061051661105c565b905060006fffffffffffffffffffffffffffffffff16876fffffffffffffffffffffffffffffffff161480610579575080426105529190612307565b6fffffffffffffffffffffffffffffffff16876fffffffffffffffffffffffffffffffff16115b156105a95742816fffffffffffffffffffffffffffffffff1661059c91906122b1565b82600201819055506105c5565b866fffffffffffffffffffffffffffffffff1682600201819055505b60018260010160003373ffffffffffffffffffffffffffffffffffffffff1673ffffffffffffffffffffffffffffffffffffffff16815260200190815260200160002060006101000a81548160ff02191690831515021790555061062833611090565b82600301600082825461063b91906122b1565b925050819055508160020154847f6b4b73e0b077383072cfc884c2068f6aeac3e2bb538a7b0b0055c5f9a49d40ee60405160405180910390a3839550505050505095945050505050565b600061069082611032565b9050600061069d83610ff0565b90508060000160009054906101000a900460ff16156106f1576040517f08c379a00000000000000000000000000000000000000000000000000000000081526004016106e890612399565b60405180910390fd5b8160000160009054906101000a900460ff16610742576040517f08c379a000000000000000000000000000000000000000000000000000000000815260040161073990612405565b60405180910390fd5b8160040154826003015411156108da5761075f82600301546110e7565b156108275760008260000160006101000a81548160ff02191690831515021790555060018160000160006101000a81548160ff0219169083151502179055506107a783611167565b80600101548160000160019054906101000a900473ffffffffffffffffffffffffffffffffffffffff1673ffffffffffffffffffffffffffffffffffffffff16847f518c2f37a2b5245988c48330e04bc1ecd65c4f22f02060b7d7f544b788400eb88460020160405161081a91906124ba565b60405180910390a46108d5565b428260020154116108cd5761083b83611167565b61084483611318565b80600101548160000160019054906101000a900473ffffffffffffffffffffffffffffffffffffffff1673ffffffffffffffffffffffffffffffffffffffff16847f722e44c052fa4cc3379c633d227f3024de1885091fd2f0df331b1e927e2c0932846002016040516108b791906124ba565b60405180910390a46108c883611355565b6108d4565b5050610a39565b5b610a36565b6108e782600401546110e7565b15610987576108f583611318565b6108fe83611167565b80600101548160000160019054906101000a900473ffffffffffffffffffffffffffffffffffffffff1673ffffffffffffffffffffffffffffffffffffffff16847f722e44c052fa4cc3379c633d227f3024de1885091fd2f0df331b1e927e2c09328460020160405161097191906124ba565b60405180910390a461098283611355565b610a35565b42826002015411610a2d5761099b83611318565b6109a483611167565b80600101548160000160019054906101000a900473ffffffffffffffffffffffffffffffffffffffff1673ffffffffffffffffffffffffffffffffffffffff16847f722e44c052fa4cc3379c633d227f3024de1885091fd2f0df331b1e927e2c093284600201604051610a1791906124ba565b60405180910390a4610a2883611355565b610a34565b5050610a39565b5b5b50505b50565b6000610a4783611032565b90508060000160009054906101000a900460ff16610a9a576040517f08c379a0000000000000000000000000000000000000000000000000000000008152600401610a9190612528565b60405180910390fd5b8060010160003373ffffffffffffffffffffffffffffffffffffffff1673ffffffffffffffffffffffffffffffffffffffff16815260200190815260200160002060009054906101000a900460ff1615610b29576040517f08c379a0000000000000000000000000000000000000000000000000000000008152600401610b2090612594565b60405180910390fd5b6000610b3433611090565b905060018260010160003373ffffffffffffffffffffffffffffffffffffffff1673ffffffffffffffffffffffffffffffffffffffff16815260200190815260200160002060006101000a81548160ff0219169083151502179055508215610bb65780826003016000828254610baa91906122b1565b92505081905550610bd2565b80826004016000828254610bca91906122b1565b925050819055505b50505050565b60005b82829050811015610c1b57610c08838383818110610bfc57610bfb611c5d565b5b90506020020135610685565b8080610c1390611d87565b915050610bdb565b505050565b600080610c2b6113cd565b9050600073__$ac80b70655973129101145d998fccce3e8$__63200cd9cc6040518163ffffffff1660e01b8152600401602060405180830381865af4158015610c78573d6000803e3d6000fd5b505050506040513d601f19601f82011682018060405250810190610c9c91906125c9565b90506000610ca86113e4565b9050808360000160189054906101000a900467ffffffffffffffff1667ffffffffffffffff16838560000160009054906101000a900467ffffffffffffffff1667ffffffffffffffff16610cfc91906125f6565b610d06919061267f565b1115935050505090565b600080610d1b6113cd565b90506000610d2884611090565b90506000610d346113e4565b90508260000160189054906101000a900467ffffffffffffffff1667ffffffffffffffff16818460000160109054906101000a900467ffffffffffffffff1667ffffffffffffffff16610d8791906125f6565b610d91919061267f565b8210159350505050919050565b3073ffffffffffffffffffffffffffffffffffffffff168273ffffffffffffffffffffffffffffffffffffffff1603610eca5763a9059cbb60e01b817bffffffffffffffffffffffffffffffffffffffffffffffffffffffff19161480610e2a575063095ea7b360e01b817bffffffffffffffffffffffffffffffffffffffffffffffffffffffff1916145b80610e5a5750633950935160e01b817bffffffffffffffffffffffffffffffffffffffffffffffffffffffff1916145b80610e8a575063a457c2d760e01b817bffffffffffffffffffffffffffffffffffffffffffffffffffffffff1916145b610ec9576040517f08c379a0000000000000000000000000000000000000000000000000000000008152600401610ec090612722565b60405180910390fd5b5b5050565b600080610ed96113fc565b905060c8816004018054905010610f25576040517f08c379a0000000000000000000000000000000000000000000000000000000008152600401610f1c9061278e565b60405180910390fd5b60018160020160109054906101000a90046fffffffffffffffffffffffffffffffff16610f529190612307565b8160020160106101000a8154816fffffffffffffffffffffffffffffffff02191690836fffffffffffffffffffffffffffffffff1602179055508060020160109054906101000a90046fffffffffffffffffffffffffffffffff166fffffffffffffffffffffffffffffffff169150806004018290806001815401808255809150506001900390600052602060002001600090919091909150555090565b600080610ffb6113fc565b9050806005016000848152602001908152602001600020915050919050565b6000806110256113fc565b9050806003015491505090565b60008061103d6113fc565b9050806006016000848152602001908152602001600020915050919050565b6000806110676113fc565b90508060020160009054906101000a90046fffffffffffffffffffffffffffffffff1691505090565b60008061109b611429565b90508060010160008473ffffffffffffffffffffffffffffffffffffffff1673ffffffffffffffffffffffffffffffffffffffff16815260200190815260200160002054915050919050565b6000806110f26113cd565b905060006110fe6113e4565b90508160000160189054906101000a900467ffffffffffffffff1667ffffffffffffffff16818360000160089054906101000a900467ffffffffffffffff1667ffffffffffffffff1661115191906125f6565b61115b919061267f565b84101592505050919050565b6000611171611456565b905060008180549050116111ba576040517f08c379a00000000000000000000000000000000000000000000000000000000081526004016111b1906127fa565b60405180910390fd5b8181600183805490506111cd919061281a565b815481106111de576111dd611c5d565b5b90600052602060002001540361121a57808054806111ff576111fe61284e565b5b60019003818190600052602060002001600090559055611314565b600080600090505b8280549050811015611269578383828154811061124257611241611c5d565b5b906000526020600020015403611256578091505b808061126190611d87565b915050611222565b50816001838054905061127c919061281a565b8154811061128d5761128c611c5d565b5b90600052602060002001548282815481106112ab576112aa611c5d565b5b90600052602060002001819055508282600184805490506112cc919061281a565b815481106112dd576112dc611c5d565b5b9060005260206000200181905550818054806112fc576112fb61284e565b5b60019003818190600052602060002001600090559055505b5050565b600061132382611032565b90508060000160006101000a81549060ff02191690558060020160009055806003016000905580600401600090555050565b600061136082610ff0565b90508060000160006101000a81549060ff02191690558060000160016101000a81549073ffffffffffffffffffffffffffffffffffffffff021916905580600101600090558060020160006113b5919061146d565b8060030160006101000a81549060ff02191690555050565b6000806113d86113fc565b90508060010191505090565b6000806113ef611429565b9050806002015491505090565b6000807fd5211e15e362f5251dbdeabddfd30aa19c1d7433b35372348d9978301f444fb690508091505090565b6000807f534276485ab019670afde26394d87b7e6a7f0dab7b16287011cc6ad8ed0d94f690508091505090565b6000806114616113fc565b90508060040191505090565b50805461147990612011565b6000825580601f1061148b57506114aa565b601f0160209004906000526020600020908101906114a991906114ad565b5b50565b5b808211156114c65760008160009055506001016114ae565b5090565b600080fd5b600080fd5b600080fd5b600080fd5b600080fd5b60008083601f8401126114f9576114f86114d4565b5b8235905067ffffffffffffffff811115611516576115156114d9565b5b602083019150836020820283011115611532576115316114de565b5b9250929050565b60008083601f84011261154f5761154e6114d4565b5b8235905067ffffffffffffffff81111561156c5761156b6114d9565b5b602083019150836020820283011115611588576115876114de565b5b9250929050565b60008083601f8401126115a5576115a46114d4565b5b8235905067ffffffffffffffff8111156115c2576115c16114d9565b5b6020830191508360208202830111156115de576115dd6114de565b5b9250929050565b60008083601f8401126115fb576115fa6114d4565b5b8235905067ffffffffffffffff811115611618576116176114d9565b5b602083019150836020820283011115611634576116336114de565b5b9250929050565b6000806000806000806000806080898b03121561165b5761165a6114ca565b5b600089013567ffffffffffffffff811115611679576116786114cf565b5b6116858b828c016114e3565b9850985050602089013567ffffffffffffffff8111156116a8576116a76114cf565b5b6116b48b828c01611539565b9650965050604089013567ffffffffffffffff8111156116d7576116d66114cf565b5b6116e38b828c0161158f565b9450945050606089013567ffffffffffffffff811115611706576117056114cf565b5b6117128b828c016115e5565b92509250509295985092959890939650565b600081519050919050565b600082825260208201905092915050565b6000819050602082019050919050565b6000819050919050565b61176381611750565b82525050565b6000611775838361175a565b60208301905092915050565b6000602082019050919050565b600061179982611724565b6117a3818561172f565b93506117ae83611740565b8060005b838110156117df5781516117c68882611769565b97506117d183611781565b9250506001810190506117b2565b5085935050505092915050565b60006020820190508181036000830152611806818461178e565b905092915050565b60008083601f840112611824576118236114d4565b5b8235905067ffffffffffffffff811115611841576118406114d9565b5b60208301915083602082028301111561185d5761185c6114de565b5b9250929050565b6000806000806040858703121561187e5761187d6114ca565b5b600085013567ffffffffffffffff81111561189c5761189b6114cf565b5b6118a887828801611539565b9450945050602085013567ffffffffffffffff8111156118cb576118ca6114cf565b5b6118d78782880161180e565b925092505092959194509250565b600073ffffffffffffffffffffffffffffffffffffffff82169050919050565b6000611910826118e5565b9050919050565b61192081611905565b811461192b57600080fd5b50565b60008135905061193d81611917565b92915050565b61194c81611750565b811461195757600080fd5b50565b60008135905061196981611943565b92915050565b60008083601f840112611985576119846114d4565b5b8235905067ffffffffffffffff8111156119a2576119a16114d9565b5b6020830191508360018202830111156119be576119bd6114de565b5b9250929050565b60006fffffffffffffffffffffffffffffffff82169050919050565b6119ea816119c5565b81146119f557600080fd5b50565b600081359050611a07816119e1565b92915050565b600080600080600060808688031215611a2957611a286114ca565b5b6000611a378882890161192e565b9550506020611a488882890161195a565b945050604086013567ffffffffffffffff811115611a6957611a686114cf565b5b611a758882890161196f565b93509350506060611a88888289016119f8565b9150509295509295909350565b611a9e81611750565b82525050565b6000602082019050611ab96000830184611a95565b92915050565b600060208284031215611ad557611ad46114ca565b5b6000611ae38482850161195a565b91505092915050565b60008115159050919050565b611b0181611aec565b8114611b0c57600080fd5b50565b600081359050611b1e81611af8565b92915050565b60008060408385031215611b3b57611b3a6114ca565b5b6000611b498582860161195a565b9250506020611b5a85828601611b0f565b9150509250929050565b60008060208385031215611b7b57611b7a6114ca565b5b600083013567ffffffffffffffff811115611b9957611b986114cf565b5b611ba585828601611539565b92509250509250929050565b600082825260208201905092915050565b7f446966666572656e74206172726179206c656e67746800000000000000000000600082015250565b6000611bf8601683611bb1565b9150611c0382611bc2565b602082019050919050565b60006020820190508181036000830152611c2781611beb565b9050919050565b7f4e487b7100000000000000000000000000000000000000000000000000000000600052604160045260246000fd5b7f4e487b7100000000000000000000000000000000000000000000000000000000600052603260045260246000fd5b600060208284031215611ca257611ca16114ca565b5b6000611cb08482850161192e565b91505092915050565b600080fd5b600080fd5b600080fd5b60008083356001602003843603038112611ce557611ce4611cb9565b5b80840192508235915067ffffffffffffffff821115611d0757611d06611cbe565b5b602083019250600182023603831315611d2357611d22611cc3565b5b509250929050565b600060208284031215611d4157611d406114ca565b5b6000611d4f848285016119f8565b91505092915050565b7f4e487b7100000000000000000000000000000000000000000000000000000000600052601160045260246000fd5b6000611d9282611750565b91507fffffffffffffffffffffffffffffffffffffffffffffffffffffffffffffffff8203611dc457611dc3611d58565b5b600182019050919050565b600060208284031215611de557611de46114ca565b5b6000611df384828501611b0f565b91505092915050565b7f5468657265206973206e6f2071756f72756d207965742e000000000000000000600082015250565b6000611e32601783611bb1565b9150611e3d82611dfc565b602082019050919050565b60006020820190508181036000830152611e6181611e25565b9050919050565b7f4e6f7420656e6f75676820766f74696e6720706f77657220746f20637265617460008201527f652070726f706f73616c2e000000000000000000000000000000000000000000602082015250565b6000611ec4602b83611bb1565b9150611ecf82611e68565b604082019050919050565b60006020820190508181036000830152611ef381611eb7565b9050919050565b600080fd5b600080fd5b60008085851115611f1857611f17611efa565b5b83861115611f2957611f28611eff565b5b6001850283019150848603905094509492505050565b600082905092915050565b60007fffffffff0000000000000000000000000000000000000000000000000000000082169050919050565b600082821b905092915050565b6000611f8f8383611f3f565b82611f9a8135611f4a565b92506004821015611fda57611fd57fffffffff0000000000000000000000000000000000000000000000000000000083600403600802611f76565b831692505b505092915050565b7f4e487b7100000000000000000000000000000000000000000000000000000000600052602260045260246000fd5b6000600282049050600182168061202957607f821691505b60208210810361203c5761203b611fe2565b5b50919050565b60008190508160005260206000209050919050565b60006020601f8301049050919050565b6000600883026120977fffffffffffffffffffffffffffffffffffffffffffffffffffffffffffffffff82611f76565b6120a18683611f76565b95508019841693508086168417925050509392505050565b6000819050919050565b60006120de6120d96120d484611750565b6120b9565b611750565b9050919050565b6000819050919050565b6120f8836120c3565b61210c612104826120e5565b848454612067565b825550505050565b600090565b612121612114565b61212c8184846120ef565b505050565b5b8181101561215057612145600082612119565b600181019050612132565b5050565b601f8211156121955761216681612042565b61216f84612057565b8101602085101561217e578190505b61219261218a85612057565b830182612131565b50505b505050565b600082821c905092915050565b60006121b86000198460080261219a565b1980831691505092915050565b60006121d183836121a7565b9150826002028217905092915050565b6121eb8383611f3f565b67ffffffffffffffff81111561220457612203611c2e565b5b61220e8254612011565b612219828285612154565b6000601f8311600181146122485760008415612236578287013590505b61224085826121c5565b8655506122a8565b601f19841661225686612042565b60005b8281101561227e57848901358255600182019150602085019450602081019050612259565b8683101561229b5784890135612297601f8916826121a7565b8355505b6001600288020188555050505b50505050505050565b60006122bc82611750565b91506122c783611750565b9250827fffffffffffffffffffffffffffffffffffffffffffffffffffffffffffffffff038211156122fc576122fb611d58565b5b828201905092915050565b6000612312826119c5565b915061231d836119c5565b9250826fffffffffffffffffffffffffffffffff0382111561234257612341611d58565b5b828201905092915050565b7f50726f706f73616c20697320616c726561647920616363657074656400000000600082015250565b6000612383601c83611bb1565b915061238e8261234d565b602082019050919050565b600060208201905081810360008301526123b281612376565b9050919050565b7f4e6f20766f74696e672e00000000000000000000000000000000000000000000600082015250565b60006123ef600a83611bb1565b91506123fa826123b9565b602082019050919050565b6000602082019050818103600083015261241e816123e2565b9050919050565b600082825260208201905092915050565b6000815461244381612011565b61244d8186612425565b94506001821660008114612468576001811461247e576124b1565b60ff1983168652811515602002860193506124b1565b61248785612042565b60005b838110156124a95781548189015260018201915060208101905061248a565b808801955050505b50505092915050565b600060208201905081810360008301526124d48184612436565b905092915050565b7f4e6f20766f74696e6720726e2e00000000000000000000000000000000000000600082015250565b6000612512600d83611bb1565b915061251d826124dc565b602082019050919050565b6000602082019050818103600083015261254181612505565b9050919050565b7f416c726561647920766f7465642e000000000000000000000000000000000000600082015250565b600061257e600e83611bb1565b915061258982612548565b602082019050919050565b600060208201905081810360008301526125ad81612571565b9050919050565b6000815190506125c381611943565b92915050565b6000602082840312156125df576125de6114ca565b5b60006125ed848285016125b4565b91505092915050565b600061260182611750565b915061260c83611750565b9250817fffffffffffffffffffffffffffffffffffffffffffffffffffffffffffffffff048311821515161561264557612644611d58565b5b828202905092915050565b7f4e487b7100000000000000000000000000000000000000000000000000000000600052601260045260246000fd5b600061268a82611750565b915061269583611750565b9250826126a5576126a4612650565b5b828204905092915050565b7f54726561737572792070726f706f73616c73206172652072656c61746564206f60008201527f6e6c7920746f20676f7665726e616e636520746f6b656e2e0000000000000000602082015250565b600061270c603883611bb1565b9150612717826126b0565b604082019050919050565b6000602082019050818103600083015261273b816126ff565b9050919050565b7f4e6f206d6f72652070726f706f73616c7320706c730000000000000000000000600082015250565b6000612778601583611bb1565b915061278382612742565b602082019050919050565b600060208201905081810360008301526127a78161276b565b9050919050565b7f4e6f206163746976652070726f706f73616c732e000000000000000000000000600082015250565b60006127e4601483611bb1565b91506127ef826127ae565b602082019050919050565b60006020820190508181036000830152612813816127d7565b9050919050565b600061282582611750565b915061283083611750565b92508282101561284357612842611d58565b5b828203905092915050565b7f4e487b7100000000000000000000000000000000000000000000000000000000600052603160045260246000fdfea2646970667358221220244be4578a354cd1b57e256b703d064948424b8bd407b7bda244a174fa2a43d164736f6c634300080f0033",
  "linkReferences": {
    "contracts/libraries/LibVotingPower.sol": {
      "LibVotingPower": [
        {
          "length": 20,
          "start": 3153
        }
      ]
    }
  },
  "deployedLinkReferences": {
    "contracts/libraries/LibVotingPower.sol": {
      "LibVotingPower": [
        {
          "length": 20,
          "start": 3121
        }
      ]
    }
  }
}