{
  "_format": "hh-sol-artifact-1",
  "contractName": "StakeContractERC20UniV3",
  "sourceName": "contracts/external/VotingPowerManagerERC20UniV3.sol",
  "abi": [
    {
      "inputs": [
        {
          "internalType": "address",
          "name": "_votingPowerHolder",
          "type": "address"
        },
        {
          "internalType": "address",
          "name": "_nfPositionManager",
          "type": "address"
        },
        {
          "internalType": "address",
          "name": "_governanceToken",
          "type": "address"
        },
        {
          "internalType": "address[]",
          "name": "_legalPairTokens",
          "type": "address[]"
        }
      ],
      "stateMutability": "nonpayable",
      "type": "constructor"
    },
    {
      "inputs": [
        {
          "internalType": "uint256",
          "name": "tokenId",
          "type": "uint256"
        }
      ],
      "name": "collectFeesFromNFTPosition",
      "outputs": [],
      "stateMutability": "nonpayable",
      "type": "function"
    },
    {
      "inputs": [
        {
          "internalType": "uint256",
          "name": "tokenId",
          "type": "uint256"
        }
      ],
      "name": "decreaseVotingPowerByDecreasingLiquidityOfNFTPosition",
      "outputs": [],
      "stateMutability": "nonpayable",
      "type": "function"
    },
    {
      "inputs": [
        {
          "internalType": "address",
          "name": "holder",
          "type": "address"
        }
      ],
      "name": "getAmountOfStakedNFTPositions",
      "outputs": [
        {
          "internalType": "uint256",
          "name": "",
          "type": "uint256"
        }
      ],
      "stateMutability": "view",
      "type": "function"
    },
    {
      "inputs": [
        {
          "internalType": "uint256",
          "name": "tokenId",
          "type": "uint256"
        }
      ],
      "name": "getAmountOfVotingPowerForNFTPosition",
      "outputs": [
        {
          "internalType": "uint256",
          "name": "",
          "type": "uint256"
        }
      ],
      "stateMutability": "view",
      "type": "function"
    },
    {
      "inputs": [
        {
          "internalType": "address",
          "name": "holder",
          "type": "address"
        },
        {
          "internalType": "uint256",
          "name": "index",
          "type": "uint256"
        }
      ],
      "name": "getNFTPositionIdOfHolderByIndex",
      "outputs": [
        {
          "internalType": "uint256",
          "name": "",
          "type": "uint256"
        }
      ],
      "stateMutability": "view",
      "type": "function"
    },
    {
      "inputs": [
        {
          "internalType": "address",
          "name": "holder",
          "type": "address"
        }
      ],
      "name": "getStakedBalanceOfGovernanceToken",
      "outputs": [
        {
          "internalType": "uint256",
          "name": "balance",
          "type": "uint256"
        }
      ],
      "stateMutability": "view",
      "type": "function"
    },
    {
      "inputs": [
        {
          "internalType": "uint256",
          "name": "tokenId",
          "type": "uint256"
        }
      ],
      "name": "increaseVotingPowerByIncreasingLiquidityOfNFTPosition",
      "outputs": [],
      "stateMutability": "nonpayable",
      "type": "function"
    },
    {
      "inputs": [
        {
          "internalType": "address",
          "name": "holder",
          "type": "address"
        },
        {
          "internalType": "uint256",
          "name": "tokenId",
          "type": "uint256"
        }
      ],
      "name": "nftPositionIsStakedByHolder",
      "outputs": [
        {
          "internalType": "bool",
          "name": "",
          "type": "bool"
        }
      ],
      "stateMutability": "view",
      "type": "function"
    },
    {
      "inputs": [
        {
          "internalType": "address",
          "name": "operator",
          "type": "address"
        },
        {
          "internalType": "address",
          "name": "from",
          "type": "address"
        },
        {
          "internalType": "uint256",
          "name": "tokenId",
          "type": "uint256"
        },
        {
          "internalType": "bytes",
          "name": "data",
          "type": "bytes"
        }
      ],
      "name": "onERC721Received",
      "outputs": [
        {
          "internalType": "bytes4",
          "name": "",
          "type": "bytes4"
        }
      ],
      "stateMutability": "pure",
      "type": "function"
    },
    {
      "inputs": [
        {
          "internalType": "uint256",
          "name": "_amount",
          "type": "uint256"
        }
      ],
      "name": "stakeGovToken",
      "outputs": [],
      "stateMutability": "nonpayable",
      "type": "function"
    },
    {
      "inputs": [
        {
          "internalType": "uint256[]",
          "name": "tokenIds",
          "type": "uint256[]"
        }
      ],
      "name": "stakeMultipleUniV3NFTPositions",
      "outputs": [],
      "stateMutability": "nonpayable",
      "type": "function"
    },
    {
      "inputs": [
        {
          "internalType": "uint256",
          "name": "tokenId",
          "type": "uint256"
        }
      ],
      "name": "stakeUniV3NFTPosition",
      "outputs": [],
      "stateMutability": "nonpayable",
      "type": "function"
    },
    {
      "inputs": [
        {
          "internalType": "uint256[]",
          "name": "tokenIds",
          "type": "uint256[]"
        }
      ],
      "name": "unStakeMultipleUniV3NFTPositions",
      "outputs": [],
      "stateMutability": "nonpayable",
      "type": "function"
    },
    {
      "inputs": [
        {
          "internalType": "uint256",
          "name": "_amount",
          "type": "uint256"
        }
      ],
      "name": "unstakeGovToken",
      "outputs": [],
      "stateMutability": "nonpayable",
      "type": "function"
    },
    {
      "inputs": [
        {
          "internalType": "uint256",
          "name": "tokenId",
          "type": "uint256"
        }
      ],
      "name": "unstakeUniV3NFTPosition",
      "outputs": [],
      "stateMutability": "nonpayable",
      "type": "function"
    }
  ],
  "bytecode": "0x60806040523480156200001157600080fd5b506040516200418b3803806200418b8339818101604052810190620000379190620005c6565b600073ffffffffffffffffffffffffffffffffffffffff168473ffffffffffffffffffffffffffffffffffffffff16036200007157600080fd5b600073ffffffffffffffffffffffffffffffffffffffff168373ffffffffffffffffffffffffffffffffffffffff1603620000ab57600080fd5b836000806101000a81548173ffffffffffffffffffffffffffffffffffffffff021916908373ffffffffffffffffffffffffffffffffffffffff16021790555082600160006101000a81548173ffffffffffffffffffffffffffffffffffffffff021916908373ffffffffffffffffffffffffffffffffffffffff160217905550600160009054906101000a900473ffffffffffffffffffffffffffffffffffffffff1673ffffffffffffffffffffffffffffffffffffffff1663c45a01556040518163ffffffff1660e01b81526004016020604051808303816000875af11580156200019c573d6000803e3d6000fd5b505050506040513d601f19601f82011682018060405250810190620001c2919062000657565b600260006101000a81548173ffffffffffffffffffffffffffffffffffffffff021916908373ffffffffffffffffffffffffffffffffffffffff16021790555081600360006101000a81548173ffffffffffffffffffffffffffffffffffffffff021916908373ffffffffffffffffffffffffffffffffffffffff1602179055506000815190506000811180156200025a5750600a81105b6200029c576040517f08c379a0000000000000000000000000000000000000000000000000000000008152600401620002939062000710565b60405180910390fd5b60005b81811015620002f757620002e0838281518110620002c257620002c162000732565b5b602002602001015160046200030360201b620014191790919060201c565b508080620002ee906200079a565b9150506200029f565b505050505050620007e7565b600062000333836000018373ffffffffffffffffffffffffffffffffffffffff1660001b6200033b60201b60201c565b905092915050565b60006200034f8383620003b560201b60201c565b620003aa578260000182908060018154018082558091505060019003906000526020600020016000909190919091505582600001805490508360010160008481526020019081526020016000208190555060019050620003af565b600090505b92915050565b600080836001016000848152602001908152602001600020541415905092915050565b6000604051905090565b600080fd5b600080fd5b600073ffffffffffffffffffffffffffffffffffffffff82169050919050565b60006200041982620003ec565b9050919050565b6200042b816200040c565b81146200043757600080fd5b50565b6000815190506200044b8162000420565b92915050565b600080fd5b6000601f19601f8301169050919050565b7f4e487b7100000000000000000000000000000000000000000000000000000000600052604160045260246000fd5b620004a18262000456565b810181811067ffffffffffffffff82111715620004c357620004c262000467565b5b80604052505050565b6000620004d8620003d8565b9050620004e6828262000496565b919050565b600067ffffffffffffffff82111562000509576200050862000467565b5b602082029050602081019050919050565b600080fd5b6000620005366200053084620004eb565b620004cc565b905080838252602082019050602084028301858111156200055c576200055b6200051a565b5b835b818110156200058957806200057488826200043a565b8452602084019350506020810190506200055e565b5050509392505050565b600082601f830112620005ab57620005aa62000451565b5b8151620005bd8482602086016200051f565b91505092915050565b60008060008060808587031215620005e357620005e2620003e2565b5b6000620005f3878288016200043a565b945050602062000606878288016200043a565b935050604062000619878288016200043a565b925050606085015167ffffffffffffffff8111156200063d576200063c620003e7565b5b6200064b8782880162000593565b91505092959194509250565b60006020828403121562000670576200066f620003e2565b5b600062000680848285016200043a565b91505092915050565b600082825260208201905092915050565b7f4e6f207061697220746f6b656e2069732073657420666f7220706f6f6c206f7260008201527f206d6f7265207468616e20392e00000000000000000000000000000000000000602082015250565b6000620006f8602d8362000689565b915062000705826200069a565b604082019050919050565b600060208201905081810360008301526200072b81620006e9565b9050919050565b7f4e487b7100000000000000000000000000000000000000000000000000000000600052603260045260246000fd5b7f4e487b7100000000000000000000000000000000000000000000000000000000600052601160045260246000fd5b6000819050919050565b6000620007a78262000790565b91507fffffffffffffffffffffffffffffffffffffffffffffffffffffffffffffffff8203620007dc57620007db62000761565b5b600182019050919050565b61399480620007f76000396000f3fe608060405234801561001057600080fd5b50600436106100f55760003560e01c806373cb5dd211610097578063ddcce7ee11610066578063ddcce7ee14610292578063e9b73767146102ae578063ed6e8694146102de578063feba2969146102fa576100f5565b806373cb5dd2146101fa5780637841c5af14610216578063b365192614610232578063d800f84f14610262576100f5565b8063240e3b3c116100d3578063240e3b3c14610162578063507666241461019257806355fe7f2b146101c257806369f31ba2146101de576100f5565b806308857016146100fa57806314f0b33514610116578063150b7a0214610132575b600080fd5b610114600480360381019061010f9190612413565b610316565b005b610130600480360381019061012b9190612413565b610351565b005b61014c60048036038101906101479190612503565b610bed565b60405161015991906125c6565b60405180910390f35b61017c60048036038101906101779190612413565b610c02565b60405161018991906125f0565b60405180910390f35b6101ac60048036038101906101a7919061260b565b610c1f565b6040516101b99190612666565b60405180910390f35b6101dc60048036038101906101d79190612413565b610c7a565b005b6101f860048036038101906101f39190612413565b610cb5565b005b610214600480360381019061020f9190612413565b610cf0565b005b610230600480360381019061022b9190612413565b610ea5565b005b61024c6004803603810190610247919061260b565b6110da565b60405161025991906125f0565b60405180910390f35b61027c60048036038101906102779190612681565b611135565b60405161028991906125f0565b60405180910390f35b6102ac60048036038101906102a79190612413565b61117e565b005b6102c860048036038101906102c39190612681565b6112b3565b6040516102d591906125f0565b60405180910390f35b6102f860048036038101906102f391906127fd565b611371565b005b610314600480360381019061030f91906127fd565b6113c5565b005b6040517f08c379a0000000000000000000000000000000000000000000000000000000008152600401610348906128a3565b60405180910390fd5b3373ffffffffffffffffffffffffffffffffffffffff16600160009054906101000a900473ffffffffffffffffffffffffffffffffffffffff1673ffffffffffffffffffffffffffffffffffffffff16636352211e836040518263ffffffff1660e01b81526004016103c391906125f0565b602060405180830381865afa1580156103e0573d6000803e3d6000fd5b505050506040513d601f19601f8201168201806040525081019061040491906128d8565b73ffffffffffffffffffffffffffffffffffffffff161461045a576040517f08c379a000000000000000000000000000000000000000000000000000000000815260040161045190612951565b60405180910390fd5b600080600160009054906101000a900473ffffffffffffffffffffffffffffffffffffffff1673ffffffffffffffffffffffffffffffffffffffff166399fbab88846040516024016104ac91906125f0565b6040516020818303038152906040529060e01b6020820180517bffffffffffffffffffffffffffffffffffffffffffffffffffffffff83818316178352505050506040516104fa91906129eb565b6000604051808303816000865af19150503d8060008114610537576040519150601f19603f3d011682016040523d82523d6000602084013e61053c565b606091505b50915091508161054b57600080fd5b600061055682611449565b90503073ffffffffffffffffffffffffffffffffffffffff16816000015173ffffffffffffffffffffffffffffffffffffffff16146105ca576040517f08c379a00000000000000000000000000000000000000000000000000000000081526004016105c190612a4e565b60405180910390fd5b600360009054906101000a900473ffffffffffffffffffffffffffffffffffffffff1673ffffffffffffffffffffffffffffffffffffffff16816020015173ffffffffffffffffffffffffffffffffffffffff16148061067b5750600360009054906101000a900473ffffffffffffffffffffffffffffffffffffffff1673ffffffffffffffffffffffffffffffffffffffff16816040015173ffffffffffffffffffffffffffffffffffffffff16145b6106ba576040517f08c379a00000000000000000000000000000000000000000000000000000000081526004016106b190612ae0565b60405180910390fd5b6000600360009054906101000a900473ffffffffffffffffffffffffffffffffffffffff1673ffffffffffffffffffffffffffffffffffffffff16826020015173ffffffffffffffffffffffffffffffffffffffff161461071f578160200151610725565b81604001515b905061073b81600461151f90919063ffffffff16565b61077a576040517f08c379a000000000000000000000000000000000000000000000000000000000815260040161077190612b72565b60405180910390fd5b60006107b6600260009054906101000a900473ffffffffffffffffffffffffffffffffffffffff16846020015185604001518660a0015161154f565b905060008173ffffffffffffffffffffffffffffffffffffffff16633850c7bd6040518163ffffffff1660e01b815260040160e0604051808303816000875af1158015610807573d6000803e3d6000fd5b505050506040513d601f19601f8201168201806040525081019061082b9190612d4f565b9050600061083c856060015161160e565b9050600061084d866080015161160e565b90506000866060015160020b846020015160020b121561091657600360009054906101000a900473ffffffffffffffffffffffffffffffffffffffff1673ffffffffffffffffffffffffffffffffffffffff16876020015173ffffffffffffffffffffffffffffffffffffffff16036108d6576108cf83838960c00151611ad9565b9050610911565b6040517f08c379a000000000000000000000000000000000000000000000000000000000815260040161090890612dee565b60405180910390fd5b610a59565b866080015160020b846020015160020b12156109b257600360009054906101000a900473ffffffffffffffffffffffffffffffffffffffff1673ffffffffffffffffffffffffffffffffffffffff16876020015173ffffffffffffffffffffffffffffffffffffffff160361099b5761099483838960c00151611ad9565b90506109ad565b6109aa83838960c00151611b9f565b90505b610a58565b600360009054906101000a900473ffffffffffffffffffffffffffffffffffffffff1673ffffffffffffffffffffffffffffffffffffffff16876020015173ffffffffffffffffffffffffffffffffffffffff1603610a46576040517f08c379a0000000000000000000000000000000000000000000000000000000008152600401610a3d90612dee565b60405180910390fd5b610a5583838960c00151611b9f565b90505b5b600160009054906101000a900473ffffffffffffffffffffffffffffffffffffffff1673ffffffffffffffffffffffffffffffffffffffff166342842e0e33308d6040518463ffffffff1660e01b8152600401610ab893929190612e1d565b600060405180830381600087803b158015610ad257600080fd5b505af1158015610ae6573d6000803e3d6000fd5b50505050610b3b8a600760003373ffffffffffffffffffffffffffffffffffffffff1673ffffffffffffffffffffffffffffffffffffffff168152602001908152602001600020611c3490919063ffffffff16565b5080600860008c81526020019081526020016000208190555060008054906101000a900473ffffffffffffffffffffffffffffffffffffffff1673ffffffffffffffffffffffffffffffffffffffff1663dc7d5d2533836040518363ffffffff1660e01b8152600401610baf929190612e54565b600060405180830381600087803b158015610bc957600080fd5b505af1158015610bdd573d6000803e3d6000fd5b5050505050505050505050505050565b600063150b7a0260e01b905095945050505050565b600060086000838152602001908152602001600020549050919050565b6000610c7282600760008673ffffffffffffffffffffffffffffffffffffffff1673ffffffffffffffffffffffffffffffffffffffff168152602001908152602001600020611c4e90919063ffffffff16565b905092915050565b6040517f08c379a0000000000000000000000000000000000000000000000000000000008152600401610cac906128a3565b60405180910390fd5b6040517f08c379a0000000000000000000000000000000000000000000000000000000008152600401610ce7906128a3565b60405180910390fd5b80600660003373ffffffffffffffffffffffffffffffffffffffff1673ffffffffffffffffffffffffffffffffffffffff168152602001908152602001600020541015610d72576040517f08c379a0000000000000000000000000000000000000000000000000000000008152600401610d6990612eef565b60405180910390fd5b80600660003373ffffffffffffffffffffffffffffffffffffffff1673ffffffffffffffffffffffffffffffffffffffff1681526020019081526020016000206000828254610dc19190612f3e565b9250508190555060008054906101000a900473ffffffffffffffffffffffffffffffffffffffff1673ffffffffffffffffffffffffffffffffffffffff16631c6d156c33836040518363ffffffff1660e01b8152600401610e23929190612e54565b600060405180830381600087803b158015610e3d57600080fd5b505af1158015610e51573d6000803e3d6000fd5b50505050610ea23382600360009054906101000a900473ffffffffffffffffffffffffffffffffffffffff1673ffffffffffffffffffffffffffffffffffffffff16611c689092919063ffffffff16565b50565b610ef681600760003373ffffffffffffffffffffffffffffffffffffffff1673ffffffffffffffffffffffffffffffffffffffff168152602001908152602001600020611c4e90919063ffffffff16565b610f35576040517f08c379a0000000000000000000000000000000000000000000000000000000008152600401610f2c90612fe4565b60405180910390fd5b610f8681600760003373ffffffffffffffffffffffffffffffffffffffff1673ffffffffffffffffffffffffffffffffffffffff168152602001908152602001600020611cee90919063ffffffff16565b5060006008600083815260200190815260200160002054905060008054906101000a900473ffffffffffffffffffffffffffffffffffffffff1673ffffffffffffffffffffffffffffffffffffffff16631c6d156c33836040518363ffffffff1660e01b8152600401610ffa929190612e54565b600060405180830381600087803b15801561101457600080fd5b505af1158015611028573d6000803e3d6000fd5b5050505060006008600084815260200190815260200160002081905550600160009054906101000a900473ffffffffffffffffffffffffffffffffffffffff1673ffffffffffffffffffffffffffffffffffffffff166342842e0e3033856040518463ffffffff1660e01b81526004016110a493929190612e1d565b600060405180830381600087803b1580156110be57600080fd5b505af11580156110d2573d6000803e3d6000fd5b505050505050565b600061112d82600760008673ffffffffffffffffffffffffffffffffffffffff1673ffffffffffffffffffffffffffffffffffffffff168152602001908152602001600020611d0890919063ffffffff16565b905092915050565b6000600660008373ffffffffffffffffffffffffffffffffffffffff1673ffffffffffffffffffffffffffffffffffffffff168152602001908152602001600020549050919050565b6111cd333083600360009054906101000a900473ffffffffffffffffffffffffffffffffffffffff1673ffffffffffffffffffffffffffffffffffffffff16611d22909392919063ffffffff16565b80600660003373ffffffffffffffffffffffffffffffffffffffff1673ffffffffffffffffffffffffffffffffffffffff168152602001908152602001600020600082825461121c9190613004565b9250508190555060008054906101000a900473ffffffffffffffffffffffffffffffffffffffff1673ffffffffffffffffffffffffffffffffffffffff1663dc7d5d2533836040518363ffffffff1660e01b815260040161127e929190612e54565b600060405180830381600087803b15801561129857600080fd5b505af11580156112ac573d6000803e3d6000fd5b5050505050565b60008073ffffffffffffffffffffffffffffffffffffffff168273ffffffffffffffffffffffffffffffffffffffff1603611323576040517f08c379a000000000000000000000000000000000000000000000000000000000815260040161131a906130cc565b60405180910390fd5b61136a600760008473ffffffffffffffffffffffffffffffffffffffff1673ffffffffffffffffffffffffffffffffffffffff168152602001908152602001600020611dab565b9050919050565b606481511061137f57600080fd5b60005b81518110156113c1576113ae8282815181106113a1576113a06130ec565b5b6020026020010151610351565b80806113b99061311b565b915050611382565b5050565b60648151106113d357600080fd5b60005b8151811015611415576114028282815181106113f5576113f46130ec565b5b6020026020010151610ea5565b808061140d9061311b565b9150506113d6565b5050565b6000611441836000018373ffffffffffffffffffffffffffffffffffffffff1660001b611dc0565b905092915050565b61145161232d565b6000828060200190518101906114679190613361565b90506040518060e00160405280826020015173ffffffffffffffffffffffffffffffffffffffff168152602001826040015173ffffffffffffffffffffffffffffffffffffffff168152602001826060015173ffffffffffffffffffffffffffffffffffffffff1681526020018260a0015160020b81526020018260c0015160020b8152602001826080015162ffffff1681526020018260e001516fffffffffffffffffffffffffffffffff16815250915050919050565b6000611547836000018373ffffffffffffffffffffffffffffffffffffffff1660001b611e30565b905092915050565b60008273ffffffffffffffffffffffffffffffffffffffff168473ffffffffffffffffffffffffffffffffffffffff161061158957600080fd5b8484848460405160200161159f9392919061339e565b604051602081830303815290604052805190602001207fe34f199b19b2b4f47f68442619d555527d244f78a3297ea89325f843f87b8b5460001b6040516020016115eb9392919061349f565b6040516020818303038152906040528051906020012060001c9050949350505050565b60008060008360020b12611625578260020b611633565b8260020b611632906134f1565b5b90507ffffffffffffffffffffffffffffffffffffffffffffffffffffffffffff2761861165f90613539565b60020b8111156116a4576040517f08c379a000000000000000000000000000000000000000000000000000000000815260040161169b906135cd565b60405180910390fd5b60008060018316036116c7577001000000000000000000000000000000006116d9565b6ffffcb933bd6fad37aa2d162d1a5940015b70ffffffffffffffffffffffffffffffffff1690506000600283161461171c5760806ffff97272373d413259a46990580e213a8261171791906135ed565b901c90505b6000600483161461174a5760806ffff2e50f5f656932ef12357cf3c7fdcc8261174591906135ed565b901c90505b600060088316146117785760806fffe5caca7e10e4e61c3624eaa0941cd08261177391906135ed565b901c90505b600060108316146117a65760806fffcb9843d60f6159c9db58835c926644826117a191906135ed565b901c90505b600060208316146117d45760806fff973b41fa98c081472e6896dfb254c0826117cf91906135ed565b901c90505b600060408316146118025760806fff2ea16466c96a3843ec78b326b52861826117fd91906135ed565b901c90505b600060808316146118305760806ffe5dee046a99a2a811c461f1969c30538261182b91906135ed565b901c90505b600061010083161461185f5760806ffcbe86c7900a88aedcffc83b479aa3a48261185a91906135ed565b901c90505b600061020083161461188e5760806ff987a7253ac413176f2b074cf7815e548261188991906135ed565b901c90505b60006104008316146118bd5760806ff3392b0822b70005940c7a398e4b70f3826118b891906135ed565b901c90505b60006108008316146118ec5760806fe7159475a2c29b7443b29c7fa6e889d9826118e791906135ed565b901c90505b600061100083161461191b5760806fd097f3bdfd2022b8845ad8f792aa58258261191691906135ed565b901c90505b600061200083161461194a5760806fa9f746462d870fdf8a65dc1f90e061e58261194591906135ed565b901c90505b60006140008316146119795760806f70d869a156d2a1b890bb3df62baf32f78261197491906135ed565b901c90505b60006180008316146119a85760806f31be135f97d08fd981231505542fcfa6826119a391906135ed565b901c90505b6000620100008316146119d85760806f09aa508b5b7a84e1c677de54f3e99bc9826119d391906135ed565b901c90505b600062020000831614611a075760806e5d6af8dedb81196699c329225ee60482611a0291906135ed565b901c90505b600062040000831614611a355760806d2216e584f5fa1ea926041bedfe9882611a3091906135ed565b901c90505b600062080000831614611a615760806b048a170391f7dc42444e8fa282611a5c91906135ed565b901c90505b60008460020b1315611a9c57807fffffffffffffffffffffffffffffffffffffffffffffffffffffffffffffffff611a999190613676565b90505b600064010000000082611aaf91906136a7565b14611abb576001611abe565b60005b60ff16602082901c611ad09190613004565b92505050919050565b60008273ffffffffffffffffffffffffffffffffffffffff168473ffffffffffffffffffffffffffffffffffffffff161115611b1a57828480945081955050505b8373ffffffffffffffffffffffffffffffffffffffff16611b8c606060ff16846fffffffffffffffffffffffffffffffff16901b8686611b5a91906136d8565b73ffffffffffffffffffffffffffffffffffffffff168673ffffffffffffffffffffffffffffffffffffffff16611e53565b611b969190613676565b90509392505050565b60008273ffffffffffffffffffffffffffffffffffffffff168473ffffffffffffffffffffffffffffffffffffffff161115611be057828480945081955050505b611c2b826fffffffffffffffffffffffffffffffff168585611c0291906136d8565b73ffffffffffffffffffffffffffffffffffffffff166c01000000000000000000000000611e53565b90509392505050565b6000611c46836000018360001b611dc0565b905092915050565b6000611c60836000018360001b611e30565b905092915050565b611ce98363a9059cbb60e01b8484604051602401611c87929190612e54565b604051602081830303815290604052907bffffffffffffffffffffffffffffffffffffffffffffffffffffffff19166020820180517bffffffffffffffffffffffffffffffffffffffffffffffffffffffff8381831617835250505050611f60565b505050565b6000611d00836000018360001b612027565b905092915050565b6000611d17836000018361213b565b60001c905092915050565b611da5846323b872dd60e01b858585604051602401611d4393929190612e1d565b604051602081830303815290604052907bffffffffffffffffffffffffffffffffffffffffffffffffffffffff19166020820180517bffffffffffffffffffffffffffffffffffffffffffffffffffffffff8381831617835250505050611f60565b50505050565b6000611db982600001612166565b9050919050565b6000611dcc8383611e30565b611e25578260000182908060018154018082558091505060019003906000526020600020016000909190919091505582600001805490508360010160008481526020019081526020016000208190555060019050611e2a565b600090505b92915050565b600080836001016000848152602001908152602001600020541415905092915050565b6000806000801985870985870292508281108382030391505060008103611e8d5760008411611e8157600080fd5b83820492505050611f59565b808411611e9957600080fd5b60008486880990508281118203915080830392506000856001877fffffffffffffffffffffffffffffffffffffffffffffffffffffffffffffffff611ede9190612f3e565b611ee89190613004565b169050808604955080840493506001818260000304019050808302841793506000600287600302189050808702600203810290508087026002038102905080870260020381029050808702600203810290508087026002038102905080870260020381029050808502955050505050505b9392505050565b6000611fc2826040518060400160405280602081526020017f5361666545524332303a206c6f772d6c6576656c2063616c6c206661696c65648152508573ffffffffffffffffffffffffffffffffffffffff166121779092919063ffffffff16565b90506000815111156120225780806020019051810190611fe2919061370c565b612021576040517f08c379a0000000000000000000000000000000000000000000000000000000008152600401612018906137ab565b60405180910390fd5b5b505050565b6000808360010160008481526020019081526020016000205490506000811461212f5760006001826120599190612f3e565b90506000600186600001805490506120719190612f3e565b90508181146120e0576000866000018281548110612092576120916130ec565b5b90600052602060002001549050808760000184815481106120b6576120b56130ec565b5b90600052602060002001819055508387600101600083815260200190815260200160002081905550505b856000018054806120f4576120f36137cb565b5b600190038181906000526020600020016000905590558560010160008681526020019081526020016000206000905560019350505050612135565b60009150505b92915050565b6000826000018281548110612153576121526130ec565b5b9060005260206000200154905092915050565b600081600001805490509050919050565b6060612186848460008561218f565b90509392505050565b6060824710156121d4576040517f08c379a00000000000000000000000000000000000000000000000000000000081526004016121cb9061386c565b60405180910390fd5b6121dd856122a3565b61221c576040517f08c379a0000000000000000000000000000000000000000000000000000000008152600401612213906138d8565b60405180910390fd5b6000808673ffffffffffffffffffffffffffffffffffffffff16858760405161224591906129eb565b60006040518083038185875af1925050503d8060008114612282576040519150601f19603f3d011682016040523d82523d6000602084013e612287565b606091505b50915091506122978282866122c6565b92505050949350505050565b6000808273ffffffffffffffffffffffffffffffffffffffff163b119050919050565b606083156122d657829050612326565b6000835111156122e95782518084602001fd5b816040517f08c379a000000000000000000000000000000000000000000000000000000000815260040161231d919061393c565b60405180910390fd5b9392505050565b6040518060e00160405280600073ffffffffffffffffffffffffffffffffffffffff168152602001600073ffffffffffffffffffffffffffffffffffffffff168152602001600073ffffffffffffffffffffffffffffffffffffffff168152602001600060020b8152602001600060020b8152602001600062ffffff16815260200160006fffffffffffffffffffffffffffffffff1681525090565b6000604051905090565b600080fd5b600080fd5b6000819050919050565b6123f0816123dd565b81146123fb57600080fd5b50565b60008135905061240d816123e7565b92915050565b600060208284031215612429576124286123d3565b5b6000612437848285016123fe565b91505092915050565b600073ffffffffffffffffffffffffffffffffffffffff82169050919050565b600061246b82612440565b9050919050565b61247b81612460565b811461248657600080fd5b50565b60008135905061249881612472565b92915050565b600080fd5b600080fd5b600080fd5b60008083601f8401126124c3576124c261249e565b5b8235905067ffffffffffffffff8111156124e0576124df6124a3565b5b6020830191508360018202830111156124fc576124fb6124a8565b5b9250929050565b60008060008060006080868803121561251f5761251e6123d3565b5b600061252d88828901612489565b955050602061253e88828901612489565b945050604061254f888289016123fe565b935050606086013567ffffffffffffffff8111156125705761256f6123d8565b5b61257c888289016124ad565b92509250509295509295909350565b60007fffffffff0000000000000000000000000000000000000000000000000000000082169050919050565b6125c08161258b565b82525050565b60006020820190506125db60008301846125b7565b92915050565b6125ea816123dd565b82525050565b600060208201905061260560008301846125e1565b92915050565b60008060408385031215612622576126216123d3565b5b600061263085828601612489565b9250506020612641858286016123fe565b9150509250929050565b60008115159050919050565b6126608161264b565b82525050565b600060208201905061267b6000830184612657565b92915050565b600060208284031215612697576126966123d3565b5b60006126a584828501612489565b91505092915050565b6000601f19601f8301169050919050565b7f4e487b7100000000000000000000000000000000000000000000000000000000600052604160045260246000fd5b6126f7826126ae565b810181811067ffffffffffffffff82111715612716576127156126bf565b5b80604052505050565b60006127296123c9565b905061273582826126ee565b919050565b600067ffffffffffffffff821115612755576127546126bf565b5b602082029050602081019050919050565b60006127796127748461273a565b61271f565b9050808382526020820190506020840283018581111561279c5761279b6124a8565b5b835b818110156127c557806127b188826123fe565b84526020840193505060208101905061279e565b5050509392505050565b600082601f8301126127e4576127e361249e565b5b81356127f4848260208601612766565b91505092915050565b600060208284031215612813576128126123d3565b5b600082013567ffffffffffffffff811115612831576128306123d8565b5b61283d848285016127cf565b91505092915050565b600082825260208201905092915050565b7f6e6f7420696d706c656d656e746564207965742e000000000000000000000000600082015250565b600061288d601483612846565b915061289882612857565b602082019050919050565b600060208201905081810360008301526128bc81612880565b9050919050565b6000815190506128d281612472565b92915050565b6000602082840312156128ee576128ed6123d3565b5b60006128fc848285016128c3565b91505092915050565b7f4e6f7420616e206f776e6572206f66204e465420706f736974696f6e2e000000600082015250565b600061293b601d83612846565b915061294682612905565b602082019050919050565b6000602082019050818103600083015261296a8161292e565b9050919050565b600081519050919050565b600081905092915050565b60005b838110156129a557808201518184015260208101905061298a565b838111156129b4576000848401525b50505050565b60006129c582612971565b6129cf818561297c565b93506129df818560208601612987565b80840191505092915050565b60006129f782846129ba565b915081905092915050565b7f4e6f20617070726f76616c20746f207374616b652e0000000000000000000000600082015250565b6000612a38601583612846565b9150612a4382612a02565b602082019050919050565b60006020820190508181036000830152612a6781612a2b565b9050919050565b7f4e6f20676f7665726e616e636520746f6b656e20696e20756e6465726c79696e60008201527f67206173736574732e0000000000000000000000000000000000000000000000602082015250565b6000612aca602983612846565b9150612ad582612a6e565b604082019050919050565b60006020820190508181036000830152612af981612abd565b9050919050565b7f4e6f206c6567616c207061697220746f6b656e20696e20756e6465726c79696e60008201527f67206173736574732e0000000000000000000000000000000000000000000000602082015250565b6000612b5c602983612846565b9150612b6782612b00565b604082019050919050565b60006020820190508181036000830152612b8b81612b4f565b9050919050565b600080fd5b612ba081612440565b8114612bab57600080fd5b50565b600081519050612bbd81612b97565b92915050565b60008160020b9050919050565b612bd981612bc3565b8114612be457600080fd5b50565b600081519050612bf681612bd0565b92915050565b600061ffff82169050919050565b612c1381612bfc565b8114612c1e57600080fd5b50565b600081519050612c3081612c0a565b92915050565b600060ff82169050919050565b612c4c81612c36565b8114612c5757600080fd5b50565b600081519050612c6981612c43565b92915050565b612c788161264b565b8114612c8357600080fd5b50565b600081519050612c9581612c6f565b92915050565b600060e08284031215612cb157612cb0612b92565b5b612cbb60e061271f565b90506000612ccb84828501612bae565b6000830152506020612cdf84828501612be7565b6020830152506040612cf384828501612c21565b6040830152506060612d0784828501612c21565b6060830152506080612d1b84828501612c21565b60808301525060a0612d2f84828501612c5a565b60a08301525060c0612d4384828501612c86565b60c08301525092915050565b600060e08284031215612d6557612d646123d3565b5b6000612d7384828501612c9b565b91505092915050565b7f4f6e6c79207061697220746f6b656e206c6971756964697479206973206e6f7460008201527f206163636570746564207965742e000000000000000000000000000000000000602082015250565b6000612dd8602e83612846565b9150612de382612d7c565b604082019050919050565b60006020820190508181036000830152612e0781612dcb565b9050919050565b612e1781612460565b82525050565b6000606082019050612e326000830186612e0e565b612e3f6020830185612e0e565b612e4c60408301846125e1565b949350505050565b6000604082019050612e696000830185612e0e565b612e7660208301846125e1565b9392505050565b7f547279696e6720746f20756e7374616b65206d6f7265207468616e206861766560008201527f2e00000000000000000000000000000000000000000000000000000000000000602082015250565b6000612ed9602183612846565b9150612ee482612e7d565b604082019050919050565b60006020820190508181036000830152612f0881612ecc565b9050919050565b7f4e487b7100000000000000000000000000000000000000000000000000000000600052601160045260246000fd5b6000612f49826123dd565b9150612f54836123dd565b925082821015612f6757612f66612f0f565b5b828203905092915050565b7f746f6b656e496420776173206e6f74207374616b6564206279206d73672e736560008201527f6e64657200000000000000000000000000000000000000000000000000000000602082015250565b6000612fce602483612846565b9150612fd982612f72565b604082019050919050565b60006020820190508181036000830152612ffd81612fc1565b9050919050565b600061300f826123dd565b915061301a836123dd565b9250827fffffffffffffffffffffffffffffffffffffffffffffffffffffffffffffffff0382111561304f5761304e612f0f565b5b828201905092915050565b7f4552433732313a2062616c616e636520717565727920666f7220746865207a6560008201527f726f206164647265737300000000000000000000000000000000000000000000602082015250565b60006130b6602a83612846565b91506130c18261305a565b604082019050919050565b600060208201905081810360008301526130e5816130a9565b9050919050565b7f4e487b7100000000000000000000000000000000000000000000000000000000600052603260045260246000fd5b6000613126826123dd565b91507fffffffffffffffffffffffffffffffffffffffffffffffffffffffffffffffff820361315857613157612f0f565b5b600182019050919050565b60006bffffffffffffffffffffffff82169050919050565b61318481613163565b811461318f57600080fd5b50565b6000815190506131a18161317b565b92915050565b600062ffffff82169050919050565b6131bf816131a7565b81146131ca57600080fd5b50565b6000815190506131dc816131b6565b92915050565b60006fffffffffffffffffffffffffffffffff82169050919050565b613207816131e2565b811461321257600080fd5b50565b600081519050613224816131fe565b92915050565b600081519050613239816123e7565b92915050565b6000610180828403121561325657613255612b92565b5b61326161018061271f565b9050600061327184828501613192565b6000830152506020613285848285016128c3565b6020830152506040613299848285016128c3565b60408301525060606132ad848285016128c3565b60608301525060806132c1848285016131cd565b60808301525060a06132d584828501612be7565b60a08301525060c06132e984828501612be7565b60c08301525060e06132fd84828501613215565b60e0830152506101006133128482850161322a565b610100830152506101206133288482850161322a565b6101208301525061014061333e84828501613215565b6101408301525061016061335484828501613215565b6101608301525092915050565b60006101808284031215613378576133776123d3565b5b60006133868482850161323f565b91505092915050565b613398816131a7565b82525050565b60006060820190506133b36000830186612e0e565b6133c06020830185612e0e565b6133cd604083018461338f565b949350505050565b600081905092915050565b7fff00000000000000000000000000000000000000000000000000000000000000600082015250565b60006134166001836133d5565b9150613421826133e0565b600182019050919050565b60008160601b9050919050565b60006134448261342c565b9050919050565b600061345682613439565b9050919050565b61346e61346982612460565b61344b565b82525050565b6000819050919050565b6000819050919050565b61349961349482613474565b61347e565b82525050565b60006134aa82613409565b91506134b6828661345d565b6014820191506134c68285613488565b6020820191506134d68284613488565b602082019150819050949350505050565b6000819050919050565b60006134fc826134e7565b91507f8000000000000000000000000000000000000000000000000000000000000000820361352e5761352d612f0f565b5b816000039050919050565b600061354482612bc3565b91507fffffffffffffffffffffffffffffffffffffffffffffffffffffffffff800000820361357657613575612f0f565b5b816000039050919050565b7f5400000000000000000000000000000000000000000000000000000000000000600082015250565b60006135b7600183612846565b91506135c282613581565b602082019050919050565b600060208201905081810360008301526135e6816135aa565b9050919050565b60006135f8826123dd565b9150613603836123dd565b9250817fffffffffffffffffffffffffffffffffffffffffffffffffffffffffffffffff048311821515161561363c5761363b612f0f565b5b828202905092915050565b7f4e487b7100000000000000000000000000000000000000000000000000000000600052601260045260246000fd5b6000613681826123dd565b915061368c836123dd565b92508261369c5761369b613647565b5b828204905092915050565b60006136b2826123dd565b91506136bd836123dd565b9250826136cd576136cc613647565b5b828206905092915050565b60006136e382612440565b91506136ee83612440565b92508282101561370157613700612f0f565b5b828203905092915050565b600060208284031215613722576137216123d3565b5b600061373084828501612c86565b91505092915050565b7f5361666545524332303a204552433230206f7065726174696f6e20646964206e60008201527f6f74207375636365656400000000000000000000000000000000000000000000602082015250565b6000613795602a83612846565b91506137a082613739565b604082019050919050565b600060208201905081810360008301526137c481613788565b9050919050565b7f4e487b7100000000000000000000000000000000000000000000000000000000600052603160045260246000fd5b7f416464726573733a20696e73756666696369656e742062616c616e636520666f60008201527f722063616c6c0000000000000000000000000000000000000000000000000000602082015250565b6000613856602683612846565b9150613861826137fa565b604082019050919050565b6000602082019050818103600083015261388581613849565b9050919050565b7f416464726573733a2063616c6c20746f206e6f6e2d636f6e7472616374000000600082015250565b60006138c2601d83612846565b91506138cd8261388c565b602082019050919050565b600060208201905081810360008301526138f1816138b5565b9050919050565b600081519050919050565b600061390e826138f8565b6139188185612846565b9350613928818560208601612987565b613931816126ae565b840191505092915050565b600060208201905081810360008301526139568184613903565b90509291505056fea264697066735822122044ecce4539ae2f771073936e2f72af2a0e94fd92d995571b190e4a9b74b899a464736f6c634300080f0033",
  "linkReferences": {},
  "deployedLinkReferences": {}
}