{
  "_format": "hh-sol-artifact-1",
  "contractName": "TreasuryViewerFacet",
  "sourceName": "contracts/facets/treasury/TreasuryViewerFacet.sol",
  "abi": [
    {
      "inputs": [],
      "name": "getActiveProposalsIds",
      "outputs": [
        {
          "internalType": "uint256[]",
          "name": "",
          "type": "uint256[]"
        }
      ],
      "stateMutability": "view",
      "type": "function"
    },
    {
      "inputs": [],
      "name": "getProposalsCount",
      "outputs": [
        {
          "internalType": "uint128",
          "name": "",
          "type": "uint128"
        }
      ],
      "stateMutability": "view",
      "type": "function"
    },
    {
      "inputs": [],
      "name": "getTreasuryMaxDuration",
      "outputs": [
        {
          "internalType": "uint128",
          "name": "",
          "type": "uint128"
        }
      ],
      "stateMutability": "view",
      "type": "function"
    },
    {
      "inputs": [
        {
          "internalType": "uint256",
          "name": "proposalId",
          "type": "uint256"
        }
      ],
      "name": "getTreasuryProposal",
      "outputs": [
        {
          "components": [
            {
              "internalType": "bool",
              "name": "proposalAccepted",
              "type": "bool"
            },
            {
              "internalType": "address",
              "name": "destinationAddress",
              "type": "address"
            },
            {
              "internalType": "uint256",
              "name": "value",
              "type": "uint256"
            },
            {
              "internalType": "bytes",
              "name": "callData",
              "type": "bytes"
            },
            {
              "internalType": "bool",
              "name": "proposalExecuted",
              "type": "bool"
            },
            {
              "internalType": "uint256",
              "name": "delayDeadline",
              "type": "uint256"
            }
          ],
          "internalType": "struct ITreasury.Proposal",
          "name": "",
          "type": "tuple"
        }
      ],
      "stateMutability": "view",
      "type": "function"
    },
    {
      "inputs": [
        {
          "internalType": "uint256",
          "name": "proposalId",
          "type": "uint256"
        }
      ],
      "name": "getTreasuryProposalVotingDeadlineTimestamp",
      "outputs": [
        {
          "internalType": "uint256",
          "name": "",
          "type": "uint256"
        }
      ],
      "stateMutability": "view",
      "type": "function"
    },
    {
      "inputs": [
        {
          "internalType": "uint256",
          "name": "proposalId",
          "type": "uint256"
        }
      ],
      "name": "getTreasuryProposalVotingVotesNo",
      "outputs": [
        {
          "internalType": "uint256",
          "name": "",
          "type": "uint256"
        }
      ],
      "stateMutability": "view",
      "type": "function"
    },
    {
      "inputs": [
        {
          "internalType": "uint256",
          "name": "proposalId",
          "type": "uint256"
        }
      ],
      "name": "getTreasuryProposalVotingVotesYes",
      "outputs": [
        {
          "internalType": "uint256",
          "name": "",
          "type": "uint256"
        }
      ],
      "stateMutability": "view",
      "type": "function"
    },
    {
      "inputs": [],
      "name": "getVotingType",
      "outputs": [
        {
          "internalType": "enum ITreasury.VotingType",
          "name": "",
          "type": "uint8"
        }
      ],
      "stateMutability": "view",
      "type": "function"
    },
    {
      "inputs": [
        {
          "internalType": "address",
          "name": "voter",
          "type": "address"
        }
      ],
      "name": "hasVotedInActiveProposals",
      "outputs": [
        {
          "internalType": "bool",
          "name": "",
          "type": "bool"
        }
      ],
      "stateMutability": "view",
      "type": "function"
    },
    {
      "inputs": [
        {
          "internalType": "uint256",
          "name": "proposalId",
          "type": "uint256"
        },
        {
          "internalType": "address",
          "name": "holder",
          "type": "address"
        }
      ],
      "name": "isHolderVotedForProposal",
      "outputs": [
        {
          "internalType": "bool",
          "name": "",
          "type": "bool"
        }
      ],
      "stateMutability": "view",
      "type": "function"
    },
    {
      "inputs": [
        {
          "internalType": "uint256",
          "name": "proposalId",
          "type": "uint256"
        }
      ],
      "name": "isVotingForProposalStarted",
      "outputs": [
        {
          "internalType": "bool",
          "name": "",
          "type": "bool"
        }
      ],
      "stateMutability": "view",
      "type": "function"
    }
  ],
  "bytecode": "0x608060405234801561001057600080fd5b50610d25806100206000396000f3fe608060405234801561001057600080fd5b50600436106100a95760003560e01c806398e527d31161007157806398e527d314610168578063b954c3db14610186578063d1b53594146101b6578063d90e430d146101e6578063daa4bdf414610216578063f051f0dd14610246576100a9565b8063075502b8146100ae578063263b7ead146100de57806336faf41b146100fc578063380134981461012c5780637e9b8f801461014a575b600080fd5b6100c860048036038101906100c39190610775565b610276565b6040516100d591906107bd565b60405180910390f35b6100e6610299565b6040516100f3919061084f565b60405180910390f35b61011660048036038101906101119190610775565b6102b9565b6040516101239190610879565b60405180910390f35b6101346102cf565b60405161014191906108bf565b60405180910390f35b6101526102fe565b60405161015f9190610998565b60405180910390f35b61017061035f565b60405161017d91906108bf565b60405180910390f35b6101a0600480360381019061019b9190610775565b61038e565b6040516101ad9190610879565b60405180910390f35b6101d060048036038101906101cb9190610a18565b6103a4565b6040516101dd91906107bd565b60405180910390f35b61020060048036038101906101fb9190610775565b61049d565b60405161020d9190610b85565b60405180910390f35b610230600480360381019061022b9190610775565b6105f2565b60405161023d9190610879565b60405180910390f35b610260600480360381019061025b9190610ba7565b610608565b60405161026d91906107bd565b60405180910390f35b600061028182610669565b60000160009054906101000a900460ff169050919050565b60006102a3610693565b60000160009054906101000a900460ff16905090565b60006102c482610669565b600401549050919050565b60006102d9610693565b60020160009054906101000a90046fffffffffffffffffffffffffffffffff16905090565b6060610308610693565b60040180548060200260200160405190810160405280929190818152602001828054801561035557602002820191906000526020600020905b815481526020019060010190808311610341575b5050505050905090565b6000610369610693565b60020160109054906101000a90046fffffffffffffffffffffffffffffffff16905090565b600061039982610669565b600301549050919050565b6000806103af610693565b90506000816004018054905014156103cb576000915050610498565b60005b81600401805490508110156104915760008260040182815481106103f5576103f4610be7565b5b90600052602060002001549050600083600601600083815260200190815260200160002060010160008773ffffffffffffffffffffffffffffffffffffffff1673ffffffffffffffffffffffffffffffffffffffff16815260200190815260200160002060009054906101000a900460ff169050801561047c576001945050505050610498565b5050808061048990610c45565b9150506103ce565b5060009150505b919050565b6104a56106ea565b6104ae826106c0565b6040518060c00160405290816000820160009054906101000a900460ff161515151581526020016000820160019054906101000a900473ffffffffffffffffffffffffffffffffffffffff1673ffffffffffffffffffffffffffffffffffffffff1673ffffffffffffffffffffffffffffffffffffffff1681526020016001820154815260200160028201805461054490610cbd565b80601f016020809104026020016040519081016040528092919081815260200182805461057090610cbd565b80156105bd5780601f10610592576101008083540402835291602001916105bd565b820191906000526020600020905b8154815290600101906020018083116105a057829003601f168201915b505050505081526020016003820160009054906101000a900460ff161515151581526020016004820154815250509050919050565b60006105fd82610669565b600201549050919050565b600061061383610669565b60010160008373ffffffffffffffffffffffffffffffffffffffff1673ffffffffffffffffffffffffffffffffffffffff16815260200190815260200160002060009054906101000a900460ff16905092915050565b600080610674610693565b9050806006016000848152602001908152602001600020915050919050565b6000807fd5211e15e362f5251dbdeabddfd30aa19c1d7433b35372348d9978301f444fb690508091505090565b6000806106cb610693565b9050806005016000848152602001908152602001600020915050919050565b6040518060c00160405280600015158152602001600073ffffffffffffffffffffffffffffffffffffffff1681526020016000815260200160608152602001600015158152602001600081525090565b600080fd5b6000819050919050565b6107528161073f565b811461075d57600080fd5b50565b60008135905061076f81610749565b92915050565b60006020828403121561078b5761078a61073a565b5b600061079984828501610760565b91505092915050565b60008115159050919050565b6107b7816107a2565b82525050565b60006020820190506107d260008301846107ae565b92915050565b7f4e487b7100000000000000000000000000000000000000000000000000000000600052602160045260246000fd5b60028110610818576108176107d8565b5b50565b600081905061082982610807565b919050565b60006108398261081b565b9050919050565b6108498161082e565b82525050565b60006020820190506108646000830184610840565b92915050565b6108738161073f565b82525050565b600060208201905061088e600083018461086a565b92915050565b60006fffffffffffffffffffffffffffffffff82169050919050565b6108b981610894565b82525050565b60006020820190506108d460008301846108b0565b92915050565b600081519050919050565b600082825260208201905092915050565b6000819050602082019050919050565b61090f8161073f565b82525050565b60006109218383610906565b60208301905092915050565b6000602082019050919050565b6000610945826108da565b61094f81856108e5565b935061095a836108f6565b8060005b8381101561098b5781516109728882610915565b975061097d8361092d565b92505060018101905061095e565b5085935050505092915050565b600060208201905081810360008301526109b2818461093a565b905092915050565b600073ffffffffffffffffffffffffffffffffffffffff82169050919050565b60006109e5826109ba565b9050919050565b6109f5816109da565b8114610a0057600080fd5b50565b600081359050610a12816109ec565b92915050565b600060208284031215610a2e57610a2d61073a565b5b6000610a3c84828501610a03565b91505092915050565b610a4e816107a2565b82525050565b610a5d816109da565b82525050565b600081519050919050565b600082825260208201905092915050565b60005b83811015610a9d578082015181840152602081019050610a82565b83811115610aac576000848401525b50505050565b6000601f19601f8301169050919050565b6000610ace82610a63565b610ad88185610a6e565b9350610ae8818560208601610a7f565b610af181610ab2565b840191505092915050565b600060c083016000830151610b146000860182610a45565b506020830151610b276020860182610a54565b506040830151610b3a6040860182610906565b5060608301518482036060860152610b528282610ac3565b9150506080830151610b676080860182610a45565b5060a0830151610b7a60a0860182610906565b508091505092915050565b60006020820190508181036000830152610b9f8184610afc565b905092915050565b60008060408385031215610bbe57610bbd61073a565b5b6000610bcc85828601610760565b9250506020610bdd85828601610a03565b9150509250929050565b7f4e487b7100000000000000000000000000000000000000000000000000000000600052603260045260246000fd5b7f4e487b7100000000000000000000000000000000000000000000000000000000600052601160045260246000fd5b6000610c508261073f565b91507fffffffffffffffffffffffffffffffffffffffffffffffffffffffffffffffff821415610c8357610c82610c16565b5b600182019050919050565b7f4e487b7100000000000000000000000000000000000000000000000000000000600052602260045260246000fd5b60006002820490506001821680610cd557607f821691505b60208210811415610ce957610ce8610c8e565b5b5091905056fea264697066735822122009899d72ac90d6314ce1286cb91b9f2856ba68c862639c678715895308a9e70464736f6c63430008090033",
  "linkReferences": {},
  "deployedLinkReferences": {}
}