{
  "_format": "hh-sol-artifact-1",
  "contractName": "TreasuryViewerFacet",
  "sourceName": "contracts/facets/treasury/TreasuryViewerFacet.sol",
  "abi": [
    {
      "inputs": [],
      "name": "getActiveProposalsIds",
      "outputs": [
        {
          "internalType": "uint256[]",
          "name": "",
          "type": "uint256[]"
        }
      ],
      "stateMutability": "view",
      "type": "function"
    },
    {
      "inputs": [],
      "name": "getProposalsCount",
      "outputs": [
        {
          "internalType": "uint128",
          "name": "",
          "type": "uint128"
        }
      ],
      "stateMutability": "view",
      "type": "function"
    },
    {
      "inputs": [],
      "name": "getTreasuryMaxDuration",
      "outputs": [
        {
          "internalType": "uint128",
          "name": "",
          "type": "uint128"
        }
      ],
      "stateMutability": "view",
      "type": "function"
    },
    {
      "inputs": [
        {
          "internalType": "uint256",
          "name": "proposalId",
          "type": "uint256"
        }
      ],
      "name": "getTreasuryProposal",
      "outputs": [
        {
          "components": [
            {
              "internalType": "bool",
              "name": "proposalAccepted",
              "type": "bool"
            },
            {
              "internalType": "address",
              "name": "destinationAddress",
              "type": "address"
            },
            {
              "internalType": "uint256",
              "name": "value",
              "type": "uint256"
            },
            {
              "internalType": "bytes",
              "name": "callData",
              "type": "bytes"
            },
            {
              "internalType": "bool",
              "name": "proposalExecuted",
              "type": "bool"
            },
            {
              "internalType": "uint256",
              "name": "delayDeadline",
              "type": "uint256"
            }
          ],
          "internalType": "struct ITreasury.Proposal",
          "name": "",
          "type": "tuple"
        }
      ],
      "stateMutability": "view",
      "type": "function"
    },
    {
      "inputs": [
        {
          "internalType": "uint256",
          "name": "proposalId",
          "type": "uint256"
        }
      ],
      "name": "getTreasuryProposalVotingDeadlineTimestamp",
      "outputs": [
        {
          "internalType": "uint256",
          "name": "",
          "type": "uint256"
        }
      ],
      "stateMutability": "view",
      "type": "function"
    },
    {
      "inputs": [
        {
          "internalType": "uint256",
          "name": "proposalId",
          "type": "uint256"
        }
      ],
      "name": "getTreasuryProposalVotingVotesNo",
      "outputs": [
        {
          "internalType": "uint256",
          "name": "",
          "type": "uint256"
        }
      ],
      "stateMutability": "view",
      "type": "function"
    },
    {
      "inputs": [
        {
          "internalType": "uint256",
          "name": "proposalId",
          "type": "uint256"
        }
      ],
      "name": "getTreasuryProposalVotingVotesYes",
      "outputs": [
        {
          "internalType": "uint256",
          "name": "",
          "type": "uint256"
        }
      ],
      "stateMutability": "view",
      "type": "function"
    },
    {
      "inputs": [],
      "name": "getVotingType",
      "outputs": [
        {
          "internalType": "enum ITreasury.VotingType",
          "name": "",
          "type": "uint8"
        }
      ],
      "stateMutability": "view",
      "type": "function"
    },
    {
      "inputs": [
        {
          "internalType": "address",
          "name": "voter",
          "type": "address"
        }
      ],
      "name": "hasVotedInActiveProposals",
      "outputs": [
        {
          "internalType": "bool",
          "name": "",
          "type": "bool"
        }
      ],
      "stateMutability": "view",
      "type": "function"
    },
    {
      "inputs": [
        {
          "internalType": "uint256",
          "name": "proposalId",
          "type": "uint256"
        },
        {
          "internalType": "address",
          "name": "holder",
          "type": "address"
        }
      ],
      "name": "isHolderVotedForProposal",
      "outputs": [
        {
          "internalType": "bool",
          "name": "",
          "type": "bool"
        }
      ],
      "stateMutability": "view",
      "type": "function"
    },
    {
      "inputs": [
        {
          "internalType": "uint256",
          "name": "proposalId",
          "type": "uint256"
        }
      ],
      "name": "isVotingForProposalStarted",
      "outputs": [
        {
          "internalType": "bool",
          "name": "",
          "type": "bool"
        }
      ],
      "stateMutability": "view",
      "type": "function"
    }
  ],
  "bytecode": "0x608060405234801561001057600080fd5b50610d22806100206000396000f3fe608060405234801561001057600080fd5b50600436106100a95760003560e01c806398e527d31161007157806398e527d314610168578063b954c3db14610186578063d1b53594146101b6578063d90e430d146101e6578063daa4bdf414610216578063f051f0dd14610246576100a9565b8063075502b8146100ae578063263b7ead146100de57806336faf41b146100fc578063380134981461012c5780637e9b8f801461014a575b600080fd5b6100c860048036038101906100c39190610774565b610276565b6040516100d591906107bc565b60405180910390f35b6100e6610299565b6040516100f3919061084e565b60405180910390f35b61011660048036038101906101119190610774565b6102b9565b6040516101239190610878565b60405180910390f35b6101346102cf565b60405161014191906108be565b60405180910390f35b6101526102fe565b60405161015f9190610997565b60405180910390f35b61017061035f565b60405161017d91906108be565b60405180910390f35b6101a0600480360381019061019b9190610774565b61038e565b6040516101ad9190610878565b60405180910390f35b6101d060048036038101906101cb9190610a17565b6103a4565b6040516101dd91906107bc565b60405180910390f35b61020060048036038101906101fb9190610774565b61049c565b60405161020d9190610b84565b60405180910390f35b610230600480360381019061022b9190610774565b6105f1565b60405161023d9190610878565b60405180910390f35b610260600480360381019061025b9190610ba6565b610607565b60405161026d91906107bc565b60405180910390f35b600061028182610668565b60000160009054906101000a900460ff169050919050565b60006102a3610692565b60000160009054906101000a900460ff16905090565b60006102c482610668565b600401549050919050565b60006102d9610692565b60020160009054906101000a90046fffffffffffffffffffffffffffffffff16905090565b6060610308610692565b60040180548060200260200160405190810160405280929190818152602001828054801561035557602002820191906000526020600020905b815481526020019060010190808311610341575b5050505050905090565b6000610369610692565b60020160109054906101000a90046fffffffffffffffffffffffffffffffff16905090565b600061039982610668565b600301549050919050565b6000806103af610692565b905060008160040180549050036103ca576000915050610497565b60005b81600401805490508110156104905760008260040182815481106103f4576103f3610be6565b5b90600052602060002001549050600083600601600083815260200190815260200160002060010160008773ffffffffffffffffffffffffffffffffffffffff1673ffffffffffffffffffffffffffffffffffffffff16815260200190815260200160002060009054906101000a900460ff169050801561047b576001945050505050610497565b5050808061048890610c44565b9150506103cd565b5060009150505b919050565b6104a46106e9565b6104ad826106bf565b6040518060c00160405290816000820160009054906101000a900460ff161515151581526020016000820160019054906101000a900473ffffffffffffffffffffffffffffffffffffffff1673ffffffffffffffffffffffffffffffffffffffff1673ffffffffffffffffffffffffffffffffffffffff1681526020016001820154815260200160028201805461054390610cbb565b80601f016020809104026020016040519081016040528092919081815260200182805461056f90610cbb565b80156105bc5780601f10610591576101008083540402835291602001916105bc565b820191906000526020600020905b81548152906001019060200180831161059f57829003601f168201915b505050505081526020016003820160009054906101000a900460ff161515151581526020016004820154815250509050919050565b60006105fc82610668565b600201549050919050565b600061061283610668565b60010160008373ffffffffffffffffffffffffffffffffffffffff1673ffffffffffffffffffffffffffffffffffffffff16815260200190815260200160002060009054906101000a900460ff16905092915050565b600080610673610692565b9050806006016000848152602001908152602001600020915050919050565b6000807fd5211e15e362f5251dbdeabddfd30aa19c1d7433b35372348d9978301f444fb690508091505090565b6000806106ca610692565b9050806005016000848152602001908152602001600020915050919050565b6040518060c00160405280600015158152602001600073ffffffffffffffffffffffffffffffffffffffff1681526020016000815260200160608152602001600015158152602001600081525090565b600080fd5b6000819050919050565b6107518161073e565b811461075c57600080fd5b50565b60008135905061076e81610748565b92915050565b60006020828403121561078a57610789610739565b5b60006107988482850161075f565b91505092915050565b60008115159050919050565b6107b6816107a1565b82525050565b60006020820190506107d160008301846107ad565b92915050565b7f4e487b7100000000000000000000000000000000000000000000000000000000600052602160045260246000fd5b60028110610817576108166107d7565b5b50565b600081905061082882610806565b919050565b60006108388261081a565b9050919050565b6108488161082d565b82525050565b6000602082019050610863600083018461083f565b92915050565b6108728161073e565b82525050565b600060208201905061088d6000830184610869565b92915050565b60006fffffffffffffffffffffffffffffffff82169050919050565b6108b881610893565b82525050565b60006020820190506108d360008301846108af565b92915050565b600081519050919050565b600082825260208201905092915050565b6000819050602082019050919050565b61090e8161073e565b82525050565b60006109208383610905565b60208301905092915050565b6000602082019050919050565b6000610944826108d9565b61094e81856108e4565b9350610959836108f5565b8060005b8381101561098a5781516109718882610914565b975061097c8361092c565b92505060018101905061095d565b5085935050505092915050565b600060208201905081810360008301526109b18184610939565b905092915050565b600073ffffffffffffffffffffffffffffffffffffffff82169050919050565b60006109e4826109b9565b9050919050565b6109f4816109d9565b81146109ff57600080fd5b50565b600081359050610a11816109eb565b92915050565b600060208284031215610a2d57610a2c610739565b5b6000610a3b84828501610a02565b91505092915050565b610a4d816107a1565b82525050565b610a5c816109d9565b82525050565b600081519050919050565b600082825260208201905092915050565b60005b83811015610a9c578082015181840152602081019050610a81565b83811115610aab576000848401525b50505050565b6000601f19601f8301169050919050565b6000610acd82610a62565b610ad78185610a6d565b9350610ae7818560208601610a7e565b610af081610ab1565b840191505092915050565b600060c083016000830151610b136000860182610a44565b506020830151610b266020860182610a53565b506040830151610b396040860182610905565b5060608301518482036060860152610b518282610ac2565b9150506080830151610b666080860182610a44565b5060a0830151610b7960a0860182610905565b508091505092915050565b60006020820190508181036000830152610b9e8184610afb565b905092915050565b60008060408385031215610bbd57610bbc610739565b5b6000610bcb8582860161075f565b9250506020610bdc85828601610a02565b9150509250929050565b7f4e487b7100000000000000000000000000000000000000000000000000000000600052603260045260246000fd5b7f4e487b7100000000000000000000000000000000000000000000000000000000600052601160045260246000fd5b6000610c4f8261073e565b91507fffffffffffffffffffffffffffffffffffffffffffffffffffffffffffffffff8203610c8157610c80610c15565b5b600182019050919050565b7f4e487b7100000000000000000000000000000000000000000000000000000000600052602260045260246000fd5b60006002820490506001821680610cd357607f821691505b602082108103610ce657610ce5610c8c565b5b5091905056fea2646970667358221220297a626803a6d157bc096e148a9e1f825ff6479189142f6b00094ca461c768e064736f6c634300080f0033",
  "linkReferences": {},
  "deployedLinkReferences": {}
}