{
  "_format": "hh-sol-artifact-1",
  "contractName": "PositionValueTest",
  "sourceName": "contracts/test/PositionValueTest.sol",
  "abi": [
    {
      "inputs": [
        {
          "internalType": "int24",
          "name": "tick",
          "type": "int24"
        }
      ],
      "name": "getSqrtRatioAtTick",
      "outputs": [
        {
          "internalType": "uint160",
          "name": "sqrtPriceX96",
          "type": "uint160"
        }
      ],
      "stateMutability": "pure",
      "type": "function"
    },
    {
      "inputs": [
        {
          "internalType": "int24",
          "name": "tickLower",
          "type": "int24"
        },
        {
          "internalType": "int24",
          "name": "tickUpper",
          "type": "int24"
        },
        {
          "internalType": "uint128",
          "name": "liquidity",
          "type": "uint128"
        },
        {
          "internalType": "uint160",
          "name": "sqrtRatioX96",
          "type": "uint160"
        }
      ],
      "name": "principal",
      "outputs": [
        {
          "internalType": "uint256",
          "name": "amount0",
          "type": "uint256"
        },
        {
          "internalType": "uint256",
          "name": "amount1",
          "type": "uint256"
        }
      ],
      "stateMutability": "pure",
      "type": "function"
    }
  ],
  "bytecode": "0x608060405234801561001057600080fd5b50610df6806100206000396000f3fe608060405234801561001057600080fd5b50600436106100365760003560e01c8063196910751461003b578063986cfba31461006c575b600080fd5b610055600480360381019061005091906109d1565b61009c565b604051610063929190610a51565b60405180910390f35b61008660048036038101906100819190610a7a565b6100c8565b6040516100939190610ab6565b60405180910390f35b6000806100bb836100ac886100da565b6100b5886100da565b876105a5565b9150915094509492505050565b60006100d3826100da565b9050919050565b60008060008360020b126100f1578260020b6100ff565b8260020b6100fe90610b0a565b5b90507ffffffffffffffffffffffffffffffffffffffffffffffffffffffffffff2761861012b90610b52565b60020b811115610170576040517f08c379a000000000000000000000000000000000000000000000000000000000815260040161016790610bf7565b60405180910390fd5b6000806001831603610193577001000000000000000000000000000000006101a5565b6ffffcb933bd6fad37aa2d162d1a5940015b70ffffffffffffffffffffffffffffffffff169050600060028316146101e85760806ffff97272373d413259a46990580e213a826101e39190610c17565b901c90505b600060048316146102165760806ffff2e50f5f656932ef12357cf3c7fdcc826102119190610c17565b901c90505b600060088316146102445760806fffe5caca7e10e4e61c3624eaa0941cd08261023f9190610c17565b901c90505b600060108316146102725760806fffcb9843d60f6159c9db58835c9266448261026d9190610c17565b901c90505b600060208316146102a05760806fff973b41fa98c081472e6896dfb254c08261029b9190610c17565b901c90505b600060408316146102ce5760806fff2ea16466c96a3843ec78b326b52861826102c99190610c17565b901c90505b600060808316146102fc5760806ffe5dee046a99a2a811c461f1969c3053826102f79190610c17565b901c90505b600061010083161461032b5760806ffcbe86c7900a88aedcffc83b479aa3a4826103269190610c17565b901c90505b600061020083161461035a5760806ff987a7253ac413176f2b074cf7815e54826103559190610c17565b901c90505b60006104008316146103895760806ff3392b0822b70005940c7a398e4b70f3826103849190610c17565b901c90505b60006108008316146103b85760806fe7159475a2c29b7443b29c7fa6e889d9826103b39190610c17565b901c90505b60006110008316146103e75760806fd097f3bdfd2022b8845ad8f792aa5825826103e29190610c17565b901c90505b60006120008316146104165760806fa9f746462d870fdf8a65dc1f90e061e5826104119190610c17565b901c90505b60006140008316146104455760806f70d869a156d2a1b890bb3df62baf32f7826104409190610c17565b901c90505b60006180008316146104745760806f31be135f97d08fd981231505542fcfa68261046f9190610c17565b901c90505b6000620100008316146104a45760806f09aa508b5b7a84e1c677de54f3e99bc98261049f9190610c17565b901c90505b6000620200008316146104d35760806e5d6af8dedb81196699c329225ee604826104ce9190610c17565b901c90505b6000620400008316146105015760806d2216e584f5fa1ea926041bedfe98826104fc9190610c17565b901c90505b60006208000083161461052d5760806b048a170391f7dc42444e8fa2826105289190610c17565b901c90505b60008460020b131561056857807fffffffffffffffffffffffffffffffffffffffffffffffffffffffffffffffff6105659190610ca0565b90505b60006401000000008261057b9190610cd1565b1461058757600161058a565b60005b60ff16602082901c61059c9190610d02565b92505050919050565b6000808373ffffffffffffffffffffffffffffffffffffffff168573ffffffffffffffffffffffffffffffffffffffff1611156105e757838580955081965050505b8473ffffffffffffffffffffffffffffffffffffffff168673ffffffffffffffffffffffffffffffffffffffff161161062c57610625858585610697565b915061068e565b8373ffffffffffffffffffffffffffffffffffffffff168673ffffffffffffffffffffffffffffffffffffffff16101561067f5761066b868585610697565b915061067885878561075d565b905061068d565b61068a85858561075d565b90505b5b94509492505050565b60008273ffffffffffffffffffffffffffffffffffffffff168473ffffffffffffffffffffffffffffffffffffffff1611156106d857828480945081955050505b8373ffffffffffffffffffffffffffffffffffffffff1661074a606060ff16846fffffffffffffffffffffffffffffffff16901b86866107189190610d58565b73ffffffffffffffffffffffffffffffffffffffff168673ffffffffffffffffffffffffffffffffffffffff166107f2565b6107549190610ca0565b90509392505050565b60008273ffffffffffffffffffffffffffffffffffffffff168473ffffffffffffffffffffffffffffffffffffffff16111561079e57828480945081955050505b6107e9826fffffffffffffffffffffffffffffffff1685856107c09190610d58565b73ffffffffffffffffffffffffffffffffffffffff166c010000000000000000000000006107f2565b90509392505050565b600080600080198587098587029250828110838203039150506000810361082c576000841161082057600080fd5b838204925050506108f8565b80841161083857600080fd5b60008486880990508281118203915080830392506000856001877fffffffffffffffffffffffffffffffffffffffffffffffffffffffffffffffff61087d9190610d8c565b6108879190610d02565b169050808604955080840493506001818260000304019050808302841793506000600287600302189050808702600203810290508087026002038102905080870260020381029050808702600203810290508087026002038102905080870260020381029050808502955050505050505b9392505050565b600080fd5b60008160020b9050919050565b61091a81610904565b811461092557600080fd5b50565b60008135905061093781610911565b92915050565b60006fffffffffffffffffffffffffffffffff82169050919050565b6109628161093d565b811461096d57600080fd5b50565b60008135905061097f81610959565b92915050565b600073ffffffffffffffffffffffffffffffffffffffff82169050919050565b6109ae81610985565b81146109b957600080fd5b50565b6000813590506109cb816109a5565b92915050565b600080600080608085870312156109eb576109ea6108ff565b5b60006109f987828801610928565b9450506020610a0a87828801610928565b9350506040610a1b87828801610970565b9250506060610a2c878288016109bc565b91505092959194509250565b6000819050919050565b610a4b81610a38565b82525050565b6000604082019050610a666000830185610a42565b610a736020830184610a42565b9392505050565b600060208284031215610a9057610a8f6108ff565b5b6000610a9e84828501610928565b91505092915050565b610ab081610985565b82525050565b6000602082019050610acb6000830184610aa7565b92915050565b6000819050919050565b7f4e487b7100000000000000000000000000000000000000000000000000000000600052601160045260246000fd5b6000610b1582610ad1565b91507f80000000000000000000000000000000000000000000000000000000000000008203610b4757610b46610adb565b5b816000039050919050565b6000610b5d82610904565b91507fffffffffffffffffffffffffffffffffffffffffffffffffffffffffff8000008203610b8f57610b8e610adb565b5b816000039050919050565b600082825260208201905092915050565b7f5400000000000000000000000000000000000000000000000000000000000000600082015250565b6000610be1600183610b9a565b9150610bec82610bab565b602082019050919050565b60006020820190508181036000830152610c1081610bd4565b9050919050565b6000610c2282610a38565b9150610c2d83610a38565b9250817fffffffffffffffffffffffffffffffffffffffffffffffffffffffffffffffff0483118215151615610c6657610c65610adb565b5b828202905092915050565b7f4e487b7100000000000000000000000000000000000000000000000000000000600052601260045260246000fd5b6000610cab82610a38565b9150610cb683610a38565b925082610cc657610cc5610c71565b5b828204905092915050565b6000610cdc82610a38565b9150610ce783610a38565b925082610cf757610cf6610c71565b5b828206905092915050565b6000610d0d82610a38565b9150610d1883610a38565b9250827fffffffffffffffffffffffffffffffffffffffffffffffffffffffffffffffff03821115610d4d57610d4c610adb565b5b828201905092915050565b6000610d6382610985565b9150610d6e83610985565b925082821015610d8157610d80610adb565b5b828203905092915050565b6000610d9782610a38565b9150610da283610a38565b925082821015610db557610db4610adb565b5b82820390509291505056fea26469706673582212205387993f9427babf6c573e6a46c6f3fc1392738d9cf3e488b3d3a5de37b7ca9364736f6c634300080f0033",
  "linkReferences": {},
  "deployedLinkReferences": {}
}