{
  "_format": "hh-sol-artifact-1",
  "contractName": "PositionValueTest",
  "sourceName": "contracts/test/PositionValueTest.sol",
  "abi": [
    {
      "inputs": [
        {
          "internalType": "int24",
          "name": "tick",
          "type": "int24"
        }
      ],
      "name": "getSqrtRatioAtTick",
      "outputs": [
        {
          "internalType": "uint160",
          "name": "sqrtPriceX96",
          "type": "uint160"
        }
      ],
      "stateMutability": "pure",
      "type": "function"
    },
    {
      "inputs": [
        {
          "internalType": "int24",
          "name": "tickLower",
          "type": "int24"
        },
        {
          "internalType": "int24",
          "name": "tickUpper",
          "type": "int24"
        },
        {
          "internalType": "uint128",
          "name": "liquidity",
          "type": "uint128"
        },
        {
          "internalType": "uint160",
          "name": "sqrtRatioX96",
          "type": "uint160"
        }
      ],
      "name": "principal",
      "outputs": [
        {
          "internalType": "uint256",
          "name": "amount0",
          "type": "uint256"
        },
        {
          "internalType": "uint256",
          "name": "amount1",
          "type": "uint256"
        }
      ],
      "stateMutability": "pure",
      "type": "function"
    }
  ],
  "bytecode": "0x608060405234801561001057600080fd5b50610dfa806100206000396000f3fe608060405234801561001057600080fd5b50600436106100365760003560e01c8063196910751461003b578063986cfba31461006c575b600080fd5b610055600480360381019061005091906109d3565b61009c565b604051610063929190610a53565b60405180910390f35b61008660048036038101906100819190610a7c565b6100c8565b6040516100939190610ab8565b60405180910390f35b6000806100bb836100ac886100da565b6100b5886100da565b876105a6565b9150915094509492505050565b60006100d3826100da565b9050919050565b60008060008360020b126100f1578260020b6100ff565b8260020b6100fe90610b0c565b5b90507ffffffffffffffffffffffffffffffffffffffffffffffffffffffffffff2761861012b90610b55565b60020b811115610170576040517f08c379a000000000000000000000000000000000000000000000000000000000815260040161016790610bfb565b60405180910390fd5b600080600183161415610194577001000000000000000000000000000000006101a6565b6ffffcb933bd6fad37aa2d162d1a5940015b70ffffffffffffffffffffffffffffffffff169050600060028316146101e95760806ffff97272373d413259a46990580e213a826101e49190610c1b565b901c90505b600060048316146102175760806ffff2e50f5f656932ef12357cf3c7fdcc826102129190610c1b565b901c90505b600060088316146102455760806fffe5caca7e10e4e61c3624eaa0941cd0826102409190610c1b565b901c90505b600060108316146102735760806fffcb9843d60f6159c9db58835c9266448261026e9190610c1b565b901c90505b600060208316146102a15760806fff973b41fa98c081472e6896dfb254c08261029c9190610c1b565b901c90505b600060408316146102cf5760806fff2ea16466c96a3843ec78b326b52861826102ca9190610c1b565b901c90505b600060808316146102fd5760806ffe5dee046a99a2a811c461f1969c3053826102f89190610c1b565b901c90505b600061010083161461032c5760806ffcbe86c7900a88aedcffc83b479aa3a4826103279190610c1b565b901c90505b600061020083161461035b5760806ff987a7253ac413176f2b074cf7815e54826103569190610c1b565b901c90505b600061040083161461038a5760806ff3392b0822b70005940c7a398e4b70f3826103859190610c1b565b901c90505b60006108008316146103b95760806fe7159475a2c29b7443b29c7fa6e889d9826103b49190610c1b565b901c90505b60006110008316146103e85760806fd097f3bdfd2022b8845ad8f792aa5825826103e39190610c1b565b901c90505b60006120008316146104175760806fa9f746462d870fdf8a65dc1f90e061e5826104129190610c1b565b901c90505b60006140008316146104465760806f70d869a156d2a1b890bb3df62baf32f7826104419190610c1b565b901c90505b60006180008316146104755760806f31be135f97d08fd981231505542fcfa6826104709190610c1b565b901c90505b6000620100008316146104a55760806f09aa508b5b7a84e1c677de54f3e99bc9826104a09190610c1b565b901c90505b6000620200008316146104d45760806e5d6af8dedb81196699c329225ee604826104cf9190610c1b565b901c90505b6000620400008316146105025760806d2216e584f5fa1ea926041bedfe98826104fd9190610c1b565b901c90505b60006208000083161461052e5760806b048a170391f7dc42444e8fa2826105299190610c1b565b901c90505b60008460020b131561056957807fffffffffffffffffffffffffffffffffffffffffffffffffffffffffffffffff6105669190610ca4565b90505b60006401000000008261057c9190610cd5565b1461058857600161058b565b60005b60ff16602082901c61059d9190610d06565b92505050919050565b6000808373ffffffffffffffffffffffffffffffffffffffff168573ffffffffffffffffffffffffffffffffffffffff1611156105e857838580955081965050505b8473ffffffffffffffffffffffffffffffffffffffff168673ffffffffffffffffffffffffffffffffffffffff161161062d57610626858585610698565b915061068f565b8373ffffffffffffffffffffffffffffffffffffffff168673ffffffffffffffffffffffffffffffffffffffff1610156106805761066c868585610698565b915061067985878561075e565b905061068e565b61068b85858561075e565b90505b5b94509492505050565b60008273ffffffffffffffffffffffffffffffffffffffff168473ffffffffffffffffffffffffffffffffffffffff1611156106d957828480945081955050505b8373ffffffffffffffffffffffffffffffffffffffff1661074b606060ff16846fffffffffffffffffffffffffffffffff16901b86866107199190610d5c565b73ffffffffffffffffffffffffffffffffffffffff168673ffffffffffffffffffffffffffffffffffffffff166107f3565b6107559190610ca4565b90509392505050565b60008273ffffffffffffffffffffffffffffffffffffffff168473ffffffffffffffffffffffffffffffffffffffff16111561079f57828480945081955050505b6107ea826fffffffffffffffffffffffffffffffff1685856107c19190610d5c565b73ffffffffffffffffffffffffffffffffffffffff166c010000000000000000000000006107f3565b90509392505050565b60008060008019858709858702925082811083820303915050600081141561082e576000841161082257600080fd5b838204925050506108fa565b80841161083a57600080fd5b60008486880990508281118203915080830392506000856001877fffffffffffffffffffffffffffffffffffffffffffffffffffffffffffffffff61087f9190610d90565b6108899190610d06565b169050808604955080840493506001818260000304019050808302841793506000600287600302189050808702600203810290508087026002038102905080870260020381029050808702600203810290508087026002038102905080870260020381029050808502955050505050505b9392505050565b600080fd5b60008160020b9050919050565b61091c81610906565b811461092757600080fd5b50565b60008135905061093981610913565b92915050565b60006fffffffffffffffffffffffffffffffff82169050919050565b6109648161093f565b811461096f57600080fd5b50565b6000813590506109818161095b565b92915050565b600073ffffffffffffffffffffffffffffffffffffffff82169050919050565b6109b081610987565b81146109bb57600080fd5b50565b6000813590506109cd816109a7565b92915050565b600080600080608085870312156109ed576109ec610901565b5b60006109fb8782880161092a565b9450506020610a0c8782880161092a565b9350506040610a1d87828801610972565b9250506060610a2e878288016109be565b91505092959194509250565b6000819050919050565b610a4d81610a3a565b82525050565b6000604082019050610a686000830185610a44565b610a756020830184610a44565b9392505050565b600060208284031215610a9257610a91610901565b5b6000610aa08482850161092a565b91505092915050565b610ab281610987565b82525050565b6000602082019050610acd6000830184610aa9565b92915050565b6000819050919050565b7f4e487b7100000000000000000000000000000000000000000000000000000000600052601160045260246000fd5b6000610b1782610ad3565b91507f8000000000000000000000000000000000000000000000000000000000000000821415610b4a57610b49610add565b5b816000039050919050565b6000610b6082610906565b91507fffffffffffffffffffffffffffffffffffffffffffffffffffffffffff800000821415610b9357610b92610add565b5b816000039050919050565b600082825260208201905092915050565b7f5400000000000000000000000000000000000000000000000000000000000000600082015250565b6000610be5600183610b9e565b9150610bf082610baf565b602082019050919050565b60006020820190508181036000830152610c1481610bd8565b9050919050565b6000610c2682610a3a565b9150610c3183610a3a565b9250817fffffffffffffffffffffffffffffffffffffffffffffffffffffffffffffffff0483118215151615610c6a57610c69610add565b5b828202905092915050565b7f4e487b7100000000000000000000000000000000000000000000000000000000600052601260045260246000fd5b6000610caf82610a3a565b9150610cba83610a3a565b925082610cca57610cc9610c75565b5b828204905092915050565b6000610ce082610a3a565b9150610ceb83610a3a565b925082610cfb57610cfa610c75565b5b828206905092915050565b6000610d1182610a3a565b9150610d1c83610a3a565b9250827fffffffffffffffffffffffffffffffffffffffffffffffffffffffffffffffff03821115610d5157610d50610add565b5b828201905092915050565b6000610d6782610987565b9150610d7283610987565b925082821015610d8557610d84610add565b5b828203905092915050565b6000610d9b82610a3a565b9150610da683610a3a565b925082821015610db957610db8610add565b5b82820390509291505056fea264697066735822122082443b71179d698b84833d3d6c4d802808906e5de2293460f973004c4b51129864736f6c63430008090033",
  "linkReferences": {},
  "deployedLinkReferences": {}
}